:020000040800F2
:105000008819002045510008E97C0008AD6E0008B1
:10501000E57C0008496500087B8E00080000000060
:10502000000000000000000000000000CD8000082B
:10503000DD67000800000000717D0008E9810008BC
:105040005F5100085F5100085F5100085F51000880
:105050005F5100085F510008E1670008156800080B
:105060005F5100085F5100085F5100085F51000860
:105070005F5100085F5100085F5100085F51000850
:105080005F5100085F5100085F5100085F51000840
:105090005F5100085F5100085F5100085F51000830
:1050A0005F5100085F5100085F5100085F51000820
:1050B000E1820008958300085F5100085F510008F5
:1050C0005F5100085F5100085F5100085F51000800
:1050D0005F510008858700080D8900087D8B000856
:1050E0005F5100085F5100085F5100085F510008E0
:1050F0005F5100085F5100085F5100085F510008D0
:105100005F5100085F5100085F5100085F510008BF
:105110005F5100085F5100085F5100085F510008AF
:105120005F5100085F5100085F5100085F5100089F
:10513000DFF80CD000F082FB004800475DB70008A4
:10514000881900200648804706480047FEE7FEE72A
:10515000FEE7FEE7FEE7FEE7FEE7FEE7FEE7FEE727
:10516000ED8100083151000840EA01039B0703D09C
:1051700009E008C9121F08C0042AFAD203E011F896
:10518000013B00F8013B521EF9D27047D2B201E058
:1051900000F8012B491EFBD270470022F6E710B53C
:1051A00013460A4604461946FFF7F0FF204610BD95
:1051B00030B505462A460B4612F8010B13F8014B91
:1051C00008B1A042F8D01CB1002802D06D1CF1E754
:1051D000284630BDCAB2401E10F8011F8A4202D0D4
:1051E0000029F9D100207047421C10F8011B00294A
:1051F000FBD1801A704730B504460020034600E01A
:105200005B1C934203D2E05CCD5C401BF8D030BD08
:1052100010B5044600E0401C0378002BFBD100E0F1
:10522000401C521E04D311F8013B0370002BF7D130
:1052300000210170204610BD034611F8012B00F833
:10524000012B002AF9D11846704770B5064603F0C5
:10525000A3FE046805460A220021304600F0B9F991
:105260002C6070BD2DE9FE4F804681EA0300C00F1F
:105270000C46009021F0004123F00045B8EB0200FD
:10528000A94105D24046214690461C460B4602469F
:1052900023F00040104347D0270DC7F30A00C3F3A3
:1052A0000A510290401A019040286BDAC3F31300B0
:1052B00040F4801B0098924620B10023D2EB030AF1
:1052C00063EB0B0B01985946C0F14002504600F0C9
:1052D0004FF906460D4650465946019A00F067F9C7
:1052E00010EB08006141002487EA115284EAE77359
:1052F0001A4340D0009A62B3019A012A4FEA07523A
:1053000015DC001B61EB02014FF0004202EA07527C
:10531000CDE90042001C41F5801132462B4600F0D9
:105320009FF903B0BDE8F08F40462146F9E7001B26
:1053300061EB0201001C41F5801300185B4120184D
:10534000A2F5001747EB030140EAD570B6196D418D
:1053500011E06D084FEA360645EAC0754FEA07527C
:10536000001B61EB0201001C41F5801149084FEA66
:1053700030000019514132462B4603B0BDE8F04FD2
:1053800000F05FB90098012240000023D0EB020238
:1053900063EBE073009821464FEAE074B8EB00003D
:1053A00061EB0401E9E783F000435BE781F0004132
:1053B00058E72DE9FE4F81EA030404F0004421F090
:1053C000004100944FF0000B23F0004350EA010429
:1053D0005ED052EA03045BD0C3F30A54C1F30A550A
:1053E0002C44A4F2F3340194A0FB0254C1F3130142
:1053F00041F48011C3F3130343F4801301FB02440F
:1054000000FB034E840A970A44EA815447EA835713
:10541000A4FB076802958D0A05FB07854FEA932CCC
:1054200004FB0C542705029D4FEA065847EA16373D
:10543000B5EB08056EEB070C870E920E47EA811755
:1054400042EA8312A7FB0201B6EB0B0164EB0004F6
:105450002B0D43EA0C335E1844EB1C50DA465146E0
:10546000E7FB0201C5F313044FEA0B3343EA14537D
:105470004FEA0432019C43EA0603A4F10C040294AF
:10548000009CCDE900B400F0EBF803B0BDE8F08F6C
:1054900000200146F9E70EB540F2334102910021A8
:1054A000CDE900110A460B4600F0DAF803B000BD62
:1054B000C1F30A5210B5C1F3130140F2FF3341F4B6
:1054C00080119A4201DA002010BD40F233439A4223
:1054D000A2F2334203DC524200F059F810BD904072
:1054E00010BD30B50B46014600202022012409E002
:1054F00021FA02F59D4205D303FA02F5491B04FA8D
:1055000002F52844151EA2F10102F1DC30BD2DE99F
:10551000F05F0546002092469B4688460646814637
:1055200040241BE0284641464746224600F02FF81B
:1055300053465A46C01A914110D311461846224686
:1055400000F016F82D1A67EB01084F46224601209D
:10555000002100F00DF817EB00094E41201EA4F1C8
:105560000104DFDC484631462A464346BDE8F09F49
:10557000202A04DB203A00FA02F100207047914013
:10558000C2F1200320FA03F3194390407047202A08
:1055900004DB203A21FA02F00021704721FA02F3DD
:1055A000D040C2F120029140084319467047202A9A
:1055B00006DBCB17203A41FA02F043EAE07306E03B
:1055C00041FA02F3D040C2F120029140084319464B
:1055D00070472DE9F04791460F4680460446002665
:1055E00014F8015B2DB100F03BF90068405DC00785
:1055F000F6D12B2D02D02D2D18D0641E4A463946E7
:10560000204600F031F927B13968A14201D1C7F82D
:10561000008071054FF002040BD54042002803DDE5
:1056200003F0BAFC0460A007BDE8F08746F480668A
:10563000E4E70028F8DA03F0AFFC04606FF0004004
:10564000F2E710B5141E73F1000408DA401C41F1B2
:10565000000192185B411A4301D120F0010010BDF6
:105660002DE9F04D92469B4611B1B1FA81F202E06C
:10567000B0FA80F220329046FFF77AFF04460F46D8
:1056800040EA0A0041EA0B0153465A46084313D048
:10569000114653EA010019D0C8F140025046FFF705
:1056A00076FF05460E46504659464246FFF760FFD4
:1056B000084305D0012004E020463946BDE8F08DBE
:1056C0000020054346EAE0762C4337430A986305F9
:1056D000E40AA0EB08000022FD0A44EA47540A301D
:1056E00002D500200146E9E7010510196941DDE90D
:1056F000084500196941BDE8F04DA2E72DE9F04DDC
:1057000081EA030404F0004B21F0004514464FF0F9
:10571000000A23F0004150EA050220D054EA0102B9
:105720001DD0C5F30A570246C5F31303C1F3130096
:10573000C1F30A5640F4801543F48013A7EB060822
:10574000101BD64608F2FD3873EB050002D308F1B2
:10575000010801E092185B41B8F1000F03DA002064
:105760000146BDE8F08D00204FF4801106468446C6
:105770000EE0171B73EB050705D3121B63EB050344
:1057800006434CEA010C49084FEA300092185B418D
:1057900050EA0107EDD152EA030012D082EA040078
:1057A00083EA0501084305D0101BAB4106D2012254
:1057B000002306E000224FF0004302E06FF00102F8
:1057C00053101AEB06004CEB085110EB0A0041EBAA
:1057D0000B01BDE8F04DFFF734BFC1F30A52C1F32E
:1057E000130140F2FF3341F480119A4202DA0020A3
:1057F0000146704740F233439A42A2F2334202DC40
:105800005242FFF7C4BEFFF7B3BE000030B5041E1E
:1058100071F1000404DB4FF00044404264EB0101ED
:10582000141E73F1000405DB1C464FF00043524286
:1058300063EB0403994208BF904230BD064C074D0C
:1058400006E0E06840F0010394E807009847103450
:10585000AC42F6D3FFF770FC94D40008B4D400082F
:105860000048704754D300082DE9F05F8246007865
:10587000002715468B460AF10104B946302801D0AD
:105880009DB113E014F8010B0127782803D05828A4
:1058900001D045B10AE00DB1102D07D10027102528
:1058A00014F8010B02E0082500E00A250026B046A6
:1058B0000EE005FB080005FB06F1012701EB104691
:1058C0001FFA80F8B6F5803F00D3B94614F8010BF3
:1058D000294600F018F80028EBDABBF1000F05D0DC
:1058E0000FB1641E00E05446CBF80040B9F1000F40
:1058F00006D003F051FB02210160C81EBDE8F09FF5
:1059000048EA0640FAE73A2800D2303820F0200270
:10591000412A01D3A2F13700884201D34FF0FF3072
:10592000704770B58C1810F8015B15F0070301D1B2
:1059300010F8013B2A1106D110F8012B03E010F8F2
:10594000016B01F8016B5B1EF9D12B0705D4002315
:10595000521E0DD401F8013BFAE710F8013BCB1AB7
:10596000921C03E013F8015B01F8015B521EF9D5AC
:10597000A142D8D3002070BD08B50121084602F02D
:1059800029FA01214FF4077002F054FA1020ADF803
:10599000000000208DF8030069460C4801F06EF904
:1059A0000120ADF8000000208DF80300694608488A
:1059B00001F064F90220ADF8000000208DF803002A
:1059C0006946034801F05AF908BD0000000801408B
:1059D0000010014010B5FFF7CFFF00F001F810BD37
:1059E00000B591B03A4800F035FE3A4806903A4882
:1059F0000790002008900320099000200A90802042
:105A00000B9040000C9080000D9020200E90000222
:105A10000F900020109006A92D4800F0C1FE012132
:105A20002B4800F00BFE0020019001208DF80800AB
:105A30008DF809004FF460200390002004900320AB
:105A40008DF8140001A923484C3800F071F84FF488
:105A5000404002F0B3F90323012204211D484C38D1
:105A600000F08EF8032302220A211A484C3800F075
:105A700087F803231A460B2116484C3800F080F8AB
:105A8000012114484C3800F034F8012111484C38F9
:105A900000F024F80F484C3800F0CEF800BF0D4855
:105AA0004C3800F03BF80028F9D10A484C3800F097
:105AB000D3F800BF07484C3800F026F80028F9D189
:105AC000012104484C3800F0BCF811B000BD0000C2
:105AD000080002404C2401402A00002021B18268C5
:105AE00042F00102826003E0826822F001028260DB
:105AF000704721B1826842F48072826003E082685C
:105B000022F4807282607047014600208A6802F0A9
:105B100004020AB1012000E0002070470146002085
:105B20008A6802F008020AB1012000E000207047F4
:105B300030B502460020002350680F4C20400D79FC
:105B40000C6844EA05242043506090680B4C2040C8
:105B5000D1E902542C434D7944EA45042043906036
:105B6000D06A20F470000C7C641EE4B2234340EA47
:105B70000350D06230BD0000FFFEF0FFFDF7F1FFE3
:105B8000F0B504460D4600200021092D11DDE06826
:105B9000A5F10A0606EB4607072606FA07F1884331
:105BA000A5F10A0606EB460603FA06F10843E06093
:105BB0000CE0206905EB4507072606FA07F1884344
:105BC00005EB450603FA06F108432061072A0FDAC0
:105BD000606B561E06EB86071F2606FA07F1884300
:105BE000561E06EB860605FA06F10843606322E0BE
:105BF0000D2A0FDA206BD61F06EB86071F2606FA42
:105C000007F18843D61F06EB860605FA06F108431E
:105C1000206310E0E06AA2F10D0606EB86071F265E
:105C200006FA07F18843A2F10D0606EB860605FA8F
:105C300006F10843E062F0BD816841F0080181602F
:105C4000704721B1826842F4A002826003E082685A
:105C500022F4A00282607047816841F004018160F3
:105C600070477CB50546322000F062F88DF80000E0
:105C7000332000F05DF88DF80100012005F0B2FA44
:105C8000342000F055F88DF80200352000F050F86F
:105C90008DF80300012005F0A5FA362000F048F841
:105CA0008DF80400372000F043F88DF8050001203E
:105CB00005F098FA9DF800009DF8011000EB012016
:105CC00004B2002C01DA604204B22C609DF802009C
:105CD0009DF8031000EB012004B2002C01DA6042B1
:105CE00004B26C609DF804009DF8051000EB0120E3
:105CF00004B2002C01DA604204B2AC607CBD10B585
:105D000002F08AF90F212C2000F03CF808212D2008
:105D100000F038F880212E2000F034F808213120DE
:105D200000F030F80021382000F02CF810BD000001
:105D300010B504461021114801F07DF844F08000B0
:105D4000002242EA00210E4802F046F900BF02217B
:105D50000B4802F035F90028F9D000BF01210848AE
:105D600002F02EF90028F9D01021044801F065F85E
:105D7000034802F02EF9C0B210BD0000001001402F
:105D80000030014070B504460D4610210E4801F068
:105D900052F845EA04210D4802F01EF900BF022125
:105DA0000A4802F00DF90028F9D000BF0121074888
:105DB00002F006F90028F9D01021034801F03DF85F
:105DC000024802F006F970BD0010014000300140A9
:105DD00030B587B039483AA102683A4803F0C8F8AC
:105DE0003948002102910391CDE9041000913C2330
:105DF000344A019135A138A001F0E8F9002858D1C2
:105E00003148808882B230480168042006F06CF87E
:105E10004FF4FA6005F0E6F90CE0042005F035FCDB
:105E2000044622462E49042005F0DCFE012005F040
:105E3000D9F903E02A4800782028EED100BF28488D
:105E40000078202802D1012026490870244D002D19
:105E50002BD0284601F0B2FE022826D1284601F0B8
:105E600095FD06281CD2DFE800F003070B0F13177F
:105E70001DA003F06DF817E020A003F069F813E00F
:105E800025A003F065F80FE02CA003F061F80BE00B
:105E900032A003F05DF807E039A003F059F803E001
:105EA00042A003F055F800BF00BF074801F0ECF82E
:105EB00002E045A003F04CF807B030BD58000020C8
:105EC000256400009408002048110020686974408F
:105ED00067647A790000000067647A7931323300B0
:105EE000C60800208A000020546970733A09C1ACCA
:105EF000BDD3B3C9B9A60D0A000000005741524EE8
:105F00003A09C1ACBDD3CAA7B0DCA3BAD0ADD2E9BF
:105F1000B4EDCEF30D0A00005741524E3A09C1AC20
:105F2000BDD3CAA7B0DCA3BAB7C7B7A8B5C4636C62
:105F300069656E7469640D0A000000005741524E95
:105F40003A09C1ACBDD3CAA7B0DCA3BAB7FECEF143
:105F5000C6F7CAA7B0DC0D0A000000005741524E38
:105F60003A09C1ACBDD3CAA7B0DCA3BAD3C3BBA79F
:105F7000C3FBBBF2C3DCC2EBB4EDCEF30D0A0000F1
:105F80005741524E3A09C1ACBDD3CAA7B0DCA3BA3F
:105F9000B7C7B7A8C1B4BDD328B1C8C8E7746F6B81
:105FA000656EB7C7B7A8290D0A0000004552523ADE
:105FB00009C1ACBDD3CAA7B0DCA3BACEB4D6AAB4CB
:105FC000EDCEF30D0A0000005741524E3A094D51F3
:105FD00054545F5061636B6574436F6E6E65637498
:105FE000204661696C65640D0A00000070B588B0D8
:105FF00004460D4616460020049005900690079032
:1060000004A80121002200923346CDE9012103902A
:106010002A4621460A2001F027FAB8B9059882B22B
:106020000420049905F060FF0EA002F091FF00200B
:106030000F49087004A801F027F8642005F0D2F891
:1060400000200C4908700C49087008E004A801F011
:106050001BF8642005F0C6F808A002F079FF08B02C
:1060600070BD0000B7A2CBCDB3C9B9A60D0A000020
:10607000BD000020A800002096000020B7A2CBCDD4
:10608000CAA7B0DC0D0A00002DE9F0438BB007462B
:1060900000200790089009900A900690059000262D
:1060A0000490002500248046384601F087FD06460E
:1060B000F01E0D2870D2DFE800F026737B94AFCF7E
:1060C000B7CFC3CFCFCF070006AA05A9384601F046
:1060D00018FC0546B5B978A0DDE9051202F038FFD5
:1060E00007AADDE9050101F02BF858B978A002F004
:1060F0002FFF089882B20420079905F0F5FE07A843
:1061000000F0C2FFABE0784804AB06AA05A90090F6
:10611000384601F04BFC0546002D40D10120734963
:1061200008700698FFF760F8714908800698FFF735
:106130005BF881464A466F480699FFF715F89DF8C7
:106140001000012802D0022827D112E007A96648D2
:10615000008801F02FFA58B967A002F0F9FE0898FC
:1061600082B20420079905F0BFFE07A800F08CFF5B
:1061700014E007A95C48008801F064FA58B964A0EB
:1061800002F0E6FE089882B20420079905F0ACFE02
:1061900007A800F079FF01E05EE000BF00BF5EE00D
:1061A000384601F0CBFC10B95FA002F0D1FE56E0FA
:1061B000384601F0E1FC98B963A002F0C9FE07A9D6
:1061C0000A2001F063FA58B965A002F0C1FE0898F0
:1061D00082B20420079905F087FE07A800F054FF5B
:1061E0003DE041480188384601F0D5FC98B962A0ED
:1061F00002F0AEFE07A90A2001F000FA58B964A027
:1062000002F0A6FE089882B20420079905F06CFE01
:1062100007A800F039FF22E0384601F09EFC10B9D3
:1062200062A002F095FE1AE0384601F001FD18B9AF
:1062300064A002F08DFE02E069A002F089FE0EE08B
:10624000384601F00FFD18B96CA002F081FE02E0A3
:1062500071A002F07DFE02E04FF0FF3500BF00BFED
:10626000681C10B90BB0BDE8F0837D210698FEF7DD
:10627000B1FF0446A4B1681C90B1641C06E014F898
:10628000012B404608F1010801A90A542078302862
:1062900002DB20783928F2DD01A8FEF7D6FF804620
:1062A0000F2E01D0032E05D1059805F095F906981B
:1062B00005F092F900BFD5E7636D6469643A202563
:1062C000732C207265713A2025730D0A00000000BE
:1062D000546970733A0953656E6420436D64526566
:1062E00073700D0A00000000840200205401002099
:1062F0005601002046090020546970733A0953651D
:106300006E64205075626C69736841636B0D0A009E
:10631000546970733A0953656E64205075626C69F4
:1063200073685265630D0A00546970733A094D51E0
:106330005454205075626C6973682053656E6420F4
:106340004F4B0D0A00000000546970733A09526502
:1063500076205075626C6973685265630D0A00009F
:10636000546970733A0953656E64205075626C69A4
:10637000736852656C0D0A00546970733A0952656E
:1063800076205075626C69736852656C0D0A000066
:10639000546970733A0953656E64205075626C6974
:1063A0007368436F6D700D0A0000000054697073CC
:1063B0003A09526576205075626C697368436F6D57
:1063C000700D0A00546970733A094D5154542053AA
:1063D0007562736372696265204F4B0D0A0000009D
:1063E000546970733A094D51545420537562736364
:1063F00072696265204572720D0A000054697073FB
:106400003A094D51545420556E5375627363726945
:106410006265204F4B0D0A00546970733A094D5163
:10642000545420556E5375627363726962652045DA
:1064300072720D0A00000000F0B585B004460D46EA
:1064400000260020019002900390049006E054F88A
:10645000261021A002F07CFD701CC6B2AE42F6DB15
:1064600001A82B46224600210090142001F032F9A9
:1064700040B9029882B20420019905F035FD01A8C7
:1064800000F002FE642004F0ADFE042005F0FDF8EB
:1064900007463A461649042005F0A4FB1448007943
:1064A00030B1012808D002280AD0802810D10BE092
:1064B00010A002F04DFD0BE014A002F049FD07E032
:1064C00018A002F045FD03E01CA002F041FD00BF52
:1064D00000BF05B0F0BD000053756273637269625E
:1064E0006520546F7069633A2025730D0A0000001F
:1064F000C6080020B6A9D4C4C8B7C8CFA3AC2051E1
:106500006F53B5C8BCB6300D0A000000B6A9D4C49C
:10651000C8B7C8CFA3AC20516F53B5C8BCB6310DB6
:106520000A000000B6A9D4C4C8B7C8CFA3AC205194
:106530006F53B5C8BCB632200D0A0000B6A9D4C44A
:10654000CAA7B0DC200D0A0000BFFEE72DE9F0412C
:1065500004464FF48071224800F06DFC142004F0D2
:1065600041FE4FF480711E4800F067FC282004F0C3
:1065700057FE4FF480711A4800F054FC68BB00BF0E
:106580004FF48071164800F04DFC0028F8D000BF91
:106590004FF48071124800F045FC0028F8D100F05B
:1065A00021F8207000F01EF8064600F01BF860701D
:1065B00000F018F8074600F015F805464FF4807112
:1065C000074800F03AFC20786178084430443844A9
:1065D000A84202D10120BDE8F0810020FBE70000C5
:1065E0000008014070B50024002521E000BF4FF4F1
:1065F0008071114800F016FC0028F8D0212004F02A
:106600000FFE4FF480710C4800F00CFC60B10120CB
:1066100000EB4400C4B200BF4FF48071064800F0A4
:1066200001FC0028F8D101E06006040E681CC5B228
:10663000082DDBDB204670BD0008014021B1026857
:1066400042F00102026004E002684FF6FE731A4055
:106650000260704701684FF6FE7211400160002130
:10666000016041608160C1604B49884208D14A495C
:106670000839496841F00F01474A083A51608AE0F9
:1066800045491431884208D143490839496841F0E5
:10669000F001414A083A51607DE03F492831884283
:1066A00008D13D490839496841F470613A4A083ACD
:1066B000516070E038493C31884208D13649083988
:1066C000496841F47041344A083A516063E0324904
:1066D0005031884208D130490839496841F4702165
:1066E0002D4A083A516056E02B496431884208D15E
:1066F00029490839496841F47001274A083A51602C
:1067000049E025497831884208D123490839496848
:1067100041F07061204A083A51603CE01F498842CC
:1067200006D1011F096841F00F01021F116032E01C
:106730001A491431884208D11849091F096841F0E3
:10674000F001164A121F116025E0144928318842D1
:1067500008D11249091F096841F470610F4A121FDC
:10676000116018E00D493C31884208D10B49091FDE
:10677000096841F47041094A121F11600BE0074992
:106780005031884207D10549091F096841F4702139
:10679000024A121F116070470800024008040240BC
:1067A00010B50022026847F6F0739A430C6A8B68B2
:1067B00023430C6923434C6923438C692343CC69ED
:1067C00023434C6A23438C6A23431A430260CB68F9
:1067D00043600B6883604B68C36010BD7047000066
:1067E00010B5012000F03CF860B1012000F02CF859
:1067F0000548006800F00100044908600846007878
:106800000349087010BD0000080801401000002076
:10681000B800002010B5022000F022F860B102207C
:1068200000F012F80548006800F002000449086012
:10683000084600780349087010BD000008080140B0
:106840000C000020B70000200149086070470000DC
:106850001404014010B500F061F800F097F810BD85
:10686000014600200022074B1B6803EA0102054B8A
:1068700014331B680B4013B10AB1012000E0002063
:106880007047000000040140002123498279002A5A
:106890003AD00A46126803689A430B461A600A1DEA
:1068A000126803689A430B1D1A60027911440A6842
:1068B00003681A430A60184A0832126803689A4348
:1068C000154B08331A601A1D126803689A43124B5D
:1068D0000C331A604279102A0ED11A1F126803680D
:1068E0001A430D4B08331A601A1D126803681A43C5
:1068F000094B0C331A600DE00749427911440A68CC
:1069000003681A430A6005E0027911440A680368C3
:106910009A430A6070470000000401401FB501213E
:10692000052001F087FA4FF4E06001F017FA062025
:106930008DF80C0000208DF80D0006208DF80E005B
:1069400001208DF80F0003A801F0D0F90120ADF867
:10695000080028208DF80B0002A90B4800F08EF9E2
:106960000021084600F06AF90120009000208DF80F
:10697000040010208DF8050001208DF806006846FF
:10698000FFF782FF1FBD0000000801401FB5012175
:10699000052001F04FFA4FF4E06001F0DFF9072025
:1069A0008DF80C0000208DF80D0007208DF80E00EA
:1069B00001208DF80F0003A801F098F90220ADF82E
:1069C000080028208DF80B0002A90B4800F056F9AA
:1069D0000121002000F032F90220009000208DF803
:1069E000040010208DF8050001208DF8060068468F
:1069F000FFF74AFF1FBD00000008014008B5012154
:106A00003D2001F017FA0121884800F0C3F9402029
:106A1000ADF8000001208DF8020048208DF8030039
:106A20006946834800F02AF98020ADF80000012073
:106A30008DF8020010208DF8030069467C4800F0B4
:106A40001DF94FF48070ADF8000003208DF80200AE
:106A500014208DF803006946764800F00FF92020D5
:106A6000ADF8000001208DF8020010208DF8030021
:106A70006946714800F002F920216F4800F0DDF905
:106A80004020ADF8000001208DF8020010208DF8A4
:106A900003006946684800F0F1F84021664800F0BC
:106AA000CCF98020ADF8000001208DF80200102004
:106AB0008DF803006946604800F0E0F880215E48E8
:106AC00000F0BBF94FF48070ADF8000001208DF8A4
:106AD000020010208DF803006946574800F0CEF8F8
:106AE0004FF48071544800F0A8F94FF40070ADF8ED
:106AF000000001208DF8020010208DF80300694687
:106B00004D4800F0BBF84FF400714B4800F095F988
:106B10004FF40050ADF8000001208DF80200102065
:106B20008DF803006946424800F0A8F84FF4005180
:106B30003F4800F082F94FF48040ADF8000001209A
:106B40008DF8020010208DF803006946384800F0E7
:106B500095F84FF48041364800F06FF94FF400404B
:106B6000ADF8000001208DF8020010208DF8030020
:106B700069462F4800F082F84FF400412C4800F09D
:106B80005CF92020ADF8000001208DF802001020F3
:106B90008DF803006946264800F070F8202124484B
:106BA00000F04BF90120ADF800008DF80200102034
:106BB0008DF803006946204800F060F801211E4866
:106BC00000F03BF90220ADF8000001208DF8020032
:106BD00010208DF803006946174800F04FF8022195
:106BE000154800F02AF90820ADF8000001208DF8C2
:106BF000020010208DF8030069460D4800F03EF8B1
:106C000008210B4800F019F91020ADF80000012010
:106C10008DF8020010208DF803006946064800F048
:106C20002DF81021044800F008F908BD00023000DA
:106C30000010014000080140000C014030B5002266
:106C40008B071C0F0F2303FA04F20B4B8C1053F825
:106C500024309343084C8D1044F8253023468C1083
:106C600053F824308C07240F00FA04F42343024C19
:106C70008D1044F8253030BD080001402DE9F04169
:106C8000024600250026002000230024002791F85A
:106C900003C00CF00F0591F803C00CF0100CBCF110
:106CA000000F03D091F802C04CEA050591F800C02E
:106CB000BCF1000F31D0146800202BE04FF0010C24
:106CC0000CFA00F3B1F800C00CEA03069E4220D192
:106CD00083004FF00F0C0CFA03F7BC4305FA03FCDA
:106CE0004CEA040491F803C0BCF1280F06D14FF020
:106CF000010C0CFA00FCC2F814C00AE091F803C0C1
:106D0000BCF1480F05D14FF0010C0CFA00FCC2F8A1
:106D100010C0401C0828D1D31460B1F800C0BCF1E9
:106D2000FF0F34DD546800202EE000F1080C4FF016
:106D3000010808FA0CF3B1F800C00CEA03069E4201
:106D400021D183004FF00F0C0CFA03F7BC4305FA76
:106D500003FC4CEA040491F803C0BCF1280F05D1F0
:106D600000F1080C08FA0CF8C2F8148091F803C07E
:106D7000BCF1480F07D100F1080C4FF0010808FAE8
:106D80000CF8C2F81080401C0828CED35460BDE82F
:106D9000F0810000F0B50A46002300240021002500
:106DA00000F00046B6F1004F02D11D4EF16901E03E
:106DB0001B4E7168C0F3034583B200F44016B6F56C
:106DC000401F08D121F07061154E766826F070667C
:106DD000134F7E6012E000F48016B6F5801F06D1D6
:106DE000032606FA05F4A14341F0706106E0460D62
:106DF000360103FA06F6B14341F0706122B1460D47
:106E0000360103FA06F6314300F00046B6F1004FB2
:106E100002D1034EF16101E0014E7160F0BD00004E
:106E2000000001400246002093680B400BB1012096
:106E300000E00020704741617047016170474FF6E4
:106E4000FF710180022181700421C1707047000030
:106E500010B50F4800680F4908600D48001D006814
:106E600048600B48083000688860084600684008A1
:106E7000496800EB91000749896800EBD100064999
:106E800008600846016805A002F062F810BD000025
:106E9000E8F7FF1F5C03002058000020CEA8D2BBFB
:106EA0006964A3BA25640D0A0000000000BFFEE774
:106EB000302805DB392803DCA0F13001C8B210E02E
:106EC000412805DB462803DCA0F13701C8B208E001
:106ED000612805DB662803DCA0F15701C8B200E099
:106EE000FF20704710B5002001F0CAFF10BD10B59B
:106EF000012001F0C5FF10BD70B504460025FFF765
:106F0000F1FFC4F3074000F010F8C4F3072000F0CD
:106F10000CF804F0F80000F008F8002000F005F884
:106F20000546FFF7E4FF284670BD10B5044620462D
:106F300001F01EF810BD70B504460D46FFF7D2FFF4
:106F4000C4F30740FFF7F1FFC4F30720FFF7EDFF9D
:106F500004F0F801091DC8B2FFF7E7FF2846FFF764
:106F6000E4FFFFF7C4FF70BD4CF6CC400149086058
:106F7000704700000030004010B500F013F810BD5D
:106F800070B505460C4645F2555000F01FF82846EE
:106F900000F010F8204600F013F800F003F8FFF7B7
:106FA000E3FF70BD4AF6AA2001490860704700005F
:106FB0000030004001494860704700000030004048
:106FC00001498860704700000030004001490860B6
:106FD000704700000030004010B54FF47A7004F0A4
:106FE00001F940F6A6610420FFF7CAFF01F04EF94F
:106FF00001F090F901F0A4F901F0F6F9FFF7FEFCB9
:1070000001F050FF03F026FEFEF779FEFEF7E2FCEA
:10701000FFF720FC01F032FC01F06EFB01F064FD93
:1070200001F018FC01F026FE01F048FD00F0A2FE80
:10703000FFF70EFF00F088FF06F052F804F0C6FCE0
:1070400005F01CFF05F078FD0749084805F0ACFF86
:1070500007A001F07DFF0121084600F0CBFE0121D1
:10706000880701F0DCF910BD05010020FD000020BB
:10707000573535303020496E697420436F6D706C20
:10708000657465210D0A000010B50446207B0128B7
:1070900002D1206804F0A0FA002020606060A060A7
:1070A000207310BD0246002301230DE002F07F0093
:1070B0000870D2092AB1087840F080000870491C95
:1070C00001E0184670475B1C042BEFDD4FF0FF30EA
:1070D000F8E7000070B504460E4600252068B8B9F0
:1070E00001202073304604F043FB2060206858B133
:1070F00000206060A66003E00020216848556D1CF8
:10710000A068A842F8D814E00AA001F021FF10E01E
:107110000220207303E00020216848556D1CA06800
:10712000A842F8D800206060A068B04201D20020D8
:10713000206070BDB7D6C5E4B3F6B4ED0D0A00000B
:107140002DE9FF5F07460D4690463846FEF74CF89E
:1071500086B22846FEF748F81FFA80FA4FF0000979
:10716000B01D04F005FB04461CB9012004B0BDE8C5
:10717000F09FB11D2046FEF710F812A001682160B3
:107180008088A080324639462046FEF741F82846DE
:10719000FEF72AF883460120002100915B462A462B
:1071A000CDE90208019121460A2000F05DF910B9ED
:1071B0004FF0000901E04FF00109204604F00CFAFD
:1071C0004846D3E724637273702F00002DE9FF4F08
:1071D00083B082468B469146159C00250020029084
:1071E0000F2701904846FDF7FFFF8046B9F1000FD9
:1071F00003D1012007B0BDE8F08F08F10200384448
:1072000087B2109808B145F00205129878B145F0A0
:1072100004051298FDF7E8FFC0B202901398FDF73D
:10722000E3FF01460298001D0844384487B21198D4
:1072300020B1012804D0022808D104E000BF07E0F3
:1072400045F00C0504E045F0140501E00220D1E70B
:1072500000BF149808B145F02405BAF1000F02D020
:10726000BBF1000F01D10320C4E745F0C005504633
:10727000FDF7BAFF06465846FDF7B6FF3044001D3D
:10728000384487B239462046FFF724FF206808B902
:107290000420AFE739462068FDF77FFF10216268C0
:1072A000501C606020688154D4E90023D118781FF5
:1072B000FFF7F8FE01900198002804DA2046FFF756
:1072C000E3FE052096E761680198084460600021AC
:1072D0006268501C60602068815404216268501C00
:1072E0006060206881544D216268501C6060206895
:1072F000815451216268501C60602068815454217F
:107300006268501C6060206881546268501C606034
:107310002068815404216268501C60602068815498
:107320006168481C6060206845540698010A6268DC
:10733000501C6060206881540698C1B26268501C7D
:10734000606020688154C8F307216268501C606047
:10735000206881546268501C6060206800F80280D8
:10736000D4E90012881842464946FDF751FF60688B
:107370004044606005F00400B8B30026139808B9D3
:1073800038A013901298FDF72FFF86B2310A626879
:10739000501C6060206881546268501C60602068E6
:1073A0008654D4E90012881832461299FDF730FF4E
:1073B0006068304460601398FDF716FF86B2310AAA
:1073C0006268501C6060206881546268501C606074
:1073D00020688654D4E90012881832461399FDF7C4
:1073E00017FF60683044606000BF05F08000C8B1DE
:1073F0005046FDF7F9FE86B2310A6268501C6060A3
:10740000206881546268501C606020688654D4E90A
:107410000012881832465146FDF7FAFE6068304483
:10742000606000BF05F04000C8B15846FDF7DCFEC3
:1074300086B2310A6268501C6060206881546268BC
:10744000501C606020688654D4E9001288183246C7
:107450005946FDF7DDFE60683044606000BF0020E3
:10746000C8E60000000000002DE9F84F804689467C
:1074700093469A460D9C0027002500200090002688
:1074800060602073A060B8F1000F02D10120BDE858
:10749000F88F00250AE019F80500232803D019F811
:1074A00005002B2801D10220F1E76D1C19F8050019
:1074B0000028F0D146F030060B9808B146F00106DE
:1074C00005EB0A00871C0A9820B1012804D0022885
:1074D0000AD105E000BF09E046F00206BF1C05E046
:1074E00046F00406BF1C01E00320D0E700BFF91CF2
:1074F0002046FFF7EFFD206820B92AA001F028FD03
:107500000420C4E7F91C2068FDF747FE6168481CA9
:10751000606020684654D4E9000281183846FFF7BD
:10752000C1FD00900098002804DA2046FFF7ACFD6A
:107530000520ACE76168009808446060C5F3072146
:107540006268501C6060206881546268501C6060F2
:1075500020688554D4E9001288182A464946FDF768
:1075600057FE6068284460600A9860B14FEA1821AD
:107570006268501C6060206881546268501C6060C2
:10758000206800F80280BBF1000F09D0D4E9001296
:10759000881852465946FDF73BFE606850446060CB
:1075A000002074E7CAFDBEDDC1F7B3F6B4ED0D0AE5
:1075B0000000000070B505460C4604212046FFF788
:1075C00089FD206808B9012070BD62216268501CE5
:1075D00060602068815402216268501C60602068ED
:1075E000815429126268501C60602068815462686E
:1075F000501C6060206885540020E5E770B50546A2
:107600000C4604212046FFF765FD206808B90120DB
:1076100070BD62216268501C606020688154022144
:107620006268501C60602068815429126268501C96
:107630006060206881546268501C606020688554D6
:107640000020E5E770B505460C4604212046FFF70B
:1076500041FD206808B9012070BD50216268501CAE
:1076600060602068815402216268501C606020685C
:10767000815429126268501C6060206881546268DD
:10768000501C6060206885540020E5E770B5054611
:107690000C4604212046FFF71DFD206808B9012093
:1076A00070BD62216268501C6060206881540221B4
:1076B0006268501C60602068815429126268501C06
:1076C0006060206881546268501C60602068855446
:1076D0000020E5E72DE9FF5F8046174699460E9C9E
:1076E0000026B246B3460025B8F1000F03D10120B1
:1076F00004B0BDE8F09F0BE057F8250008B9022060
:10770000F6E757F82500FDF76FFD0644681CC5B283
:107710004D45F1DB09EB4900801C00EB060A0AF13C
:1077200005012046FFF7D6FC206808B90320DFE7F3
:1077300082216268501C606020688154D4E9000294
:1077400081185046FFF7AEFC8346BBF1000F04DA08
:107750002046FFF799FC0420CAE76068584460603F
:107760004FEA18216268501C60602068815462688A
:10777000501C6060206800F80280002524E057F863
:107780002500FDF731FD0646C6F307216268501C4F
:107790006060206881546268501C60602068865474
:1077A000D4E90023D01857F825103246FDF730FDF4
:1077B0006068304460600198C1B26268501C6060CB
:1077C00020688154681CC5B24D45D8DB00208FE786
:1077D0002DE9F05F80460F4691461C460026B246D2
:1077E000B3460025B8F1000F02D10120BDE8F09F9B
:1077F0000BE057F8250008B90220F7E757F82500F5
:10780000FDF7F2FC0644681CC5B24D45F1DB0220D1
:1078100000EB490000EB060A0AF105012046FFF7DC
:1078200059FC206808B90320E0E7A2216268501CD7
:10783000606020688154D4E9000281185046FFF747
:1078400031FC8346BBF1000F04DA2046FFF71CFC35
:107850000420CBE76068584460604FEA18216268F2
:10786000501C6060206881546268501C6060206811
:1078700000F8028000251DE057F82500FDF7B4FC54
:107880000646C6F307216268501C60602068815478
:107890006268501C606020688654D4E90023D018C8
:1078A00057F825103246FDF7B3FC6068304460603D
:1078B000681CC5B24D45DFDB002097E7F0B50446F4
:1078C0000D462646012300201060002114E0775C5D
:1078D00007F07F07106807FB03001060705C00F082
:1078E000800008B9481CF0BDDB01B3F5001F02D3CE
:1078F0006FF00100F7E7491CA942E8DB4FF0FF30C9
:10790000F1E72DE9F84307460C4615462F21F81CF0
:10791000FDF760FC064600200090804616B9012065
:10792000BDE8F883761C6A460421781CFFF7C6FF81
:10793000252003F01DFF2060206808B90220EFE732
:1079400025212068FDF729FC242231462068FDF717
:107950000BFC243600982C381FFA80F808F101003F
:1079600003F006FF2860286820B9206803F034FE81
:107970000320D5E708F101012868FDF70EFC424617
:1079800031462868FDF7F0FB0020C9E7014648783A
:10799000022801D001207047887810B1887801282A
:1079A00001D1C878F7E7FF20F5E700002DE9FC5F7B
:1079B00081460D4616469A4699F8000000F00F0BD6
:1079C000002001900BF0080000904FF00008002408
:1079D000CBF341008AF8000001AA042109F101005B
:1079E000FFF76CFF4844471C0198022802D30BF0B4
:1079F000010010B1FF20BDE8FC9F7878397840EA9B
:107A00000124A01C0199814201D2FF20F3E749A182
:107A1000B81CFDF7CDFB08B10F20ECE79AF8000089
:107A200020B1012833D0022872D131E0009808B18A
:107A3000FF20E0E7601C03F09BFE2860286808B97F
:107A4000FF20D8E7611C2868FDF7A7FB2246B91C78
:107A50002868FDF789FB0198801EA0EB040808F157
:107A6000010003F085FE3060306820B9286803F01B
:107A7000B3FDFF20BFE708F101013068FDF78DFB82
:107A8000BA1C111942463068FDF76EFB42E000BF98
:107A9000A01C0199884201D9FF20ACE7E01C395CA9
:107AA000A01C385C41EA00210C9801800C9808B9B0
:107AB000FF20A0E7601C03F05BFE2860286808B97F
:107AC000FF2098E7611C2868FDF767FB2246B91C78
:107AD0002868FDF749FB0198001FA0EB040808F196
:107AE000010003F045FE3060306820B9286803F0DB
:107AF00073FDFF207FE708F101013068FDF74DFBC2
:107B00003A1D111942463068FDF72EFB02E0FFE7EF
:107B1000FF2070E700BF2B212846FDF75BFB20B953
:107B200023212846FDF756FB08B1FF2063E700201C
:107B300061E7000024637265710000000146487827
:107B4000022801D001207047887820B9C8780A2817
:107B500001D10020F7E70120F5E701464878022827
:107B600001D001207047887820B9C8780A2801D14F
:107B70000020F7E70120F5E701464878022801D008
:107B800001207047887820B9C8780A2801D10020E0
:107B9000F7E70120F5E702465078022801D00120DE
:107BA00070479078B0EB112F05D1D078CBB29842C6
:107BB00001D10020F4E70120F2E70000F8B5044607
:107BC000FF2720780511012D01DB0E2D01DD384640
:107BD000F8BD032D24D1002000906A460421601CCA
:107BE000FFF76CFE2044461C0098022803D320783F
:107BF00000F0010008B1FF20EAE77078317840EA30
:107C00000120801C0099884201D9FF20E0E706A1ED
:107C1000B01CFDF7CDFA08B10F2700E0032700E004
:107C20002F463846D4E700002463726571000000D7
:107C30000146FF208A78A2B9CA78142A11D10A799C
:107C400032B1012A05D0022A04D0802A06D103E0ED
:107C500000BF00BF002003E0012001E0022000BFC0
:107C600000BF7047014601208A781AB9CA781E2AD7
:107C700000D10020704700007FB505460E46002069
:107C800000900190029003906B46324629460A20EC
:107C9000FFF79EFDD0B9019882B20420009904F04C
:107CA00023F9642003F09EFA042003F0EEFC04465E
:107CB00022460749042003F095FF054800780B2170
:107CC000B1EB201F02D103A001F042F97FBD0000FB
:107CD000C6080020B3C9B9A6C8A1CFFBB6A9D4C4B1
:107CE0000D0A000000BFFEE77047000070B50021DC
:107CF00000230F22C47804B3154C246804F4E06414
:107D0000C4F5E064210AC1F10403CA40447804FACE
:107D100003F184781440214309010E4C0678A155E3
:107D2000047804F01F050124AC4005786D11AD0006
:107D300005F1E025C5F8004109E0047804F01F05CD
:107D40000124AC40044D0678761145F8264070BDFC
:107D50000CED00E000E400E080E100E002490143B6
:107D6000024A1160704700000000FA050CED00E0C7
:107D70007047000010B50F48006800F002000228AC
:107D800005D00C48006800F00200012808D140210D
:107D90000948FFF750F820210748FFF74EF807E0A1
:107DA00040210548FFF749F820210348FFF743F831
:107DB00010BD000008080140000C014001460020F1
:107DC000034A506820F44040084350607047000068
:107DD0000010024029B1064A52690243044B5A611D
:107DE00004E0034A52698243014B5A617047000024
:107DF0000010024029B1064AD2690243044BDA61FD
:107E000004E0034AD2698243014BDA617047000003
:107E10000010024029B1064A12690243044B1A615C
:107E200004E0034A12698243014B1A617047000063
:107E30000010024029B1064A92690243044B9A613C
:107E400004E0034A92698243014B9A617047000043
:107E50000010024029B1064AD2680243044BDA609E
:107E600004E0034AD2688243014BDA6070470000A5
:107E70000010024030B500210022002400232D4DC7
:107E80006D6805F00C0121B1042905D0082923D122
:107E900005E0294D056022E0274D05601FE0254DD6
:107EA0006D6805F47012234D6D6805F48034022569
:107EB00005EB92421CB9214D554305600BE01D4D69
:107EC0006D6805F400351DB11C4D5543056002E099
:107ED000194D5543056002E0174D056000BF00BF16
:107EE000144D6D6805F0F0010909154D6B5C0568CE
:107EF000DD4045600F4D6D6805F4E061090A104DE5
:107F00006B5C4568DD4085600A4D6D6805F4605125
:107F1000C90A0B4D6B5C4568DD40C560054D6D6859
:107F200005F44041890B074D6B5CC568B5FBF3F563
:107F3000056130BD0010024000127A0000093D00CA
:107F4000BE000020CE00002010B580210748FEF7BB
:107F500072FF022003F064F980210448FEF76DFFF0
:107F60004FF4C86003F03EF910BD0000001001405E
:107F700010B5044600BF02210A4800F021F800288D
:107F8000F9D02146074800F027F800BF0121054835
:107F900000F016F80028F9D0024800F01AF8C0B234
:107FA00010BD00000038004021B1028842F04002BC
:107FB000028004E002884FF6BF731A4002807047C7
:107FC0000246002013890B400BB1012000E0002085
:107FD00070470146888970478181704710B500223B
:107FE000028802F441520B884C8823438C88234337
:107FF000CC8823430C8923434C8923438C89234316
:10800000CC8923431A430280838B4FF2FF742340B1
:1080100083830B8A038210BD00B587B001211D2028
:10802000FFF708FF01210803FFF704FF06A8FEF78A
:1080300006FF1020ADF818008DF81B0003208DF806
:108040001A0006A91E48FEF719FE10211C48FEF76B
:10805000F4FE06A8FEF7F3FEE020ADF818001820A5
:108060008DF81B0003208DF81A0006A91548FEF7AD
:1080700005FE0020ADF804004FF48270ADF8060054
:108080004FF40060ADF808000220ADF80A000120AE
:10809000ADF80C004002ADF80E002020ADF8100045
:1080A0000020ADF812000720ADF8140001A9064821
:1080B000FFF794FF01210448FFF776FF07B000BDEA
:1080C000001001400008014000300140704710B529
:1080D00000F002F810BD00000CB5002001900090E7
:1080E0003348006840F480303149086000BF3048B0
:1080F000006800F4003000900198401C0190009846
:1081000018B90198B0F5A06FF1D12948006800F4C2
:10811000003010B10120009001E000200090009894
:10812000012843D12348006840F01000214908602D
:108130000846006820F0030008600846006840F028
:10814000020008601A4840681949486008464068BB
:1081500048600846406840F48060486008464068CF
:1081600020F47C1048600846406840F4E8104860FD
:108170000846006840F08070086000BF0C48006846
:1081800000F000700028F9D00948406820F0030092
:10819000074948600846406840F00200486000BF58
:1081A0000348406800F00C000828F9D10CBD00001D
:1081B0000010024000200240012080F3138800BF1D
:1081C00000BF0748006800F4E06006490843001D4E
:1081D00003490860BFF34F8F00BF00BFFEE70000F8
:1081E0000CED00E00000FA057047000010B51248E1
:1081F000006840F0010010490860084640680F49D7
:1082000008400D494860084600680D4908400A4981
:1082100008600846006820F480200860084640682E
:1082200020F4FE0048604FF41F008860FFF74FFF06
:1082300004480549086010BD001002400000FFF826
:10824000FFFFF6FE0050000808ED00E04FF0E021CF
:10825000096921F004014FF0E0221161C21700EB1F
:108260005272C2F3C702074B1A701946097801EB24
:108270004102C2EBC1114FF6FF7202EAC101024A8C
:10828000118070471E000020200000200EB5012143
:108290000846FFF7AFFD4FF0804000F0CDF86420B6
:1082A000ADF804004720ADF800000020ADF8020052
:1082B00069464FF0804000F0CDF90121880700F0B9
:1082C000A8F801221146900700F0BBF901218807A8
:1082D00000F0A5F800210120FFF78CFD0EBD000085
:1082E00010B50121880700F09BF978B101218807BA
:1082F00000F092F8002407E0054850F82400401CE4
:10830000034941F82400641C0A2CF5DB10BD000071
:10831000C002002008B54FF4E060FFF71FFD1C20ED
:108320008DF8000000208DF8010004208DF8020077
:1083300001208DF803006846FFF7D8FC08BD000057
:108340000EB501210220FFF755FD114800F074F829
:108350006420ADF804004720ADF800000020ADF81F
:10836000020069460A4800F075F90121084800F04A
:1083700050F801221146064800F063F90121044833
:1083800000F04DF800210220FFF734FD0EBD000083
:108390000004004010B50121104800F041F9E0B19F
:1083A00001210E4800F038F80D480068401C0C49C7
:1083B0000860084600684CF25031884207DB0948E3
:1083C0000068401C0749086000200549086005480E
:1083D0000068022801D9FFF7EFFE10BD000400403D
:1083E000140000201800002008B54FF4E060FFF7EB
:1083F000B5FC1D208DF8000000208DF801000B2039
:108400008DF8020001208DF803006846FFF76EFC2E
:1084100008BDCA4302827047CA430282704721B135
:10842000028842F00102028004E002884FF6FE73E7
:108430001A4002807047000010B504466848844224
:1084400008D10121C014FFF705FD0021E014FFF75A
:1084500001FDC4E0B4F1804F08D101210846FFF7C7
:10846000D9FC00210120FFF7D5FCB8E05D4884422B
:1084700008D101210220FFF7CDFC00210220FFF7E7
:10848000C9FCACE05848844208D101210420FFF720
:10849000C1FC00210420FFF7BDFCA0E0534884424A
:1084A00008D101210820FFF7B5FC00210820FFF7C3
:1084B000B1FC94E04E48844208D101211020FFF71E
:1084C000A9FC00211020FFF7A5FC88E04948844260
:1084D00008D101212020FFF79DFC00212020FFF77B
:1084E00099FC7CE04448844208D101214014FFF704
:1084F000B1FC00216014FFF7ADFC70E03F488442FE
:1085000009D10121C804FFF7A5FC00214FF4002088
:10851000FFF7A0FC63E03A48844209D10121080535
:10852000FFF798FC00214FF48010FFF793FC56E012
:108530003448844209D101214805FFF78BFC002112
:108540004FF40010FFF786FC49E02F48844208D121
:1085500001214020FFF75EFC00214020FFF75AFC7C
:108560003DE02A48844208D101218020FFF752FCD7
:1085700000218020FFF74EFC31E02548844208D1DD
:1085800001218015FFF746FC0021A015FFF742FCF2
:1085900025E02048844209D101210804FFF75AFC54
:1085A00000214FF48030FFF755FC18E01A48844250
:1085B00009D101214804FFF74DFC00214FF40030A0
:1085C000FFF748FC0BE01548844208D101218804DC
:1085D000FFF740FC00214FF48020FFF73BFC10BD6B
:1085E000002C01400004004000080040000C004046
:1085F000001000400014004000340140004C0140D5
:10860000005001400054014000180040001C004090
:10861000002000400040014000440140004801406B
:1086200030B50246002000230024158A05EA010324
:10863000958905EA010413B10CB1012000E0002086
:1086400030BD1AB183890B43838102E083898B4358
:1086500083817047002202881D4B98420ED01D4B2B
:1086600098420BD0B0F1804F08D01B4B984205D0F8
:108670001A4B984202D01A4B984204D14FF68F738E
:108680001A404B881A43174B984207D0164B984212
:1086900004D04FF6FF431A40CB881A4302808B88E0
:1086A00083850B8803850A4B98420BD0094B98426F
:1086B00008D00E4B984205D00D4B984202D00D4B7E
:1086C000984201D10B7A0386012383827047000010
:1086D000002C01400034014000040040000800402C
:1086E000000C004000100040001400400040014019
:1086F000004401400048014000B585B0012144F22A
:108700000400FFF797FB18208DF803004FF400706A
:10871000ADF8000003208DF8020069461748FEF707
:10872000ADFA04208DF803000002ADF800006946A0
:108730001248FEF7A3FA4FF4E13001900020ADF8A3
:108740000800ADF80A00ADF80C00ADF810000C20E0
:10875000ADF80E00012240F22551094800F0EAFA76
:1087600001A9074800F00CFB0121054800F09FFA21
:108770004021034800F092FA05B000BD0008014016
:108780000038014010B5002440F225512E4800F079
:10879000A7FA002855D040F225512B4800F07EFA68
:1087A000294800F059FBC4B22848007800B110BD38
:1087B00027480078012800D1F9E72448007878B9E3
:1087C0002248007F60B9662C0AD120494878411CB4
:1087D0001E4A5170911C0C540120891E0877E6E74F
:1087E0001A4840781A2813DA1848007F01280FD158
:1087F00016484078122804DA1448407F2044134970
:10880000487712494878411C104A5170911C0C5409
:108810000E4840781A2814D10C48C07E99280BD1F4
:108820000A48007D0949497F884205D1012007494E
:108830000870002048774870002004494870087785
:10884000487700BFB3E7000000380140680300200C
:10885000A800002008B54FF4E060FFF77FFA25205C
:108860008DF8000000208DF8010001208DF8020035
:108870008DF803006846FFF739FA08BD00B585B0EA
:1088800001210420FFF7D6FA01214804FFF7B2FACC
:108890000420ADF8100018208DF8130003208DF887
:1088A000120004A91748FEF7E9F90820ADF81000F6
:1088B00004208DF8130004A91248FEF7DFF94FF4E5
:1088C000E13000900020ADF80400ADF80600ADF8EE
:1088D0000800ADF80C000C20ADF80A00012240F2AF
:1088E0002551094800F026FA6946074800F048FA81
:1088F0000121054800F0DBF94021034800F0CEF9E2
:1089000005B000BD000801400044004010B500243F
:108910000821644800F0D7F930B1624800F09CFAB1
:108920000821604800F0BAF904215E4800F0CBF954
:1089300030B15C4800F090FA04215A4800F0AEF9DA
:108940000221584800F0BFF930B1564800F084FACF
:108950000221544800F0A2F90121524800F0B3F975
:1089600030B1504800F078FA01214E4800F096F9F5
:1089700040F225514B4800F0B3F900287ED0494819
:1089800000F06AFAC4B24848007800B110BD464809
:10899000407878B94448007F60B9242C0AD1424914
:1089A0004878411C404A5170911C0C540120891E8A
:1089B0000877EBE73C4840780A2813DA3A48007F0A
:1089C00001280FD138484078092804DA3648407F1A
:1089D00020443549487734494878411C324A51701F
:1089E000911C0C54304840780A2854D12E48817884
:1089F000C07801442C48007901442B484079014457
:108A00002948807901442848C07901442648007AE1
:108A100001442548407A01442348807A0844224989
:108A200048770846417FC07A81422FD1002101203A
:108A3000FFF7E0F91D48007860B91C480078401C39
:108A40001A49087001210220FFF7D4F901211848C2
:108A5000FFF7E5FC20211748FEF7EFF94021154804
:108A6000FEF7E9F980211348FEF7E7F94FF480712A
:108A70001048FEF7E0F901200B4900E010E0087013
:108A80000D490870002008494877487000200649C1
:108A900048700877487740F22551024800F0FEF808
:108AA00000BF73E700440040860300201D00002043
:108AB00000040040000C0140A200002008B54FF463
:108AC000E060FFF74BF926208DF8000000208DF8BC
:108AD000010002208DF8020001208DF80300684695
:108AE000FFF704F908BD000000B585B0012108209A
:108AF000FFF7A0F901218804FFF77CF918208DF811
:108B000003004FF48060ADF8000003208DF80200F0
:108B100069461848FEF7B2F804208DF803004002B9
:108B2000ADF8000069461348FEF7A8F84FF4E130AD
:108B300001900020ADF80800ADF80A00ADF80C0077
:108B4000ADF810000C20ADF80E00012240F22551C6
:108B5000094800F0EFF801A9074800F011F90121D8
:108B6000054800F0A4F84021034800F097F805B04C
:108B700000BD0000000C01400048004010B500247A
:108B800040F22551334800F0ABF800285FD040F2A6
:108B90002551304800F082F82E4800F05DF9C4B24B
:108BA0002D48007800B110BD2C480078012800D174
:108BB000F9E72B48007880B92A48007868B9662C14
:108BC0000BD127490878411C254A1170264941F8E4
:108BD0002040012023490870E5E7214800781A2841
:108BE00014DA20480078012810D11D480078122896
:108BF00004DA1E48007820441C4908701849087897
:108C0000411C174A1170184941F820401448007857
:108C10001A281CD11448406E992811D11248806C32
:108C20001249097888420BD101200B4908700020B5
:108C30000E49087001200E4908700020084908708C
:108C4000002007490870074908700849087000BFEC
:108C5000A9E700000048004022000020A8000020F2
:108C60002400002025000020E8020020260000202B
:108C70002300002008B54FF4E060FFF76FF82720CD
:108C80008DF8000000208DF8010001208DF8020011
:108C90008DF803006846FFF729F808BD01F400725B
:108CA000B2F5007F00D100BFCA430280704721B1F6
:108CB000828942F40052828104E082894DF6FF737A
:108CC0001A408281704702460020B1F5007F00D132
:108CD00000BF13880B400BB1012000E0002070475B
:108CE00070B50246002400230025002040F66A16D5
:108CF000B14200D100BFC1F3421501F01F030126AC
:108D000006FA03F3012D02D19689334006E0022DC5
:108D100002D1168A334001E0968A33400C120126B4
:108D200006FA04F41688344013B10CB1012000E0B7
:108D3000002070BDF0B50346002400260025002069
:108D400040F66A17B94200D100BF1846C1F3421479
:108D500001F01F06012707FA06F5012C01D10C309E
:108D600004E0022C01D1103000E014301AB1076881
:108D70002F43076002E00768AF430760F0BD0000C3
:108D80002DE9F04786B005460E460024A24600BFF6
:108D9000A1460027B08900B100BF2F462C8A4CF6AF
:108DA000FF700440F08804432C82AC894EF6F31027
:108DB0000440B08831890843718908430443AC8179
:108DC000AC8A4FF6FF400440B0890443AC8201A84E
:108DD000FFF750F81F48874202D1DDF810A001E0EC
:108DE000DDF80CA0A88900F4004040B10AEBCA00ED
:108DF00000EB0A1031684900B0FBF1F807E00AEB1C
:108E0000CA0000EB0A1031688900B0FBF1F8642059
:108E1000B8FBF0F004012009642101FB1089A88946
:108E200000F4004040B1322000EBC900B0FBF1F08B
:108E300000F00700044308E0322000EB0910642131
:108E4000B0FBF1F000F00F0004432C8106B0BDE848
:108E5000F08700000038014001468888C0F3080010
:108E60007047C1F308028280704700BF028802F099
:108E70008002002AFAD08180704700BFFEE7000020
:108E800010B504462CB94FF480510548FDF7D3FFC7
:108E900005E0012C03D121030148FDF7CEFF10BDF1
:108EA000000C014000B587B001218803FEF7A2FF46
:108EB00001210920FEF7BEFF4FF46040ADF8040029
:108EC00003208DF8060018208DF8070001A91E4820
:108ED000FDF7D4FE4FF48050ADF8040003208DF868
:108EE000060010208DF8070001A91748FDF7C6FEFF
:108EF0004FF480511448FDF7A0FF0020ADF80800A2
:108F00004FF48270ADF80A000020ADF80C0002208A
:108F1000ADF80E000120ADF810004002ADF81200CF
:108F20000820ADF814000020ADF816000720ADF8B9
:108F3000180002A90548FFF751F801210348FFF77F
:108F400033F807B000BD0000000C014000380040BD
:108F50000FB4054B10B503A9044A029800F0E2F8DB
:108F600010BC5DF814FB0000B5B50008B00200208D
:108F70000FB4084B10B504A902AA039800F0D2F868
:108F8000044602A9002000F064FC204610BC5DF8F5
:108F900014FB00005398000800487047BC020020F2
:108FA00002E008C8121F08C1002AFAD170477047B2
:108FB000002001E001C1121F002AFBD17047000010
:108FC0002DE9FF5FDDE90220010DDDF838B0024335
:108FD00018D044F61050A1F2FF3141430D140F9800
:108FE000012820D0A5EB0B00401C5FEA000A4FF0DF
:108FF0000004474EDFF81C91A046504616D5CAF132
:10900000000728E00F98012443A2012808D000217E
:1090100000980F9BC0E90021C0E90243BDE8FF9F13
:109020006FEA0B01F4E7CBF10000DEE7074612E040
:10903000F80707D02246334640464946FCF7B9F9BF
:10904000804689462246334610461946FCF7B1F958
:1090500004460E467F10002FEAD1DDE90201BAF185
:10906000000F42464B4602DAFCF7A3F901E0FCF799
:1090700045FB04460E460022284BFCF7C7FB03D8ED
:109080004FF0FF30014607E00022254B20463146D5
:10909000FCF7E8F8FCF7A1FB102409E0002C0ADB40
:1090A0000A220023FCF733FA019B30321A55641E62
:1090B00050EA0102F2D1641C019AC4F11103144474
:1090C0000F9A012A03D0012208430DD10AE0084378
:1090D00004D000204FF0110B0F9080E7A3EB0B059D
:1090E0006D1E0DE05B4504DD4FF0000205F101054A
:1090F00004E003DA4FF00002A5F10105002AECD0EC
:1091000000980F99C0E90231C0E9004586E70000E8
:10911000000024400000F03F300000000000F04359
:109120000000E03F2DE9FF4F95B09B46894606467B
:1091300000250FE2252877D100242746F84A01218F
:10914000059400E0044316F8013F203B01FA03F0C8
:109150001042F7D130782A2811D06FF02F033078E1
:10916000A0F13002092A16D8059A44F0020402EB55
:10917000820203EB42021044761C0590EFE759F897
:10918000042B0592002A03DA504244F4005405905F
:1091900044F00204761C30782E2816D116F8010F00
:1091A00044F004042A280DD06FF02F023078A0F18B
:1091B0003003092B09D807EB870302EB4303C718D9
:1091C000761CF3E759F8047B761C30786C280FD0B6
:1091D00006DC4C2817D068280DD06A2814D104E08A
:1091E000742810D07A280FD10DE044F400140AE05E
:1091F00044F4801401E044F440147278824202D1B5
:1092000004F58014761C761C307866280BD013DCAD
:10921000582877D009DC002875D04528F6D0462894
:10922000F4D047281AD19DE118E0632835D064288E
:1092300079D0652812D195E1702873D008DC6728B1
:10924000F1D069286FD06E280DD06F2806D1B5E017
:1092500073282CD0752875D0782874D05A46179961
:1092600090476D1C75E1C4F30250022809D0032811
:109270000DD0D9F8001004280DD00D6009F10409B3
:1092800067E1D9F80010EA17C1E90052F6E7D9F80A
:1092900000100D80F2E70D70F0E719F8041B8DF84F
:1092A000001000208DF80100EA46012003E059F883
:1092B00004AB4FF0FF3061074FF0000102D40DE026
:1092C00008F101018846B9420FDA8045F8DB1AF847
:1092D00008100029F4D108E008F101018846814214
:1092E000FADB1AF808100029F6D105985B46A0EBC6
:1092F000080721463846179A00F094FA284400EBF4
:10930000080507E04DE029E10DE01AF8010B5A4687
:1093100017999047B8F10108F7D25B4621463846C5
:10932000179A13E142E00A220092C4F302524FF06E
:10933000000A022A08D059F804CB032A4FEAEC713C
:109340000AD00DE029E02AE009F1070121F0070227
:10935000F2E802C1914609E00FFA8CFC4FEAEC7189
:10936000042A03D14FFA8CFC4FEAEC71002907DA8A
:109370000A460021DCF1000C61EB02012D2202E023
:10938000220504D52B228DF80420012203E0E207F8
:1093900001D02022F7E7904659E00A2102E010228E
:1093A0000DE010214FF0000A00910BE010224FF069
:1093B000000A44F004040827009203E008224FF05A
:1093C000000A0092C4F30252022A05D059F804CBD5
:1093D0000021032A08D009E009F1070121F0070262
:1093E000F2E802C1914605E01FFA8CFC042A01D183
:1093F0000CF0FF0C4FF00008220728D5702806D08B
:10940000009B83F0100353EA0A0305D00EE04022CC
:109410008DF80420012208E05CEA010206D0302227
:109420008DF804208DF8050002229046009B83F001
:10943000080353EA0A030AD15CEA010201D1620778
:1094400005D530228DF804204FF001087F1E5828E2
:1094500004D034A003900EA802900DE036A0F9E7E6
:1094600053466046009AFCF752F884460398825CA3
:109470000298401E029002705CEA0100F0D102984E
:1094800006A9081A00F1200A600702D524F48034E6
:1094900000E00127574502DDA7EB0A0000E00020AD
:1094A00000EB0A01009005984144401A0590E00342
:1094B00006D45B462146179A059800F0B3F9054497
:1094C000002706E001A85A46C05D179990476D1C19
:1094D0007F1C4745F6DBE0030CD55B462146179A17
:1094E000059800F09FF9054404E030205A4617998A
:1094F00090476D1C0099481E00900029F5DC08E09B
:10950000029802995A460078491C0291179990478F
:109510006D1CBAF10001AAF1010AF1DC65E100005D
:109520000928010030313233343536373839616239
:1095300063646566000000003031323334353637FD
:1095400038394142434445460000000000F058F9D4
:109550000544761C307800287FF4ECAD19B028461D
:10956000BDE8F08F620700D4062709F1070222F058
:10957000070CFCE80223E14603F000485FEA080C10
:1095800002D00FF2702C0DE05FEA045C02D50FF2FE
:10959000682C07E05FEAC47C02D00FF2602C01E087
:1095A000AFF2700C4FF0FF3823F00043CDF850C0FD
:1095B00065280CD006DC452809D046281DD0472850
:1095C0003DD13DE0662818D067287ED138E00021E3
:1095D000112F01DB112000E0781CCDE9000106A964
:1095E0000EA8FFF7EDFCDDE90F010E9A03910021B3
:1095F000009207F1010A04914DE04FF000400097FE
:10960000CDE9011006A90EA8FFF7DAFCDDE90F028B
:1096100003920E9B11990022DDF80CA00093049296
:1096200011B9791C00EB010AB7EB0A0004D4C0F1B0
:10963000FF3007F1010A0490AAEB0700019044E013
:10964000012F00DA01270021112F01DD112000E098
:109650003846CDE9000106A90EA8FFF7B1FCDDE907
:109660000F010E9A0391002104910092BA4621073E
:109670000CD40399514500DA8A46BAF1010F05DD91
:10968000009AAAF10101515C302908D0B84202DAEF
:1096900010F1040F06DA0121CDE9011015E0AAF15D
:1096A0000101E9E7002805DC049901440491AAEBD3
:1096B000000102E0411C514500DD8A460499401A30
:1096C000401C01904FF000400290200704D4019804
:1096D000504501DBCDF8048000208DF84F00029842
:1096E0000DF14F07B0F1004F25D02B200E900298BE
:1096F0004FF0020800280CDA404202902D200E9014
:1097000007E00A210298FBF7ECFE3031029007F8DF
:10971000011DB8F10001A8F10108F2DC029800284F
:10972000EFD1791E0E980870307800F0200040F0DC
:10973000450007F8020D12A8C01B00F10708149895
:10974000007800B1012000EB0A01019801EBE07103
:1097500005984144401A401E0590E00306D45B463C
:109760002146179A059800F05DF805441498007892
:1097700018B15A46179990476D1CE00324D55B46F3
:109780002146179A059800F04DF805441CE004980E
:10979000002807DBDDE90301884203DD0098405C17
:1097A000179901E0179930205A469047049805F11F
:1097B0000105401C04900198401E019004D12E2008
:1097C0005A46179990476D1CBAF10001AAF1010A97
:1097D000DDDC05E017F8010B5A46179990476D1C20
:1097E000B8F10001A8F10108F4DC5B462146179AA4
:1097F0000598ABE62D0000002B00000020000000C3
:109800002DE9F041044600251E461746880404D47D
:1098100005E039462020B0476D1C641EF9D5284666
:10982000BDE8F0812DE9F041044600251E46904632
:10983000C80301D5302700E02027880404D505E0BF
:1098400041463846B0476D1C641EF9D52846BDE830
:10985000F0810A68531C0B60107070472DE9F047C7
:10986000FDF78AFBF8480078012801D003F038FCA6
:10987000F6480078012801D001F08AFAF348007810
:10988000012804D101F0EAFC642001F0ABFCF048AF
:109890000088012815D10020ED490880EB490870A7
:1098A000EC490870FEF750FB03F01AFC03F0E6FAEF
:1098B00003F0C8F9E849E94803F076FB0120E849DC
:1098C0000860E848406946F2A811884231D3E1486F
:1098D000007801282DD1E4480078012829D0002003
:1098E000E0494861E148007878B9002305E0E048A4
:1098F000C15CE048FFF7B9FA5B1C142BF7DB0120D1
:10990000DD490870D949087013E0D848007801286B
:109910000FD1002305E0D648C15CD848FFF7A5FA6F
:109920005B1C142BF7DB0020D04908700120D449C0
:109930000870D448407801281BD10020D149087014
:109940000120D1490870CF48807AD0490870CD48AD
:10995000007C4870CB48407C8870CA48807CC870C6
:10996000C848C07C8871C748807D0871C548C07DE3
:109970004871C748007801281BD10020C4490870ED
:109980000120C4490870C248807AC3490870C048A1
:10999000007C4870BE48407C8870BD48807CC870A0
:1099A000BB48C07C8871BA48807D0871B848C07DCA
:1099B0004871AC480069B94988425AD30020A94986
:1099C00008610222B649042002F08EFA642001F0F8
:1099D00009FCB4480078D02812D10C20A0490860B6
:1099E0000020B1490880B1490870C821AD48FBF793
:1099F000D4FB0120AE4908700020AE49087038E061
:109A0000A9480088401CA8490880A8480078401C44
:109A1000A6490870A4480088022807DD0E20904956
:109A20000860A1480188A4A0FFF792FA9E48008828
:109A300003281EDDA6A0FFF78BFA00209A490880B4
:109A40000120834908800222A749042002F04CFA31
:109A5000002097490870C8219248FBF79EFB80219F
:109A6000A248FBF79AFB4FF47A7001F0BBFBFEF7BC
:109A7000A3FB7C48416A9E48007840F27122504323
:109A8000B1EB001F18D3002076494862884800785F
:109A9000012811D18448008801280DDA95A0FFF72C
:109AA00057FA97480078401C9549087001206E4984
:109AB000087003206A4908609148007803280FDB8A
:109AC00090480078401C8F4908700846017894201F
:109AD00001F036F94FF47A7001F084FBFEF76CFB6D
:109AE0006048406842F21071884223D300205D49EB
:109AF000486085480078012805D102208349087014
:109B00006C49087016E08248007801280BD0814823
:109B10000078012807D080480078012803D07F48CA
:109B20000078012803D101207849087002E0002064
:109B3000764908704B48C068B0F57A6F54D300205E
:109B40004849C8607148007820B101281DD002281A
:109B500049D136E07248007858B920217148FDF7A4
:109B60006CF940216F48FDF766F901206C490870D7
:109B70000AE020216B48FDF760F940216948FDF7B4
:109B80005CF90020664908702DE0654800780128DE
:109B90000BD140216348FDF750F920216148FDF7C2
:109BA0004AF900205E4908700AE040215D48FDF74F
:109BB00044F920215B48FDF740F90120584908701D
:109BC00011E020215748FDF738F940215548FDF7AD
:109BD00032F980215348FDF730F94FF48071514834
:109BE000FDF729F900BF00BF1E48806849F64041D3
:109BF000884228D317480078012824D10020194929
:109C0000886049480078401C474908704748FCF77D
:109C10009DFC464840784649487044480078887022
:109C200008464078322809DC08468078642805DC3C
:109C30000846407830B90846807818B90120344980
:109C400008707AE076E0FAE086030020F400002055
:109C5000A4000020BB00002005010020FD00002022
:109C600090020020C0020020A8000020AF000020C9
:109C70003400002000380140B000002000480040BF
:109C8000B200002068030020B10000205F00002027
:109C9000A4030020B300002066000020A08601007D
:109CA000A002002058110020A6000020A9000020DA
:109CB0008A000020AB000020CEB4CAD5B5BDD0C408
:109CC000CCF8B4CECAFDA3BA2025640D0A0000006A
:109CD000D0C4CCF8B3ACCAB1A3ACD6D8D0C2C1AC56
:109CE000BDD3A3A10D0A00008E000020C6080020ED
:109CF00097000020B7A2B2BCCFFBCFA20D0A000094
:109D0000BD0000205C000020A2000020AA0000206E
:109D1000A0000020A1000020A3000020B700002028
:109D2000AC000020000C0140B60000209000002094
:109D30006D0000200020FE490870FE490888FBF7EE
:109D4000AAFB0646FC4AFD4BFBF733FB0446002208
:109D5000FB4BFBF787FA8046FBF7AAFBF9498871B2
:109D600008468079642801DD5A208871F548807999
:109D700018B1F44880795A280CD1F3480078401C77
:109D8000F149087008460078052808DD0120EF49F0
:109D9000087004E00020ED490870EB490870E448C1
:109DA0000078012807D0E9480078012803D0E84866
:109DB0000078012844D1DE480078012801D1E54926
:109DC0000870E2480078012802D10220E1490870B9
:109DD000DF480078012802D10320DE490870D4480A
:109DE0000078012806D1D9480078012802D1042042
:109DF000D8490870CE480078012806D1D4480078A8
:109E0000012802D10520D3490870D04800780128E4
:109E100006D1CF480078012802D10620CD4908702C
:109E2000CA48007801280ED1C948007801280AD113
:109E3000BF480078012806D10720C649087002E013
:109E40000020C4490870C4480068B0F5FA6F60D3B8
:109E50000020C1490860C148007820B101281FD006
:109E6000022855D139E0BE48007860B98021BD484C
:109E7000FCF7E3FF4FF48071BA48FCF7DCFF0120E8
:109E8000B74908700BE08021B648FCF7D6FF4FF4C5
:109E90008071B448FCF7D1FF0020B149087037E069
:109EA000AF48007801280BD10102AE48FCF7C5FF8E
:109EB0008021AC48FCF7BFFF0020A94908700BE0E7
:109EC0004FF48071A748FCF7B8FF8021A548FCF744
:109ED000B4FF0120A24908701AE02021A148FCF734
:109EE000ACFF40219F48FCF7A6FF80219D48FCF76E
:109EF000A4FF4FF480719B48FCF79DFF00214FF0B9
:109F00008040FEF78CFA00210120FDF773FF00BFAF
:109F100000BF9548007802281AD194480078B8B953
:109F20008D48806940F6B831884211D300208A49B3
:109F300088618D48007802280AD18C480078401C3E
:109F40008A49087001208849087089A0FFF700F845
:109F500085480078B0B98548007898B17E48806916
:109F600040F6B83188420DD300207B4988617E4895
:109F7000007838B900207D4908707B49087081A0BD
:109F8000FEF7E6FF84480078012815D18348007861
:109F900090B17148C06940F6C41188420CD30020CA
:109FA0006D49C8617C480078012805D100207B49B3
:109FB00008707BA0FEF7CCFF77480078B0B97748EF
:109FC000007898B96448C06940F6C41188420DD33E
:109FD00000206149C8617048007838B96F4800783E
:109FE000401C6E49087073A0FEF7B2FF5A48006A21
:109FF000042869D30020584908627348FBF731FEF2
:10A0000072480078092860DB714800880A2190FBBB
:10A01000F1F06F4908806F4800880A2190FBF1F049
:10A020006C4908806C4800880A2190FBF1F06A496D
:10A03000088067480088401F6549898888420ADA95
:10A0400063480088401D62498988884203DD604872
:10A0500080885F4908805F480088401F5D49898883
:10A0600088420ADA5B480088401D5A49898888423C
:10A0700003DD584880885749088057480088401FAA
:10A080005549898888420ADA53480088401D524958
:10A090008988884203DD504880884F4908804C48B1
:10A0A00000884B4988804B4800884A4988804A4844
:10A0B0000088494988800020444908704449088044
:10A0C000444908804449088019E0414800883E49D5
:10A0D000098808443E4908803E4800883A498988F2
:10A0E00008443C4908803C480088374909890844AD
:10A0F0003949088035480078401C34490870374891
:10A100000078052801DDFEF757F83548007801286A
:10A1100078D10020324908703248018832A0FEF719
:10A1200017FF374800787B28F2D13548407A6AE03B
:10A13000A00000202A000020C3F5285C8FC2C53F84
:10A14000008045406D00002094000020A100002008
:10A15000A300002074000020C0020020AB000020FB
:10A16000AD000020000C0140B7000020B900002025
:10A1700061636320697320636C6F73656420210DD4
:10A180000A000000616363206973206F70656E656B
:10A190006420210D0A000000B8000020BA00002051
:10A1A00062617474657279206973206869676820D8
:10A1B000210D0A0062617474657279206973206CE4
:10A1C0006F7720210D0A0000C40300208B000020BF
:10A1D000780000207E00002084000020A9000020DC
:10A1E00054010020560100207375625F7265765F2E
:10A1F0006C656E677468203D2025640D0A000000C0
:10A2000046090020BEE030288ED1FE48807C5B28C5
:10A210008AD1FD480088FD490880ABE0F948FB4938
:10A220000988405C22287DD1F8480078F6490978F1
:10A23000401AF7490870002416E0F4490988F44AE6
:10A240001278891A2144EF4A505CFCF731FEF1493B
:10A2500008550846005DF049096801EB810100EBF3
:10A260004100ED490860641CE94800788442E4DB61
:10A27000E9480068E9490968884254D1E8A0FEF736
:10A2800067FEEB480088C01EDE49085C3038E849AC
:10A290000988491FDB4A515C303901EB810100EB31
:10A2A0004100E4490870084600780A2190FBF1F269
:10A2B00001FB1204DF48007890FBF1F522462946A5
:10A2C000DDA0FEF745FE552000F0E4FCD9490978F1
:10A2D00088421ADAD74800780A2190FBF1F201FB94
:10A2E0001204D448007890FBF1F522462946D8A004
:10A2F000FEF72EFECF480178562000F021FD4FF4E6
:10A300007A7000F06FFFFDF757FF0120D849087001
:10A31000D8A0FEF71DFE1420BB4908800020BE49CE
:10A3200008602EE021E0B749B8480088401C085C6E
:10A330005D280AD1D3A0FEF70BFE1420B249088095
:10A340000020B5490860BDE8F0870020B2490860E8
:10A35000AD480188AE480078C01C0844AA4908806E
:10A36000AA480088C01CA9490880A8480088401C49
:10A37000A6490880A5480088AD4909888842FFF6AB
:10A380004DAF00BFC449087800EBD0714910A0EB75
:10A39000410181B9C149097801290CD1C903C048DB
:10A3A000FCF749FD4FF48041BD48FCF746FD002015
:10A3B000BA49087022E0B849087800EBD07149101A
:10A3C000A0EB410181B9B749097801290CD1C90332
:10A3D000B348FCF732FD4FF48041B148FCF72BFD48
:10A3E0000020B049087009E04FF40041AC48FCF788
:10A3F00024FD4FF48041AA48FCF71FFDA6490878C8
:10A4000000EBD0714910A0EB410181B9A649097850
:10A4100001290CD14903A248FCF70DFD4FF400714E
:10A42000A248FCF70AFD00209F49087022E09A49E3
:10A43000087800EBD0714910A0EB410181B99C492B
:10A44000097801290CD149039548FCF7F6FC4FF433
:10A4500000719648FCF7EFFC00209549087009E070
:10A460004FF400518E48FCF7E8FC4FF400718F4820
:10A47000FCF7E3FC8849087800EBD0714910A0EBA9
:10A480004101D1B98B490978012916D1C903844802
:10A49000FCF7D3FC4FF480418148FCF7CCFC4FF42F
:10A4A00000517F48FCF7C9FC4FF400717F48FCF76E
:10A4B000C2FC00207F49087013E04FF40041784847
:10A4C000FCF7BBFC4FF480417548FCF7B6FC4FF439
:10A4D00000517348FCF7B1FC4FF400717348FCF76E
:10A4E000ACFC7548007801287ED1002073490860D3
:10A4F00073490860704908700846C078012874D113
:10A500000846407901281FD16E49087024206E4901
:10A5100008700120487006208870002000F0BAFB07
:10A520006949C870022000F0B5FB67490871042032
:10A5300000F0B0FB64494871062000F0ABFB6249B3
:10A5400088710020C87108725B484079022820D1C8
:10A5500001205C49087024205B4908700220487083
:10A5600006208870102000F095FB5749C870122013
:10A5700000F090FB54490871142000F08BFB524905
:10A580004871162000F086FB4F4988710020C87181
:10A5900008724948407903282AD1012049490870A6
:10A5A0002420494908700320487006208870202024
:10A5B00000F070FB4449C870222000F06BFB424958
:10A5C0000871242000F066FB3F494871262000F006
:10A5D00061FB3D498871282000F05CFB3A49C87155
:10A5E0002A2000F057FB01E01EE3CBE13649087258
:10A5F00031484079042869D101203249087024206B
:10A60000314964E046090020480000205000002045
:10A610004B000020500300204C0000205800002078
:10A62000CAD5B5BDB8FCD0C2D6B8C1EE2E0D0A0051
:10A630005601002053000020B8FCD0C2B0E6B1BEE5
:10A64000CEAA3A5625642E25642E0D0A000000007D
:10A65000D6D8D0C2C6F4B6AFA3ACC9FDBCB6B0E67E
:10A66000B1BECEAAA3BA5625642E25642E0D0A00CB
:10A670004A000020B0E6B1BECEAAD7EED0C22E0D61
:10A680000A000000B2BBCAC7B1BEC9E8B1B8B8FC85
:10A69000D0C20D0A00000000B6000020B00000206B
:10A6A00000100140B1000020B2000020000C014069
:10A6B000B3000020B4000020860300201400002016
:10A6C0001800002092000020E00300201BE008702A
:10A6D0000420487006208870302000F0DBFAFE4924
:10A6E000C870322000F0D6FAFB490871342000F01F
:10A6F000D1FAF9494871362000F0CCFAF649887150
:10A700000020C8710872F5484079052820D1012041
:10A71000F34908702420F04908700520487006208D
:10A720008870862000F0B6FAEB49C870882000F0E7
:10A73000B1FAE9490871902000F0ACFAE649487195
:10A74000922000F0A7FAE44988710020C8710872CD
:10A75000E248407906281FD10120E14908702420F1
:10A76000DD490870062048708870502000F092FA89
:10A77000D949C870512000F08DFAD749087152208C
:10A7800000F088FAD4494871532000F083FAD24986
:10A7900088710020C8710872D0484079072818D104
:10A7A0000120CF4908702420CB4908700720487049
:10A7B00006208870602000F06DFAC749C8706220DA
:10A7C00000F068FAC4490871002048718871C871A6
:10A7D0000872C248407908280BD10120C04908708E
:10A7E0002420BD4908700820487006208870002089
:10A7F0000872BA484079092814D10120B849087074
:10A800002420B5490870092048700620887000206F
:10A81000C870087148718871C87108724FF403617B
:10A8200000F0B8FEAD484079102829D14FF47A7075
:10A8300000F0D8FC4FF47A7000F0D4FC4FF47A703A
:10A8400000F0D0FC4FF47A7000F0CCFC4FF47A703A
:10A8500000F0C8FC4FF47A7000F0C4FC4FF47A703A
:10A8600000F0C0FC4FF47A7000F0BCFC4FF47A703A
:10A8700000F0B8FC4FF47A7000F0B4FCFDF79CFCDB
:10A880009648407912287DD12420934908701220DF
:10A89000487020208870002000F0FCF98E49C870B4
:10A8A000022000F0F7F98C490871042000F0F2F959
:10A8B00089494871062000F0EDF987498871102018
:10A8C00000F0E8F98449C871122000F0E3F98249E8
:10A8D0000872142000F0DEF97F494872162000F05B
:10A8E000D9F97D498872202000F0D4F97A49C872DC
:10A8F000222000F0CFF978490873242000F0CAF92B
:10A9000075494873262000F0C5F9734988732820DB
:10A9100000F0C0F97049C8732A2000F0BBF96E49F5
:10A920000874302000F0B6F96B494874322000F00A
:10A93000B1F969498874342000F0ACF96649C874EB
:10A94000362000F0A7F964490875402000F0A2F90C
:10A9500061494875422000F09DF95F49887544209F
:10A9600000F098F95C49C875462000F093F95A49FF
:10A970000876502000F08EF957494876512000F0B3
:10A9800089F900E033E054498876522000F082F9DA
:10A990005149C876532000F07DF94F49087760206F
:10A9A00000F078F94C494877622000F073F94A4981
:10A9B000887700204B49087000BF07E04649095CD2
:10A9C000484A12781144474A1170401C2428F5DB8C
:10A9D00044480078404981F82400002405E03E48BE
:10A9E000015D4148FEF73DFA641C252CF7DB3B482E
:10A9F000C07802287ED139484079012819D13B49D5
:10AA0000087036488179002000F09AF93348C179FE
:10AA1000022000F095F93148017A042000F090F905
:10AA20002E48417A062000F08BF90121782000F0B1
:10AA300087F92A48407902281AD101202B49087049
:10AA400026488179102000F07BF92448C179122032
:10AA500000F076F92148017A142000F071F91F48BE
:10AA6000417A162000F06CF90121722000F068F99B
:10AA70001A484079032819D101201C490870174849
:10AA80008179202000F05CF91448C179222000F07F
:10AA900057F91248017A242000F052F90F48417A00
:10AAA000262000F04DF90120114908700B4840792B
:10AAB000042827D101200D490870084881792820F1
:10AAC00000F03EF90548C1792A2000F039F908481C
:10AAD0000078012816D10EE0E00300208603002054
