:020000040800F2
:10500000B011002045510008057B0008E96C00083C
:10501000017B0008E1620008778A000800000000B8
:10502000000000000000000000000000C57E000835
:10503000D5630008000000008D7B0008E17F0008B8
:105040005F5100085F5100085F5100085F51000880
:105050005F5100085F510008D963000839640008F7
:105060005F5100085F5100085F5100085F51000860
:105070005F5100085F5100085F5100085F51000850
:105080005F5100085F5100085F5100085F51000840
:105090005F5100085F5100085F5100086D6400080F
:1050A0005F5100085F5100085F5100085F51000820
:1050B000D98000088D810008618200085F510008D6
:1050C0005F5100085F5100085F5100085F51000800
:1050D0005F5100085F510008A58600085F51000875
:1050E0000D6400085F5100085F5100085F5100081F
:1050F0005F5100085F5100085F5100085F510008D0
:105100005F5100085F5100085F5100085F510008BF
:105110005F5100085F5100085F5100085F510008AF
:105120005F5100085F5100085F5100085F5100089F
:10513000DFF80CD000F054FB0048004721B700080E
:10514000B01100200648804706480047FEE7FEE70A
:10515000FEE7FEE7FEE7FEE7FEE7FEE7FEE7FEE727
:10516000E57F00083151000840EA01039B0703D0A6
:1051700009E008C9121F08C0042AFAD203E011F896
:10518000013B00F8013B521EF9D27047D2B201E058
:1051900000F8012B491EFBD270470022F6E710B53C
:1051A00013460A4604461946FFF7F0FF204610BD95
:1051B00030B505462A460B4612F8010B13F8014B91
:1051C00008B1A042F8D01CB1002802D06D1CF1E754
:1051D000284630BDCAB2401E10F8011F8A4202D0D4
:1051E0000029F9D100207047421C10F8011B00294A
:1051F000FBD1801A704730B504460020034600E01A
:105200005B1C934203D2E05CCD5C401BF8D030BD08
:1052100010B5044600E0401C0378002BFBD100E0F1
:10522000401C521E04D311F8013B0370002BF7D130
:1052300000210170204610BD034611F8012B00F833
:10524000012B002AF9D11846704770B5064603F0C5
:105250009FFC046805460A220021304600F099F8B8
:105260002C6070BDC10F80EAE0700844CA07962325
:10527000002100F0CFB896230022114600F0CAB8F2
:1052800000F0004220F00040C10DC0F3160040F4D1
:1052900000007F2901DA00207047962903DCC1F164
:1052A0009601C84001E096398840002AF4D0404277
:1052B000704720F00040C10DC0F3160040F400001C
:1052C0007F2901DA00207047962903DCC1F196019D
:1052D000C84070479639884070470000002801DBBD
:1052E000C0F10040002901DBC1F10041814270475B
:1052F000002801DBC0F10040002901DBC1F10041C1
:105300008842704730B50B46014600202022012418
:1053100009E021FA02F59D4205D303FA02F5491B83
:1053200004FA02F52844151EA2F10102F1DC30BD99
:105330002DE9F05F0546002092469B4688460646CA
:10534000814640241BE0284641464746224600F05D
:1053500068FA53465A46C01A914110D3114618466E
:10536000224600F04FFA2D1A67EB01084F462246FD
:105370000120002100F046FA17EB00094E41201EE3
:10538000A4F10104DFDC484631462A464346BDE825
:10539000F09F2DE9F04791460F46804604460026CF
:1053A00014F8015B2DB100F05FFA0068405DC007A2
:1053B000F6D12B2D02D02D2D18D0641E4A46394629
:1053C000204600F055FA27B13968A14201D1C7F84B
:1053D000008071054FF002040BD54042002803DD28
:1053E00003F0D6FB0460A007BDE8F08746F48066B2
:1053F000E4E70028F8DA03F0CBFB04606FF000402C
:10540000F2E70029A8BF7047401C490008BF20F000
:105410000100704710B4B0FA80FC00FA0CF050EABA
:10542000010404BF10BC704749B1CCF1200421FA3B
:1054300004F411FA0CF118BF012121430843A3EB36
:105440000C01CB1D4FEA00614FEA102042BF002043
:1054500010BC704700EBC35010440029A4BF10BC1F
:105460007047401C490008BF20F0010010BC704785
:105470002DE9FE4F804681EA0300C00F0C460090E4
:1054800021F0004123F00045B8EB0200A94105D20C
:105490004046214690461C460B46024623F00040FB
:1054A000104347D0270DC7F30A00C3F30A510290F7
:1054B000401A019040286BDAC3F3130040F4801BBC
:1054C0000098924620B10023D2EB030A63EB0B0B4A
:1054D00001985946C0F14002504600F093F9064643
:1054E0000D4650465946019A00F0ABF910EB080002
:1054F0006141002487EA115284EAE7731A4340D0DD
:10550000009A62B3019A012A4FEA075215DC001B88
:1055100061EB02014FF0004202EA0752CDE900427E
:10552000001C41F5801132462B4600F0FFF903B014
:10553000BDE8F08F40462146F9E7001B61EB020110
:10554000001C41F5801300185B412018A2F50017DC
:1055500047EB030140EAD570B6196D4111E06D08C3
:105560004FEA360645EAC0754FEA0752001B61EB69
:105570000201001C41F5801149084FEA3000001972
:10558000514132462B4603B0BDE8F04F00F0BFB9A1
:105590000098012240000023D0EB020263EBE0738D
:1055A000009821464FEAE074B8EB000061EB04017B
:1055B000E9E783F000435BE781F0004158E72DE91C
:1055C000FE4F81EA030404F0004421F000410094FE
:1055D0004FF0000B23F0004350EA01045ED052EA82
:1055E00003045BD0C3F30A54C1F30A552C44A4F25C
:1055F000F3340194A0FB0254C1F3130141F4801170
:10560000C3F3130343F4801301FB024400FB034E76
:10561000840A970A44EA815447EA8357A4FB07683F
:1056200002958D0A05FB07854FEA932C04FB0C5469
:105630002705029D4FEA065847EA1637B5EB0805DD
:105640006EEB070C870E920E47EA811742EA83122F
:10565000A7FB0201B6EB0B0164EB00042B0D43EA40
:105660000C335E1844EB1C50DA465146E7FB02014E
:10567000C5F313044FEA0B3343EA14534FEA0432E1
:10568000019C43EA0603A4F10C040294009CCDE9BA
:1056900000B400F04BF903B0BDE8F08F00200146E4
:1056A000F9E72DE9F04D81EA030404F0004B21F005
:1056B000004514464FF0000A23F0004150EA05026D
:1056C00020D054EA01021DD0C5F30A570246C5F3A3
:1056D0001303C1F31300C1F30A5640F4801543F4D9
:1056E0008013A7EB0608101BD64608F2FD3873EBB3
:1056F000050002D308F1010801E092185B41B8F1FE
:10570000000F03DA00200146BDE8F08D00204FF4C1
:105710008011064684460EE0171B73EB050705D380
:10572000121B63EB050306434CEA010C49084FEAE0
:10573000300092185B4150EA0107EDD152EA0300B4
:1057400012D082EA040083EA0501084305D0101B49
:10575000AB4106D20122002306E000224FF00043B5
:1057600002E06FF0010253101AEB06004CEB0851F7
:1057700010EB0A0041EB0B01BDE8F04D00F0C7B89B
:10578000C1F30A52C1F3130140F2FF3341F4801117
:105790009A4202DA00200146704740F233439A42AF
:1057A000A2F2334202DC524200F03BB800F02AB8C9
:1057B00030B5041E71F1000404DB4FF00044404298
:1057C00064EB0101141E73F1000405DB1C464FF06D
:1057D0000043524263EB0403994208BF904230BD3C
:1057E000064C074D06E0E06840F0010394E807002E
:1057F00098471034AC42F6D3FFF79EFC2CD6000835
:105800004CD60008202A04DB203A00FA02F10020DE
:1058100070479140C2F1200320FA03F319439040EE
:105820007047202A04DB203A21FA02F00021704759
:1058300021FA02F3D040C2F12002914008431946F8
:105840007047202A06DBCB17203A41FA02F043EAE0
:10585000E07306E041FA02F3D040C2F12002914029
:1058600008431946704700000048704704D50008F7
:105870002DE9F05F82460078002715468B460AF135
:105880000104B946302801D09DB113E014F8010B92
:105890000127782803D0582801D045B10AE00DB17E
:1058A000102D07D10027102514F8010B02E0082560
:1058B00000E00A250026B0460EE005FB080005FBC7
:1058C00006F1012701EB10461FFA80F8B6F5803F7C
:1058D00000D3B94614F8010B294600F075F80028EA
:1058E000EBDABBF1000F05D00FB1641E00E05446A7
:1058F000CBF80040B9F1000F06D003F049F90221BE
:105900000160C81EBDE8F09F48EA0640FAE710B5FE
:10591000141E73F1000408DA401C41F100019218D2
:105920005B411A4301D120F0010010BD2DE9F04D7B
:1059300092469B4611B1B1FA81F202E0B0FA80F2D0
:1059400020329046FFF75EFF04460F4640EA0A0009
:1059500041EA0B0153465A46084313D0114653EA15
:10596000010019D0C8F140025046FFF75AFF054622
:105970000E46504659464246FFF744FF084305D0BD
:10598000012004E020463946BDE8F08D00200543A3
:1059900046EAE0762C4337430A986305E40AA0EB15
:1059A00008000022FD0A44EA47540A3002D50020CC
:1059B0000146E9E7010510196941DDE908450019CB
:1059C0006941BDE8F04DA2E73A2800D2303820F016
:1059D0002002412A01D3A2F13700884201D34FF0BF
:1059E000FF30704770B58C1810F8015B15F0070395
:1059F00001D110F8013B2A1106D110F8012B03E068
:105A000010F8016B01F8016B5B1EF9D12B0705D46F
:105A10000023521E0DD401F8013BFAE710F8013BB8
:105A2000CB1A921C03E013F8015B01F8015B521ED4
:105A3000F9D5A142D8D3002070BD7CB505463220EF
:105A400000F062F88DF80000332000F05DF88DF86A
:105A50000100012005F03EFA342000F055F88DF8E1
:105A60000200352000F050F88DF80300012005F009
:105A700031FA362000F048F88DF80400372000F0A5
:105A800043F88DF80500012005F024FA9DF8000088
:105A90009DF8011000EB012004B2002C01DA6042F5
:105AA00004B22C609DF802009DF8031000EB012069
:105AB00004B2002C01DA604204B26C609DF804006C
:105AC0009DF8051000EB012004B2002C01DA6042C1
:105AD00004B2AC607CBD10B502F09AF90F212C2005
:105AE00000F03CF808212D2000F038F880212E200D
:105AF00000F034F80821312000F030F8002138207F
:105B000000F02CF810BD000010B50446102111481B
:105B100001F0AFF844F08000002242EA00210E4874
:105B200002F056F900BF02210B4802F045F90028A7
:105B3000F9D000BF0121084802F03EF90028F9D051
:105B40001021044801F097F8034802F03EF9C0B272
:105B500010BD0000001001400030014070B5044647
:105B60000D4610210E4801F084F845EA04210D4845
:105B700002F02EF900BF02210A4802F01DF90028A8
:105B8000F9D000BF0121074802F016F90028F9D02A
:105B90001021034801F06FF8024802F016F970BDB9
:105BA000001001400030014030B587B039483AA1BB
:105BB00002683A4802F0D8FF394800210291039167
:105BC000CDE9041000913C23344A019135A138A05D
:105BD00001F016FA002858D13148808882B2304846
:105BE0000168042006F0EEF94FF4FA6005F072F94E
:105BF0000CE0042005F049FC044622462E4904200E
:105C000006F05EF8012005F065F903E02A48007807
:105C10002028EED100BF28480078202802D101209A
:105C200026490870244D002D2BD0284601F0D4FEC3
:105C3000022826D1284601F0B8FD06281CD2DFE84C
:105C400000F003070B0F13171DA002F07DFF17E0F4
:105C500020A002F079FF13E025A002F075FF0FE00D
:105C60002CA002F071FF0BE032A002F06DFF07E004
:105C700039A002F069FF03E042A002F065FF00BF17
:105C800000BF074801F024F902E045A002F05CFFE4
:105C900007B030BD5C000020256400009C0100209E
:105CA000740900206869744067647A790000000014
:105CB00067647A7931323300B40800207200002022
:105CC000546970733A09C1ACBDD3B3C9B9A60D0A02
:105CD000000000005741524E3A09C1ACBDD3CAA7DB
:105CE000B0DCA3BAD0ADD2E9B4EDCEF30D0A00001A
:105CF0005741524E3A09C1ACBDD3CAA7B0DCA3BAD2
:105D0000B7C7B7A8B5C4636C69656E7469640D0ADA
:105D1000000000005741524E3A09C1ACBDD3CAA79A
:105D2000B0DCA3BAB7FECEF1C6F7CAA7B0DC0D0A45
:105D3000000000005741524E3A09C1ACBDD3CAA77A
:105D4000B0DCA3BAD3C3BBA7C3FBBBF2C3DCC2EBBB
:105D5000B4EDCEF30D0A00005741524E3A09C1ACE2
:105D6000BDD3CAA7B0DCA3BAB7C7B7A8C1B4BDD367
:105D700028B1C8C8E7746F6B656EB7C7B7A8290D9F
:105D80000A0000004552523A09C1ACBDD3CAA7B0BF
:105D9000DCA3BACEB4D6AAB4EDCEF30D0A0000004F
:105DA0005741524E3A094D5154545F5061636B65EF
:105DB00074436F6E6E656374204661696C65640D33
:105DC0000A0000007FB504460D4616460F48012123
:105DD000002200923346CDE9012103902A46214654
:105DE0000A2001F05BFA80B90848808882B207482F
:105DF0000168042006F0E6F805A002F0A5FE0020E8
:105E000006490870014801F063F87FBDF0030020E7
:105E1000B7A2CBCDB3C9B9A60D0A00007800002007
:105E20002DE9F0438BB007460020079008900990B9
:105E30000A900690059000260490002500248046D4
:105E4000384601F0C9FD0646F01E0D2870D2DFE885
:105E500000F026737B94AFCFB7CFC3CFCFCF07006F
:105E600006AA05A9384601F05BFC0546B5B978A03D
:105E7000DDE9051202F068FE07AADDE9050101F07F
:105E800079F858B978A002F05FFE089882B2042031
:105E9000079906F097F807A801F01AF8ABE07848E0
:105EA00004AB06AA05A90090384601F08DFC054612
:105EB000002D40D10120734908700698FFF794F92E
:105EC000714908700698FFF78FF981464A466F4876
:105ED0000699FFF749F99DF81000012802D0022821
:105EE00027D112E007A96648008801F072FA58B974
:105EF00067A002F029FE089882B20420079906F0F4
:105F000061F807A800F0E4FF14E007A95C480088E6
:105F100001F0A7FA58B964A002F016FE089882B200
:105F20000420079906F04EF807A800F0D1FF01E021
:105F30005EE000BF00BF5EE0384601F00DFD10B925
:105F40005FA002F001FE56E0384601F023FD98B94B
:105F500063A002F0F9FD07A90A2001F0A6FA58B9DA
:105F600065A002F0F1FD089882B20420079906F0BE
:105F700029F807A800F0ACFF3DE041480188384609
:105F800001F017FD98B962A002F0DEFD07A90A2012
:105F900001F043FA58B964A002F0D6FD089882B225
:105FA0000420079906F00EF807A800F091FF22E000
:105FB000384601F0E0FC10B962A002F0C5FD1AE01D
:105FC000384601F043FD18B964A002F0BDFD02E0BF
:105FD00069A002F0B9FD0EE0384601F051FD18B994
:105FE0006CA002F0B1FD02E071A002F0ADFD02E094
:105FF0004FF0FF3500BF00BF681C10B90BB0BDE803
:10600000F0837D210698FFF7E5F80446A4B1681CEB
:1060100090B1641C06E014F8012B404608F1010819
:1060200001A90A542078302802DB20783928F2DDD3
:1060300001A8FFF70AF980460F2E01D0032E05D1E3
:10604000059805F0C9F9069805F0C6F900BFD5E72F
:10605000636D6469643A2025732C207265713A205F
:1060600025730D0A00000000546970733A095365E6
:106070006E6420436D64526573700D0A0000000069
:10608000D40200209E0100209F010020340900203E
:10609000546970733A0953656E64205075626C6977
:1060A000736841636B0D0A00546970733A09536554
:1060B0006E64205075626C6973685265630D0A00E6
:1060C000546970733A094D515454205075626C698B
:1060D00073682053656E64204F4B0D0A000000006A
:1060E000546970733A09526576205075626C697311
:1060F000685265630D0A0000546970733A0953656C
:106100006E64205075626C69736852656C0D0A008C
:10611000546970733A09526576205075626C6973E0
:106120006852656C0D0A0000546970733A09536532
:106130006E64205075626C697368436F6D700D0AF0
:1061400000000000546970733A095265762050755A
:10615000626C697368436F6D700D0A0054697073E7
:106160003A094D51545420537562736372696265E4
:10617000204F4B0D0A000000546970733A094D51CD
:10618000545420537562736372696265204572725C
:106190000D0A0000546970733A094D51545420554A
:1061A0006E537562736372696265204F4B0D0A000E
:1061B000546970733A094D51545420556E537562A9
:1061C000736372696265204572720D0A00000000F7
:1061D000F0B585B004460D460026002001900290DF
:1061E0000390049006E054F8261021A002F0ACFCC5
:1061F000701CC6B2AE42F6DB01A82B462246002137
:106200000090142001F075F940B9029882B2042080
:10621000019905F0D7FE01A800F05AFE642004F0B1
:1062200059FE042005F031F907463A461649042084
:1062300005F046FD1448007930B1012808D0022845
:106240000AD0802810D10BE010A002F07DFC0BE0FA
:1062500014A002F079FC07E018A002F075FC03E03E
:106260001CA002F071FC00BF00BF05B0F0BD000033
:1062700053756273637269626520546F7069633A23
:106280002025730D0A000000B4080020B6A9D4C46C
:10629000C8B7C8CFA3AC20516F53B5C8BCB6300D3A
:1062A0000A000000B6A9D4C4C8B7C8CFA3AC205117
:1062B0006F53B5C8BCB6310D0A000000B6A9D4C4EE
:1062C000C8B7C8CFA3AC20516F53B5C8BCB63220F5
:1062D0000D0A0000B6A9D4C4CAA7B0DC200D0A007C
:1062E00000BFFEE72DE9F04104464FF4007122485B
:1062F00000F0BFFC142004F0EDFD4FF400711E48C7
:1063000000F0B9FC282004F003FE4FF400711A4895
:1063100000F0A6FC68BB00BF4FF40071164800F007
:106320009FFC0028F8D000BF4FF40071124800F025
:1063300097FC0028F8D100F021F8207000F01EF83A
:10634000064600F01BF8607000F018F8074600F0F1
:1063500015F805464FF40071074800F08CFC2078D2
:106360006178084430443844A84202D10120BDE895
:10637000F0810020FBE700000010014070B5002410
:10638000002521E000BF4FF40071114800F068FCC7
:106390000028F8D0212004F0BBFD4FF400710C4818
:1063A00000F05EFC60B1012000EB4400C4B200BF0D
:1063B0004FF40071064800F053FC0028F8D101E0CA
:1063C0006006040E681CC5B2082DDBDB204670BDDC
:1063D000001001407047000010B5012000F00CF9DA
:1063E00060B1012000F0FAF80548006800F00100F3
:1063F00004490860084600780349087010BD000091
:106400000808014008000020E800002010B54FF403
:10641000806000F0F1F850B14FF4806000F0DEF8D9
:106420004FF48061024800F01BFC0249087010BD67
:10643000000801401600002010B5022000F0DCF832
:1064400060B1022000F0CAF80548006800F00200C0
:1064500004490860084600780349087010BD000030
:106460000808014004000020EA00002010B54FF4A5
:10647000007000F0C1F8002847D04FF4007000F021
:10648000ADF84FF40071484800F0EAFB4749087046
:106490004748007802280BD14648007840B90846A2
:1064A0000078012804D144490870444908700AE082
:1064B0004048007838B13D48007820B901203E4975
:1064C00008703E4908703C48007802281AD13748C5
:1064D0000078B8B93A480068401E39490860084653
:1064E000006818B908460068401E0860022030495C
:1064F00008703348016833A002F026FB00203649BB
:10650000087002E0012034490870402000F074F85F
:10651000002848D0402000F061F84021224800F0D7
:106520009FFB244908702248007802280CD11F489C
:10653000007848B908460078012805D102201E4994
:1065400008701E4908700AE01A48007838B91748E0
:10655000007820B1022018490870184908701648C0
:10656000007801281CD113480078C8B902201049CE
:10657000087013480068401C11490860084600680C
:1065800018B908460068401C08600D4801680DA055
:1065900002F0DAFA0020094908700F49087002E099
:1065A00001200D49087010BD000C014000000020C2
:1065B00074000020020000200100002014000020D0
:1065C00088000020B5E7CCDDB5BDCEBBA3AC25640B
:1065D000C2A50D0A00000000D60000200149086095
:1065E000704700001404014010B500F063F800F09B
:1065F00099F800F0CFF810BD014600200022074BAB
:106600001B6803EA0102054B14331B680B4013B1EE
:106610000AB1012000E000207047000000040140A2
:10662000002123498279002A3AD00A461268036879
:106630009A430B461A600A1D126803689A430B1DA1
:106640001A60027911440A6803681A430A60184AFA
:106650000832126803689A43154B08331A601A1DF2
:10666000126803689A43124B0C331A604279102A5D
:106670000ED11A1F126803681A430D4B08331A60B3
:106680001A1D126803681A43094B0C331A600DE097
:106690000749427911440A6803681A430A6005E011
:1066A000027911440A6803689A430A60704700003F
:1066B000000401401FB50121052001F0B7FA4FF495
:1066C000E06001F059FA06208DF80C0000208DF8EA
:1066D0000D0006208DF80E0001208DF80F0003A894
:1066E00001F012FA0120ADF8080028208DF80B0007
:1066F00002A90B4800F0E0F90021084600F0BCF9BF
:106700000120009000208DF8040010208DF8050075
:1067100001208DF806006846FFF782FF1FBD0000CC
:10672000000801401FB50121052001F07FFA4FF458
:10673000E06001F021FA07208DF80C0000208DF8B0
:106740000D0007208DF80E0001208DF80F0003A822
:1067500001F0DAF90220ADF8080028208DF80B00CE
:1067600002A90B4800F0A8F90121002000F084F9EB
:106770000220009000208DF8040010208DF8050004
:1067800001208DF806006846FFF74AFF1FBD000094
:10679000000801401FB50121092001F047FA4FF41C
:1067A000E06001F0E9F917208DF80C0000208DF869
:1067B0000D0003208DF80E0001208DF80F0003A8B6
:1067C00001F0A2F94020ADF8080028208DF80B0058
:1067D00002A91A4800F070F94FF40070ADF80800F3
:1067E00028208DF80B0002A9144800F065F9062155
:1067F000012000F041F94020009000208DF80400B5
:1068000010208DF8050001208DF806006846FFF77E
:1068100007FF0921012000F02FF94FF400700090CC
:1068200000208DF8040010208DF8050001208DF85F
:1068300006006846FFF7F4FE1FBD0000000C014093
:1068400008B501213D2001F0F1F90121864800F051
:10685000BFF94020ADF8000001208DF8020048206B
:106860008DF803006946814800F026F98020ADF8D4
:10687000000001208DF8020010208DF80300694609
:106880007A4800F019F94FF40070ADF800000320C9
:106890008DF8020014208DF803006946734800F05B
:1068A0000BF94FF40071714800F0E5F90120ADF8E3
:1068B00000008DF8020010208DF8030069466C4836
:1068C00000F0FAF801216A4800F0D5F92020ADF86F
:1068D000000001208DF8020010208DF803006946A9
:1068E000624800F0E9F82021604800F0C4F94FF454
:1068F0008060ADF8000001208DF8020010208DF8B6
:10690000030069465A4800F0D7F84FF480615848B0
:1069100000F0B1F90220ADF8000001208DF802006E
:1069200010208DF803006946514800F0C5F8022197
:106930004F4800F0A0F94FF48050ADF8000001205E
:106940008DF8020010208DF803006946494800F0D8
:10695000B3F84FF48051474800F08DF94FF40060D0
:10696000ADF8000001208DF8020010208DF8030022
:1069700069463F4800F0A0F84FF400613C4800F041
:106980007AF94FF48060ADF8000001208DF8020024
:1069900010208DF803006946364800F08DF84FF45A
:1069A0008061344800F067F94FF40060ADF80000F2
:1069B00001208DF8020010208DF8030069462D4853
:1069C00000F07AF84FF400612A4800F054F94FF4CF
:1069D0008070ADF8000001208DF8020010208DF8C5
:1069E00003006946234800F067F84FF4807121489E
:1069F00000F041F94FF40070ADF8000001208DF86F
:106A0000020010208DF8030069461A4800F054F87F
:106A10004FF40071174800F02EF94FF48050ADF894
:106A2000000001208DF8020010208DF80300694657
:106A30000E4800F041F84FF480510C4800F01BF96B
:106A40004FF40060ADF8000001208DF80200102026
:106A50008DF803006946054800F02EF84FF40061F8
:106A6000024800F008F908BD0002300000100140A3
:106A7000000C01400008014030B500228B071C0FBC
:106A80000F2303FA04F20B4B8C1053F8243093437A
:106A9000084C8D1044F8253023468C1053F82430D0
:106AA0008C07240F00FA04F42343024C8D1044F8A1
:106AB000253030BD080001402DE9F0410246002597
:106AC0000026002000230024002791F803C00CF0CA
:106AD0000F0591F803C00CF0100CBCF1000F03D0AF
:106AE00091F802C04CEA050591F800C0BCF1000F16
:106AF00031D0146800202BE04FF0010C0CFA00F3A9
:106B0000B1F800C00CEA03069E4220D183004FF08A
:106B10000F0C0CFA03F7BC4305FA03FC4CEA04041F
:106B200091F803C0BCF1280F06D14FF0010C0CFA0C
:106B300000FCC2F814C00AE091F803C0BCF1480F91
:106B400005D14FF0010C0CFA00FCC2F810C0401C3B
:106B50000828D1D31460B1F800C0BCF1FF0F34DDB8
:106B6000546800202EE000F1080C4FF0010808FAEC
:106B70000CF3B1F800C00CEA03069E4221D1830059
:106B80004FF00F0C0CFA03F7BC4305FA03FC4CEA78
:106B9000040491F803C0BCF1280F05D100F1080CE2
:106BA00008FA0CF8C2F8148091F803C0BCF1480F41
:106BB00007D100F1080C4FF0010808FA0CF8C2F8F0
:106BC0001080401C0828CED35460BDE8F08100003E
:106BD000F0B50A46002300240021002500F00046FD
:106BE000B6F1004F02D11D4EF16901E01B4E7168F4
:106BF000C0F3034583B200F44016B6F5401F08D138
:106C000021F07061154E766826F07066134F7E6035
:106C100012E000F48016B6F5801F06D1032606FAAE
:106C200005F4A14341F0706106E0460D360103FA18
:106C300006F6B14341F0706122B1460D360103FA08
:106C400006F6314300F00046B6F1004F02D1034E84
:106C5000F16101E0014E7160F0BD000000000140F3
:106C60000246002093680B400BB1012000E0002099
:106C7000704741617047016170474FF6FF710180B5
:106C8000022181700421C1707047000010B50F48C7
:106C900000680F4908600D48001D006848600B48F7
:106CA000083000688860084600684008496800EBC2
:106CB00091000749896800EBD10006490860084641
:106CC000016805A001F040FF10BD0000E8F7FF1FBC
:106CD000D80300205C000020CEA8D2BB6964A3BA10
:106CE00025640D0A0000000000BFFEE7302805DB28
:106CF000392803DCA0F13001C8B210E0412805DBDF
:106D0000462803DCA0F13701C8B208E0612805DBA2
:106D1000662803DCA0F15701C8B200E0FF207047ED
:106D200010B5002001F0AAFE10BD10B5012001F041
:106D3000A5FE10BD70B504460025FFF7F1FFC4F3B2
:106D4000074000F010F8C4F3072000F00CF804F03E
:106D5000F80000F008F8002000F005F80546FFF7FD
:106D6000E4FF284670BD10B50446204600F0FCFF45
:106D700010BD70B504460D46FFF7D2FFC4F30740BF
:106D8000FFF7F1FFC4F30720FFF7EDFF04F0F80170
:106D9000091DC8B2FFF7E7FF2846FFF7E4FFFFF73A
:106DA000C4FF70BD4CF6CC4001490860704700003C
:106DB0000030004010B500F013F810BD70B5054666
:106DC0000C4645F2555000F01FF8284600F010F828
:106DD000204600F013F800F003F8FFF7E3FF70BD62
:106DE0004AF6AA20014908607047000000300040C0
:106DF0000149486070470000003000400149886048
:106E000070470000003000400149086070470000F2
:106E10000030004010B54FF47A7004F05BF840F693
:106E2000A6610420FFF7CAFF01F02CF901F06EF90A
:106E300001F082F901F0D4F901F0E8F901F062FA09
:106E4000FFF7FEFC04F014FC01F01AFD01F028FE2F
:106E500003F07CFDFEF73FFEFFF7C6FB01F0DAFB17
:106E600000F096FEFFF712FF00F06AFF06F014FA3A
:106E700006F06CF805F0CEFE04F086FD0B490C48D8
:106E800006F06EF90BA001F05FFE0121084600F04C
:106E9000ADFE0121880701F050FA0121042000F025
:106EA000A5FE0121094801F048FA10BD4D0100205E
:106EB00045010020573535303020496E6974204334
:106EC0006F6D706C657465210D0A0000000800404C
:106ED00010B50446207B012802D1206804F07CFA1A
:106EE000002020606060A060207310BD0246002377
:106EF00001230DE002F07F000870D2092AB1087862
:106F000040F080000870491C01E0184670475B1C87
:106F1000042BEFDD4FF0FF30F8E770B504460E4666
:106F20000025206898B901202073304604F002FC47
:106F300020602068E0B100206060A66003E00020CF
:106F4000216848556D1CA068A842F8D810E00220BE
:106F5000207303E00020216848556D1CA068A842FA
:106F6000F8D800206060A068B04201D20020206004
:106F700070BD00002DE9FF5F07460D46904638467C
:106F8000FEF732F986B22846FEF72EF91FFA80FA8C
:106F90004FF00009B01D04F0CDFB04461CB90120E0
:106FA00004B0BDE8F09FB11D2046FEF7F6F812A030
:106FB000016821608088A080324639462046FEF76D
:106FC00027F92846FEF710F9834601200021009199
:106FD0005B462A46CDE90208019121460A2000F0CD
:106FE0005DF910B94FF0000901E04FF001092046AA
:106FF00004F0F2F94846D3E724637273702F00005F
:107000002DE9FF4F83B082468B469146159C0025A3
:10701000002002900F2701904846FEF7E5F88046D1
:10702000B9F1000F03D1012007B0BDE8F08F08F1DE
:107030000200384487B2109808B145F00205129852
:1070400078B145F004051298FEF7CEF8C0B2029070
:107050001398FEF7C9F801460298001D0844384409
:1070600087B2119820B1012804D0022808D104E089
:1070700000BF07E045F00C0504E045F0140501E011
:107080000220D1E700BF149808B145F02405BAF1F9
:10709000000F02D0BBF1000F01D10320C4E745F07F
:1070A000C0055046FEF7A0F806465846FEF79CF885
:1070B0003044001D384487B239462046FFF72DFF83
:1070C000206808B90420AFE739462068FEF765F864
:1070D00010216268501C606020688154D4E900234C
:1070E000D118781FFFF702FF01900198002804DAF9
:1070F0002046FFF7EDFE052096E7616801980844F9
:10710000606000216268501C606020688154042126
:107110006268501C6060206881544D216268501C78
:1071200060602068815451216268501C6060206852
:10713000815454216268501C6060206881546268E8
:10714000501C60602068815404216268501C60609B
:10715000206881546168481C606020684554069826
:10716000010A6268501C6060206881540698C1B2B0
:107170006268501C606020688154C8F3072162680F
:10718000501C6060206881546268501C60602068F8
:1071900000F80280D4E90012881842464946FEF7FA
:1071A00037F860684044606005F00400B8B300261A
:1071B000139808B938A013901298FEF715F886B204
:1071C000310A6268501C6060206881546268501CFB
:1071D000606020688654D4E90012881832461299FB
:1071E000FEF716F86068304460601398FDF7FCFF06
:1071F00086B2310A6268501C6060206881546268FF
:10720000501C606020688654D4E900128818324609
:107210001399FDF7FDFF60683044606000BF05F022
:107220008000C8B15046FDF7DFFF86B2310A6268C0
:10723000501C6060206881546268501C6060206847
:107240008654D4E90012881832465146FDF7E0FF13
:1072500060683044606000BF05F04000C8B1584627
:10726000FDF7C2FF86B2310A6268501C6060206878
:1072700081546268501C606020688654D4E9001212
:10728000881832465946FDF7C3FF60683044606095
:1072900000BF0020C8E60000000000002DE9F84F04
:1072A0008046894693469A460D9C0027002500207B
:1072B0000090002660602073A060B8F1000F02D13A
:1072C0000120BDE8F88F00250AE019F80500232801
:1072D00003D019F805002B2801D10220F1E76D1C1D
:1072E00019F805000028F0D146F030060B9808B1D7
:1072F00046F0010605EB0A00871C0A9820B1012818
:1073000004D002280AD105E000BF09E046F00206D9
:10731000BF1C05E046F00406BF1C01E00320D0E7D7
:1073200000BFF91C2046FFF7F8FD206808B90420CB
:10733000C7E7F91C2068FDF730FF6168481C6060F2
:1073400020684654D4E9000281183846FFF7CEFD84
:1073500000900098002804DA2046FFF7B9FD0520C8
:10736000AFE76168009808446060C5F30721626870
:10737000501C6060206881546268501C6060206806
:107380008554D4E9001288182A464946FDF740FF83
:107390006068284460600A9860B14FEA182162680A
:1073A000501C6060206881546268501C60602068D6
:1073B00000F80280BBF1000F09D0D4E90012881850
:1073C00052465946FDF724FF606850446060002033
:1073D00077E770B505460C4604212046FFF79DFD72
:1073E000206808B9012070BD62216268501C60608D
:1073F0002068815402216268501C606020688154BA
:1074000029126268501C6060206881546268501CB8
:107410006060206885540020E5E770B505460C469D
:1074200004212046FFF779FD206808B9012070BDCE
:1074300062216268501C6060206881540221626889
:10744000501C60602068815429126268501C606082
:10745000206881546268501C606020688554002058
:10746000E5E770B505460C4604212046FFF755FDBB
:10747000206808B9012070BD50216268501C60600E
:107480002068815402216268501C60602068815429
:1074900029126268501C6060206881546268501C28
:1074A0006060206885540020E5E770B505460C460D
:1074B00004212046FFF731FD206808B9012070BD86
:1074C00062216268501C60602068815402216268F9
:1074D000501C60602068815429126268501C6060F2
:1074E000206881546268501C6060206885540020C8
:1074F000E5E72DE9FF5F8046174699460E9C00267A
:10750000B246B3460025B8F1000F03D1012004B004
:10751000BDE8F09F0BE057F8250008B90220F6E718
:1075200057F82500FDF760FE0644681CC5B24D45BE
:10753000F1DB09EB4900801C00EB060A0AF10501AA
:107540002046FFF7EAFC206808B90320DFE7822124
:107550006268501C606020688154D4E90002811880
:107560005046FFF7C3FC8346BBF1000F04DA204608
:10757000FFF7AEFC0420CAE76068584460604FEA39
:1075800018216268501C6060206881546268501C39
:107590006060206800F80280002524E057F825008C
:1075A000FDF722FE0646C6F307216268501C6060A4
:1075B000206881546268501C606020688654D4E959
:1075C0000023D01857F825103246FDF721FE6068D9
:1075D000304460600198C1B26268501C60602068ED
:1075E0008154681CC5B24D45D8DB00208FE72DE9DA
:1075F000F05F80460F4691461C460026B246B346D1
:107600000025B8F1000F02D10120BDE8F09F0BE08A
:1076100057F8250008B90220F7E757F82500FDF7CD
:10762000E3FD0644681CC5B24D45F1DB022000EBCA
:10763000490000EB060A0AF105012046FFF76DFC40
:10764000206808B90320E0E7A2216268501C60604E
:1076500020688154D4E9000281185046FFF746FCA7
:107660008346BBF1000F04DA2046FFF731FC04200B
:10767000CBE76068584460604FEA18216268501C8C
:107680006060206881546268501C6060206800F867
:10769000028000251DE057F82500FDF7A5FD0646F0
:1076A000C6F307216268501C6060206881546268DC
:1076B000501C606020688654D4E90023D01857F825
:1076C00025103246FDF7A4FD606830446060681CF8
:1076D000C5B24D45DFDB002097E7F0B504460D4607
:1076E0002646012300201060002114E0775C07F09B
:1076F0007F07106807FB03001060705C00F08000DB
:1077000008B9481CF0BDDB01B3F5001F02D36FF0D0
:107710000100F7E7491CA942E8DB4FF0FF30F1E731
:107720002DE9F84307460C4615462F21F81CFDF7B6
:1077300051FD064600200090804616B90120BDE8A4
:10774000F883761C6A460421781CFFF7C6FF2520C3
:1077500003F0F0FF2060206808B90220EFE7252140
:107760002068FDF71AFD242231462068FDF7FCFC55
:10777000243600982C381FFA80F808F1010003F035
:10778000D9FF2860286820B9206803F025FE03206F
:10779000D5E708F101012868FDF7FFFC42463146B4
:1077A0002868FDF7E1FC0020C9E701464878022877
:1077B00001D001207047887810B18878012801D164
:1077C000C878F7E7FF20F5E72DE9FC5F81460D4615
:1077D00016469A4699F8000000F00F0B0020019021
:1077E0000BF0080000904FF000080024CBF341009C
:1077F0008AF8000001AA042109F10100FFF76DFFDA
:107800004844471C0198022802D30BF0010010B134
:10781000FF20BDE8FC9F7878397840EA0124A01C5D
:107820000199814201D2FF20F3E749A1B81CFDF77D
:10783000BFFC08B10F20ECE79AF8000020B1012846
:1078400033D0022872D131E0009808B1FF20E0E780
:10785000601C03F06FFF2860286808B9FF20D8E794
:10786000611C2868FDF799FC2246B91C2868FDF7C1
:107870007BFC0198801EA0EB040808F1010003F0D6
:1078800059FF3060306820B9286803F0A5FDFF205B
:10789000BFE708F101013068FDF77FFCBA1C111940
:1078A00042463068FDF760FC42E000BFA01C019931
:1078B000884201D9FF20ACE7E01C395CA01C385C91
:1078C00041EA00210C9801800C9808B9FF20A0E73C
:1078D000601C03F02FFF2860286808B9FF2098E794
:1078E000611C2868FDF759FC2246B91C2868FDF781
:1078F0003BFC0198001FA0EB040808F1010003F015
:1079000019FF3060306820B9286803F065FDFF205A
:107910007FE708F101013068FDF73FFC3A1D1119BE
:1079200042463068FDF720FC02E0FFE7FF2070E7E9
:1079300000BF2B212846FDF74DFC20B92321284606
:10794000FDF748FC08B1FF2063E7002061E7000075
:10795000246372657100000001464878022801D056
:1079600001207047887820B9C8780A2801D1002002
:10797000F7E70120F5E701464878022801D0012009
:107980007047887820B9C8780A2801D10020F7E725
:107990000120F5E701464878022801D00120704710
:1079A000887820B9C8780A2801D10020F7E701209B
:1079B000F5E702465078022801D001207047907800
:1079C000B0EB112F05D1D078CBB2984201D1002075
:1079D000F4E70120F2E70000F8B50446FF2720781D
:1079E0000511012D01DB0E2D01DD3846F8BD032DFB
:1079F00024D1002000906A460421601CFFF76DFE30
:107A00002044461C0098022803D3207800F001008F
:107A100008B1FF20EAE77078317840EA0120801C45
:107A20000099884201D9FF20E0E706A1B01CFDF7CC
:107A3000BFFB08B10F2700E0032700E02F463846C0
:107A4000D4E7000024637265710000000146FF2046
:107A50008A78A2B9CA78142A11D10A7932B1012AD6
:107A600005D0022A04D0802A06D103E000BF00BF5F
:107A7000002003E0012001E0022000BF00BF7047AA
:107A8000014601208A781AB9CA781E2A00D100203E
:107A9000704700007FB505460E460020009001901B
:107AA000029003906B46324629460A20FFF79FFD5D
:107AB000D0B9019882B20420009904F083FA6420BE
:107AC00003F008FA042003F0E0FC044622460749CC
:107AD000042004F0F5F8054800780B21B1EB201FD5
:107AE00002D103A001F030F87FBD0000B4080020EF
:107AF000B3C9B9A6C8A1CFFBB6A9D4C40D0A00006A
:107B000000BFFEE77047000070B5002100230F2280
:107B1000C47804B3154C246804F4E064C4F5E0644C
:107B2000210AC1F10403CA40447804FA03F18478BD
:107B30001440214309010E4C0678A155047804F045
:107B40001F050124AC4005786D11AD0005F1E0255D
:107B5000C5F8004109E0047804F01F050124AC4099
:107B6000044D0678761145F8264070BD0CED00E016
:107B700000E400E080E100E002490143024A1160B4
:107B8000704700000000FA050CED00E070470000AF
:107B900010B51248006800F00200022805D00F4816
:107BA000006800F0020001280BD101210C48FFF70A
:107BB00062F820210B48FFF75CF803200A4908709F
:107BC0000AE001210648FFF754F820210548FFF795
:107BD00052F802200449087010BD00000808014056
:107BE000000C0140001001407300002029B1064A3A
:107BF000D2690243044BDA6104E0034AD26982434A
:107C0000014BDA61704700000010024029B1064ABA
:107C100012690243044B1A6104E0034A1269824369
:107C2000014B1A61704700000010024029B1064A5A
:107C300092690243044B9A6104E0034A92698243C9
:107C4000014B9A61704700000010024029B1064ABA
:107C5000D2680243044BDA6004E0034AD2688243EC
:107C6000014BDA60704700000010024030B500217F
:107C70000022002400232D4D6D6805F00C0121B178
:107C8000042905D0082923D105E0294D056022E00B
:107C9000274D05601FE0254D6D6805F47012234DDA
:107CA0006D6805F48034022505EB92421CB9214D24
:107CB000554305600BE01D4D6D6805F400351DB1A1
:107CC0001C4D5543056002E0194D5543056002E027
:107CD000174D056000BF00BF144D6D6805F0F00141
:107CE0000909154D6B5C0568DD4045600F4D6D68F9
:107CF00005F4E061090A104D6B5C4568DD40856064
:107D00000A4D6D6805F46051C90A0B4D6B5C4568FE
:107D1000DD40C560054D6D6805F44041890B074D98
:107D20006B5CC568B5FBF3F5056130BD0010024022
:107D300000127A0000093D00050100201501002015
:107D400010B580210748FEF794FF022003F0E0F809
:107D500080210448FEF78FFF4FF4C86003F0BAF8A3
:107D600010BD00000010014010B5044600BF022104
:107D70000A4800F021F80028F9D02146074800F011
:107D800027F800BF0121054800F016F80028F9D0B7
:107D9000024800F01AF8C0B210BD000000380040E0
:107DA00021B1028842F04002028004E002884FF6CE
:107DB000BF731A40028070470246002013890B40AF
:107DC0000BB1012000E00020704701468889704710
:107DD0008181704710B50022028802F441520B885D
:107DE0004C8823438C882343CC8823430C8923432A
:107DF0004C8923438C892343CC8923431A43028033
:107E0000838B4FF2FF74234083830B8A038210BD60
:107E100000B587B001211D20FFF708FF01210803ED
:107E2000FFF704FF06A8FEF728FF1020ADF81800A2
:107E30008DF81B0003208DF81A0006A91E48FEF7D6
:107E40003BFE10211C48FEF716FF06A8FEF715FFA3
:107E5000E020ADF8180018208DF81B0003208DF8E5
:107E60001A0006A91548FEF727FE0020ADF8040009
:107E70004FF48270ADF806004FF40060ADF80800D2
:107E80000220ADF80A000120ADF80C004002ADF868
:107E90000E002020ADF810000020ADF812000720E1
:107EA000ADF8140001A90648FFF794FF012104482A
:107EB000FFF776FF07B000BD001001400008014049
:107EC00000300140704710B500F002F810BD00000E
:107ED0000CB50020019000903348006840F48030D9
:107EE0003149086000BF3048006800F4003000905D
:107EF0000198401C0190009818B90198B0F5A06F46
:107F0000F1D12948006800F4003010B10120009040
:107F100001E0002000900098012843D12348006828
:107F200040F01000214908600846006820F0030076
:107F300008600846006840F0020008601A4840687F
:107F4000194948600846406848600846406840F45F
:107F5000806048600846406820F47C10486008460D
:107F6000406840F4E81048600846006840F08070BF
:107F7000086000BF0C48006800F000700028F9D0CD
:107F80000948406820F003000749486008464068F7
:107F900040F00200486000BF0348406800F00C0059
:107FA0000828F9D10CBD000000100240002002405A
:107FB000012080F3138800BF00BF0748006800F469
:107FC000E06006490843001D03490860BFF34F8F76
:107FD00000BF00BFFEE700000CED00E00000FA0566
:107FE0007047000010B51248006840F001001049C9
:107FF0000860084640680F4908400D494860084637
:1080000000680D4908400A4908600846006820F4E5
:10801000802008600846406820F4FE0048604FF465
:108020001F008860FFF74FFF04480549086010BD36
:10803000001002400000FFF8FFFFF6FE00500008AD
:1080400008ED00E04FF0E021096921F004014FF054
:10805000E0221161C21700EB5272C2F3C702074B54
:108060001A701946097801EB4102C2EBC1114FF6B3
:10807000FF7202EAC101024A118070471E0000200F
:10808000200000200EB501210846FFF7AFFD4FF09C
:10809000804000F05FF96420ADF804004720ADF89F
:1080A00000000020ADF8020069464FF0804000F06B
:1080B0005FFA0121880700F03AF901221146900782
:1080C00000F04DFA0121880700F037F90021012066
:1080D000FFF78CFD0EBD000010B50121880700F0F0
:1080E0002DFA78B10121880700F024F9002407E077
:1080F000054850F82400401C034941F82400641C42
:10810000162CF5DB10BD00005803002008B54FF415
:10811000E060FFF731FD1C208DF8000000208DF895
:10812000010004208DF8020001208DF8030068464C
:10813000FFF7EAFC08BD00000EB501210220FFF7A1
:1081400055FD114800F006F96420ADF80400472001
:10815000ADF800000020ADF8020069460A4800F0C2
:1081600007FA0121084800F0E2F80122114606480A
:1081700000F0F5F90121044800F0DFF800210220A9
:10818000FFF734FD0EBD00000004004010B50121D2
:10819000104800F0D3F9E0B101210E4800F0CAF810
:1081A0000D480068401C0C490860084600684CF205
:1081B0005031884207DB09480068401C07490860C5
:1081C00000200549086005480068022801D9FFF72A
:1081D000EFFE10BD000400400C0000201000002045
:1081E00008B54FF4E060FFF7C7FC1D208DF80000D4
:1081F00000208DF801000B208DF8020001208DF881
:1082000003006846FFF780FC08BD00000EB50121A1
:108210000420FFF7EBFC114800F09CF86420ADF857
:1082200004004720ADF800000020ADF802006946C8
:108230000A4800F09DF90121084800F078F8012271
:108240001146064800F08BF90121044800F075F84A
:1082500000210420FFF7CAFC0EBD0000000800400A
:1082600010B501211F4800F069F9002839D001211B
:108270001C4800F05FF81C480078012804D11B4816
:108280004068401C1949486019480078012804D109
:1082900016488068401C15498860164800780128F7
:1082A00004D11248C068401C1049C86012480078C8
:1082B000012804D10D480069401C0C4908610F4891
:1082C0000078012804D109484069401C07494861E9
:1082D0000B480078012804D104488069401C0349F8
:1082E000886110BD0008004022000020B00300207B
:1082F000230000202400002025000020260000206C
:108300002700002008B54FF4E060FFF735FC1E2081
:108310008DF8000000208DF801000C208DF802007F
:1083200001208DF803006846FFF7EEFB08BDCA4345
:1083300002827047CA430282704721B1028842F02C
:108340000102028004E002884FF6FE731A400280A8
:108350007047000010B504466848844208D10121E6
:10836000C014FFF773FC0021E014FFF76FFCC4E0BA
:10837000B4F1804F08D101210846FFF747FC0021E6
:108380000120FFF743FCB8E05D48844208D1012199
:108390000220FFF73BFC00210220FFF737FCACE096
:1083A0005848844208D101210420FFF72FFC002106
:1083B0000420FFF72BFCA0E05348844208D10121A0
:1083C0000820FFF723FC00210820FFF71FFC94E0A2
:1083D0004E48844208D101211020FFF717FC0021EC
:1083E0001020FFF713FC88E04948844208D101219E
:1083F0002020FFF70BFC00212020FFF707FC7CE08A
:108400004448844208D101214014FFF71FFC002199
:108410006014FFF71BFC70E03F48844209D1012142
:10842000C804FFF713FC00214FF40020FFF70EFCF7
:1084300063E03A48844209D101210805FFF706FCB0
:1084400000214FF48010FFF701FC56E034488442CD
:1084500009D101214805FFF7F9FB00214FF4001075
:10846000FFF7F4FB49E02F48844208D10121402066
:10847000FFF7CCFB00214020FFF7C8FB3DE02A4876
:10848000844208D101218020FFF7C0FB0021802019
:10849000FFF7BCFB31E02548844208D1012180155B
:1084A000FFF7B4FB0021A015FFF7B0FB25E0204843
:1084B000844209D101210804FFF7C8FB00214FF4D1
:1084C0008030FFF7C3FB18E01A48844209D101212C
:1084D0004804FFF7BBFB00214FF40030FFF7B6FB69
:1084E0000BE01548844208D101218804FFF7AEFB58
:1084F00000214FF48020FFF7A9FB10BD002C0140A4
:108500000004004000080040000C00400010004043
:108510000014004000340140004C01400050014074
:108520000054014000180040001C004000200040A2
:1085300000400140004401400048014030B502467F
:10854000002000230024158A05EA0103958905EA25
:10855000010413B10CB1012000E0002030BD1AB1BC
:1085600083890B43838102E083898B438381704736
:10857000002202881D4B98420ED01D4B98420BD012
:10858000B0F1804F08D01B4B984205D01A4B98424F
:1085900002D01A4B984204D14FF68F731A404B8881
:1085A0001A43174B984207D0164B984204D04FF607
:1085B000FF431A40CB881A4302808B8883850B883F
:1085C00003850A4B98420BD0094B984208D00E4BBA
:1085D000984205D00D4B984202D00D4B984201D1E4
:1085E0000B7A03860123838270470000002C014030
:1085F000003401400004004000080040000C00402E
:1086000000100040001400400040014000440140C0
:108610000048014000B585B001210420FFF706FBAA
:1086200001214804FFF7E2FA0420ADF810001820F9
:108630008DF8130003208DF8120004A91748FEF7E7
:108640003BFA0820ADF8100004208DF8130004A9AF
:108650001248FEF731FA4FF4E13000900020ADF8F7
:108660000400ADF80600ADF80800ADF80C000C20D1
:10867000ADF80A00012240F22551094800F061F9E5
:108680006946074800F082F90121054800F016F913
:108690004021034800F009F905B000BD0008014081
:1086A0000044004010B500240821694800F012F988
:1086B00030B1674800F0D6F90821654800F0F5F8B8
:1086C0000421634800F006F930B1614800F0CAF9AE
:1086D00004215F4800F0E9F802215D4800F0FAF853
:1086E00030B15B4800F0BEF90221594800F0DDF8D6
:1086F0000121574800F0EEF830B1554800F0B2F9CA
:108700000121534800F0D1F840F22551504800F0C3
:10871000EEF800287DD04E4800F0A4F9C4B24D48D0
:10872000007800B110BD4C48007880B94B48007803
:1087300068B9242C0BD148490878411C464A11706D
:10874000474941F82040012044490870EAE742487F
:1087500000780A2814DA41480078012810D13E48F0
:108760000078092804DA3F48007820443D49087021
:1087700039490878411C384A1170394941F820407C
:10878000354800780A285CD1354800683449496882
:1087900008443349896808443149C9680844304964
:1087A000096908442E49496908442D4989690844E2
:1087B0002B49C96908442A49096A084429490870AB
:1087C0002748406A0978884234D100210120FFF708
:1087D0000DFA2548007860B923480078401C2249EA
:1087E000087001210220FFF701FA01211F48FFF75D
:1087F000A4FD20211E48FEF73EFA01211D48FEF788
:1088000038FA02211B48FEF736FA4FF48061194806
:1088100000E01BE0FEF72DFA01200E490870164912
:10882000087000200F4908700120144908700020CA
:10883000094908700020084908700849087009496A
:10884000087040F22551024800F02FF800BF69E798
:108850000044004017000020190000201A000020EA
:10886000180300201B0000201C0000200004004012
:1088700000100140000C0140AE0000201800002054
:1088800008B54FF4E060FFF777F926208DF8000077
:1088900000208DF8010002208DF8020001208DF8E3
:1088A00003006846FFF730F908BD01F40072B2F525
:1088B000007F00D100BFCA430280704721B1828986
:1088C00042F40052828104E082894DF6FF731A401F
:1088D0008281704702460020B1F5007F00D100BFC1
:1088E00013880B400BB1012000E00020704770B5E9
:1088F0000246002400230025002040F66A16B142FB
:1089000000D100BFC1F3421501F01F03012606FA92
:1089100003F3012D02D19689334006E0022D02D1E6
:10892000168A334001E0968A33400C12012606FA7B
:1089300004F41688344013B10CB1012000E000208B
:1089400070BDF0B50346002400260025002040F647
:108950006A17B94200D100BF1846C1F3421401F0B2
:108960001F06012707FA06F5012C01D10C3004E09F
:10897000022C01D1103000E014301AB107682F43E7
:10898000076002E00768AF430760F0BD2DE9F047DC
:1089900086B005460E460024A24600BFA146002729
:1089A000B08900B100BF2F462C8A4CF6FF700440FE
:1089B000F08804432C82AC894EF6F3100440B08852
:1089C00031890843718908430443AC81AC8A4FF66E
:1089D000FF400440B0890443AC8201A8FFF746F988
:1089E0001F48874202D1DDF810A001E0DDF80CA09D
:1089F000A88900F4004040B10AEBCA0000EB0A105D
:108A000031684900B0FBF1F807E00AEBCA0000EB5F
:108A10000A1031688900B0FBF1F86420B8FBF0F06F
:108A200004012009642101FB1089A88900F4004099
:108A300040B1322000EBC900B0FBF1F000F00700BC
:108A4000044308E0322000EB09106421B0FBF1F090
:108A500000F00F0004432C8106B0BDE8F087000051
:108A60000038014001468888C0F308007047C1F310
:108A700008028280704700BFFEE7000010B5044680
:108A80002CB94FF480510548FEF7F3F805E0012CAE
:108A900003D121030148FEF7EEF810BD000C0140A0
:108AA00000B587B001218803FFF7A0F80121092054
:108AB000FFF7BCF84FF46040ADF8040003208DF8D8
:108AC000060018208DF8070001A91D48FDF7F4FFE6
:108AD0004FF48050ADF8040003208DF806001020FC
:108AE0008DF8070001A91648FDF7E6FF4FF4805105
:108AF0001348FEF7C0F80020ADF808004FF482706C
:108B0000ADF80A000020ADF80C00ADF80E00ADF88D
:108B100010004FF40070ADF812000820ADF81400FA
:108B20000020ADF816000720ADF8180002A905488E
:108B3000FFF750F901210348FFF732F907B000BDF4
:108B4000000C0140003800400FB4054B10B503A9DC
:108B5000044A029800F0E2F810BC5DF814FB000033
:108B6000B5B30008080300200FB4084B10B504A9E2
:108B700002AA039800F0D2F8044602A9002000F0EF
:108B800064FC204610BC5DF814FB00004B94000808
:108B9000004870471403002002E008C8121F08C1F3
:108BA000002AFAD170477047002001E001C1121F6E
:108BB000002AFBD1704700002DE9FF5FDDE90220AC
:108BC000010DDDF838B0024318D044F61050A1F280
:108BD000FF3141430D140F98012820D0A5EB0B0065
:108BE000401C5FEA000A4FF00004474EDFF81C917A
:108BF000A046504616D5CAF1000728E00F98012478
:108C000043A2012808D0002100980F9BC0E9002151
:108C1000C0E90243BDE8FF9F6FEA0B01F4E7CBF127
:108C20000000DEE7074612E0F80707D02246334689
:108C300040464946FCF7C3FC8046894622463346F7
:108C400010461946FCF7BBFC04460E467F10002F69
:108C5000EAD1DDE90201BAF1000F42464B4602DAE1
:108C6000FCF7ADFC01E0FCF71CFD04460E460022BB
:108C7000284BFCF79DFD03D84FF0FF30014607E07D
:108C80000022254B20463146FCF7F2FBFCF778FD2D
:108C9000102409E0002C0ADB0A220023FCF748FB21
:108CA000019B30321A55641E50EA0102F2D1641C55
:108CB000019AC4F1110314440F9A012A03D001222E
:108CC00008430DD10AE0084304D000204FF0110BF7
:108CD0000F9080E7A3EB0B056D1E0DE05B4504DDF7
:108CE0004FF0000205F1010504E003DA4FF0000245
:108CF000A5F10105002AECD000980F99C0E90231D6
:108D0000C0E9004586E70000000024400000F03F75
:108D1000300000000000F0430000E03F2DE9FF4F6D
:108D200095B09B468946064600250FE2252877D157
:108D300000242746F84A0121059400E0044316F870
:108D4000013F203B01FA03F01042F7D130782A2886
:108D500011D06FF02F033078A0F13002092A16D815
:108D6000059A44F0020402EB820203EB4202104433
:108D7000761C0590EFE759F8042B0592002A03DAD8
:108D8000504244F40054059044F00204761C3078BC
:108D90002E2816D116F8010F44F004042A280DD00D
:108DA0006FF02F023078A0F13003092B09D807EBC0
:108DB000870302EB4303C718761CF3E759F8047BDB
:108DC000761C30786C280FD006DC4C2817D0682829
:108DD0000DD06A2814D104E0742810D07A280FD15D
:108DE0000DE044F400140AE044F4801401E044F47B
:108DF00040147278824202D104F58014761C761CED
:108E0000307866280BD013DC582877D009DC00288E
:108E100075D04528F6D04628F4D047281AD19DE1D0
:108E200018E0632835D0642879D0652812D195E1FF
:108E3000702873D008DC6728F1D069286FD06E28BD
:108E40000DD06F2806D1B5E073282CD0752875D0C9
:108E5000782874D05A46179990476D1C75E1C4F371
:108E60000250022809D003280DD0D9F80010042898
:108E70000DD00D6009F1040967E1D9F80010EA1777
:108E8000C1E90052F6E7D9F800100D80F2E70D7045
:108E9000F0E719F8041B8DF8001000208DF8010090
:108EA000EA46012003E059F804AB4FF0FF306107B8
:108EB0004FF0000102D40DE008F101018846B942EB
:108EC0000FDA8045F8DB1AF808100029F4D108E021
:108ED00008F1010188468142FADB1AF808100029DE
:108EE000F6D105985B46A0EB080721463846179A4D
:108EF00000F094FA284400EB080507E04DE029E172
:108F00000DE01AF8010B5A4617999047B8F101087D
:108F1000F7D25B4621463846179A13E142E00A220F
:108F20000092C4F302524FF0000A022A08D059F806
:108F300004CB032A4FEAEC710AD00DE029E02AE0C5
:108F400009F1070121F00702F2E802C1914609E0A8
:108F50000FFA8CFC4FEAEC71042A03D14FFA8CFC17
:108F60004FEAEC71002907DA0A460021DCF1000C17
:108F700061EB02012D2202E0220504D52B228DF89F
:108F80000420012203E0E20701D02022F7E7904607
:108F900059E00A2102E010220DE010214FF0000AF2
:108FA00000910BE010224FF0000A44F0040408275F
:108FB000009203E008224FF0000A0092C4F302522C
:108FC000022A05D059F804CB0021032A08D009E071
:108FD00009F1070121F00702F2E802C1914605E01C
:108FE0001FFA8CFC042A01D10CF0FF0C4FF0000892
:108FF000220728D5702806D0009B83F0100353EA7F
:109000000A0305D00EE040228DF80420012208E07A
:109010005CEA010206D030228DF804208DF80500AC
:1090200002229046009B83F0080353EA0A030AD108
:109030005CEA010201D1620705D530228DF80420D7
:109040004FF001087F1E582804D034A003900EA8CA
:1090500002900DE036A0F9E753466046009AFCF70F
:1090600067F984460398825C0298401E0290027061
:109070005CEA0100F0D1029806A9081A00F1200A62
:10908000600702D524F4803400E00127574502DD53
:10909000A7EB0A0000E0002000EB0A010090059811
:1090A0004144401A0590E00306D45B462146179AD6
:1090B000059800F0B3F90544002706E001A85A46D8
:1090C000C05D179990476D1C7F1C4745F6DBE00398
:1090D0000CD55B462146179A059800F09FF9054488
:1090E00004E030205A46179990476D1C0099481E9D
:1090F00000900029F5DC08E0029802995A460078B1
:10910000491C0291179990476D1CBAF10001AAF110
:10911000010AF1DC65E10000092801003031323339
:1091200034353637383961626364656600000000A3
:10913000303132333435363738394142434445468D
:109140000000000000F058F90544761C3078002833
:109150007FF4ECAD19B02846BDE8F08F620700D46B
:10916000062709F1070222F0070CFCE80223E1467A
:1091700003F000485FEA080C02D00FF2702C0DE0FB
:109180005FEA045C02D50FF2682C07E05FEAC47C5A
:1091900002D00FF2602C01E0AFF2700C4FF0FF38FC
:1091A00023F00043CDF850C065280CD006DC4528DC
:1091B00009D046281DD047283DD13DE0662818D06B
:1091C00067287ED138E00021112F01DB112000E05B
:1091D000781CCDE9000106A90EA8FFF7EDFCDDE93A
:1091E0000F010E9A03910021009207F1010A0491E8
:1091F0004DE04FF000400097CDE9011006A90EA800
:10920000FFF7DAFCDDE90F0203920E9B11990022B1
:10921000DDF80CA00093049211B9791C00EB010A4F
:10922000B7EB0A0004D4C0F1FF3007F1010A049043
:10923000AAEB0700019044E0012F00DA012700218A
:10924000112F01DD112000E03846CDE9000106A90B
:109250000EA8FFF7B1FCDDE90F010E9A0391002182
:1092600004910092BA4621070CD40399514500DAC3
:109270008A46BAF1010F05DD009AAAF10101515C9D
:10928000302908D0B84202DA10F1040F06DA0121C1
:10929000CDE9011015E0AAF10101E9E7002805DC9C
:1092A000049901440491AAEB000102E0411C5145DC
:1092B00000DD8A460499401A401C01904FF000409E
:1092C0000290200704D40198504501DBCDF80480BA
:1092D00000208DF84F0002980DF14F07B0F1004FBC
:1092E00025D02B200E9002984FF0020800280CDAAF
:1092F000404202902D200E9007E00A210298FCF7D0
:1093000001F83031029007F8011DB8F10001A8F111
:109310000108F2DC02980028EFD1791E0E9808703F
:10932000307800F0200040F0450007F8020D12A848
:10933000C01B00F107081498007800B1012000EB71
:109340000A01019801EBE07105984144401A401E62
:109350000590E00306D45B462146179A059800F075
:109360005DF805441498007818B15A46179990474B
:109370006D1CE00324D55B462146179A059800F042
:109380004DF805441CE00498002807DBDDE90301E3
:10939000884203DD0098405C179901E0179930205E
:1093A0005A469047049805F10105401C0490019825
:1093B000401E019004D12E205A46179990476D1CEB
:1093C000BAF10001AAF1010ADDDC05E017F8010B92
:1093D0005A46179990476D1CB8F10001A8F1010891
:1093E000F4DC5B462146179A0598ABE62D00000099
:1093F0002B000000200000002DE9F041044600256C
:109400001E461746880404D405E039462020B0479C
:109410006D1C641EF9D52846BDE8F0812DE9F041A8
:10942000044600251E469046C80301D5302700E0BB
:109430002027880404D505E041463846B0476D1C16
:10944000641EF9D52846BDE8F0810A68531C0B60FC
:109450001070704770B5FDF7ADFCF8480078012832
:1094600001D003F019FFF6480078012801D001F07F
:1094700009FB642001F02EFDF1480078012804D199
:1094800001F064FD642001F025FDEE48008801280C
:1094900013D10020EB490880E9490870FEF750FC21
:1094A00003F0FAFE03F052FD03F034FCE649E7480E
:1094B00003F056FE0120E6490860E64800780128DE
:1094C00017D1E548007801280ED1E448C06BE44983
:1094D00088420ED30020E149C8630320DC490860BC
:1094E0000120E049087004E00020DC49C863DE493F
:1094F0000870DA48806BDD49884261D30020D74983
:109500008863DB480068401CD94908600222D949B9
:10951000042002F057FD642001F0DCFCD6480078FE
:10952000D02816D10C20CA4908600020D3490880F1
:10953000D34908704FF48071CF48FBF72EFE01200D
:10954000D04908700020D04908700120C149087036
:1095500036E0CA480088401CC8490880C8480078DE
:10956000401CC7490870C5480088022807DD0E2046
:10957000B7490860C1480188C4A0FFF7E5FABF48B1
:10958000008803281CDDC7A0FFF7DEFA0020BB49D6
:1095900008800120AB4908800020AE4908700222F3
:1095A000C649042002F00EFD0020B64908704FF4B1
:1095B0008071B148FBF7F1FD8021C148FBF7EDFD5B
:1095C000A648416DBF48007840F271225043B1EB8C
:1095D000001F1DD30020A1494865BB480068401CFE
:1095E000B9490860A7480078012811D1A34800882C
:1095F00001280DDAB5A0FFF7A7FAB7480078401C9C
:10960000B54908700120B5490870032090490860E9
:10961000B148007803280FDBB1480078401CB049FE
:10962000087008460178382001F004FA4FF47A7087
:1096300001F050FCFEF7BCFC88480068F8B100203F
:1096400086490860A7480078012805D10220A6496C
:1096500008708D49087016E0A448007801280BD0E6
:10966000A3480078012807D0A2480078012803D039
:10967000A1480078012803D101209B49087002E02D
:109680000020994908707548C06AB0F57A6F59D3BF
:1096900000207249C86299480078401C97490870B8
:1096A0009148007820B101281DD0022849D136E028
:1096B0009348007858B920219248FDF7DCFA01213F
:1096C0009148FDF7D6FA01208D4908700AE0202163
:1096D0008C48FDF7D0FA01218B48FDF7CCFA002029
:1096E000874908702DE08648007801280BD10121B8
:1096F0008548FDF7C0FA20218248FDF7BAFA00201C
:109700007F4908700AE001217F48FDF7B4FA202163
:109710007C48FDF7B0FA01207949087011E020215A
:109720007848FDF7A8FA01217748FDF7A2FA02214F
:109730007548FDF7A0FA4FF480617348FDF799FA78
:1097400000BF00BF4548006C704988420FD3704885
:10975000007860B96F480078002808DD00203F4994
:10976000086403203A49086001206B4908703B48AF
:10977000406A44F62061884230D30020374948626D
:109780006648FCF7AFFD65494878FBF774FD64490E
:10979000086062490878FBF76EFD6249086062491B
:1097A0005F480068FBF7A4FD11D360495D4800687D
:1097B000FBF79EFD0BD3002159480068FBF78EFD97
:1097C00005D0002157480068FBF788FD03D1012030
:1097D0004649087002E00020444908701F4880692B
:1097E000B0F5FA6F27D300201C498861264800781D
:1097F00020B1012820D002281CD1B8E04C480078C4
:1098000060B902214048FDF736FA4FF480613E48C6
:10981000FDF72FFA0120464908700BE002213A4873
:10982000FDF729FA4FF480613748FDF724FA00204C
:109830003F490870B6E0B6E07CE000001700002069
:109840003C010020B00000204D0100204501002017
:10985000E0020020D7000020D6000020580300209E
:10986000E09304000301002004010020A086010011
:10987000E0000020F802002084090020B20000204F
:10988000B400002072000020B7000020CEB4CAD57A
:10989000B5BDD0C4CCF8B4CECAFDA3BA2025640DA2
:1098A0000A000000D0C4CCF8B3ACCAB1A3ACD6D87F
:1098B000D0C2C1ACBDD3A3A10D0A00007E00002020
:1098C000B4080020DB000020E4000020B7A2B2BCF6
:1098D000CFFBCFA20D0A0000780000207500002009
:1098E000A9000020AE000020B6000020AC0000203F
:1098F000AD000020AF000020EA000020B5000020ED
:10990000B800002000100140000C0140C0270900F1
:109910002A00002001010020020100208400002014
:10992000BC000020C0000020000048420000B442FB
:10993000B9000020F948007801280BD18102F848CD
:10994000FDF799F90221F648FDF793F90020F34954
:1099500008700BE04FF48061F148FDF78CF90221AB
:10996000EF48FDF788F90120EC4908701AE0202142
:10997000EC48FDF780F90121E948FDF77AF9022169
:10998000E748FDF778F94FF48061E548FDF771F994
:1099900000214FF08040FEF7D0FC00210120FEF7AF
:1099A00025F900BF00BFE048007802281DD1DF483C
:1099B0000078D0B9DE48806C40F6B831884214D3C4
:1099C0000020DB498864D848007802280DD1D748A8
:1099D0000078401CD54908700120D3490870032045
:1099E000D4490870D4A0FFF7AFF8CF480078D0B9B9
:1099F000CE480078B8B1CE48806C40F6B831884285
:109A000011D30020CA498864C748007858B900209B
:109A1000C64908700220C74908700020C249087072
:109A2000CAA0FFF791F8CE480078012815D1CD489B
:109A3000007890B1BE48C06C40F6C41188420CD387
:109A40000020BB49C864C6480078012805D1002021
:109A5000C4490870C4A0FFF777F8C1480078B0B9CE
:109A6000C048007898B9B248C06C40F6C41188422A
:109A70000DD30020AE49C864B948007838B9B94858
:109A80000078401CB7490870BCA0FFF75DF8A848F3
:109A90008068322869D30020A5498860BC48FBF75C
:109AA000CCFFBC480078092860DBBB4800880A214D
:109AB00090FBF1F0B8490880B84800880A2190FB73
:109AC000F1F0B6490880B64800880A2190FBF1F011
:109AD000B3490880B0480088401FAF498988884250
:109AE0000ADAAD480088401DAB498988884203DD09
:109AF000A9488088A8490880A8480088401FA7492D
:109B0000898888420ADAA5480088401DA3498988C7
:109B1000884203DDA1488088A0490880A0480088C9
:109B2000401F9F49898888420ADA9D480088401D65
:109B30009B498988884203DD994880889849088034
:109B40009548008894498880944800889349888083
:109B5000934800889249888000208E4908708E4979
:109B600008808E4908808E49088019E08A4800885C
:109B700087490988084488490880884800888449BA
:109B80008988084485490880854800888049098972
:109B90000844834908807F480078401C7D4908704C
:109BA00080480078052801DDFEF702FA7E4800783B
:109BB00001287DD100207C4908707C4801787CA078
:109BC000FEF7C2FF804800787B28F2D17E48407AB9
:109BD0003128EED17C48807C5B28EAD17B48008824
:109BE0007B4908804DE1784879490988405C222802
:109BF0007ED17748007875490978401A7549087010
:109C0000002416E072490988724A1278891A2144A0
:109C10006D4A505CFDF76AF86F4908550846005DCB
:109C20006E49096801EB810100EB41006B49086056
:109C3000641C684800788442E4DB6848006868492E
:109C40000968884257D167A0FEF77EFF5748007821
:109C5000C01E5D49085C303854490978491F5A4A8A
:109C6000515C303901EB810100EB41006149087022
:109C7000084600780A2190FBF1F201FB12045D48CE
:109C8000007890FBF1F5224629465BA0FEF75CFFC9
:109C9000552000F07BFE5749097888421CDA554868
:109CA00000780A2190FBF1F201FB1204514800E018
:109CB000EFE0007890FBF1F52246294654A0FEF72C
:109CC00043FF4C480178562000F0B4FE4FF47A7000
:109CD00001F000F9FEF76CF901205549087055A014
:109CE000FEF732FF14203949088000203B4900E08C
:109CF000C2E00860CCE0344935480088401C085C6C
:109D00005D2809D14FA0FEF71FFF14202F490880BE
:109D100000203249086070BD9EE00000B9000020BC
:109D2000000C014000100140EA000020E900002082
:109D3000580300207300002061636320697320636F
:109D40006C6F73656420210D0A000000616363205D
:109D50006973206F70656E656420210D0A00000034
:109D6000E8000020EB0000206261747465727920C5
:109D70006973206869676820210D0A006261747444
:109D8000657279206973206C6F7720210D0A0000BD
:109D9000E4030020A80000206000002066000020EE
:109DA0006C000020B40000209E0100209F010020D4
:109DB0007375625F7265765F6C656E677468203D6F
:109DC0002025640D0A00000034090020480000200E
:109DD000500000204B000020CC0300204C0000204D
:109DE0005C000020CAD5B5BDB8FCD0C2D6B8C1EE63
:109DF0002E0D0A0053000020B8FCD0C2B0E6B1BE60
:109E0000CEAA3A5625642E25642E0D0A00000000C5
:109E1000D6D8D0C2C6F4B6AFA3ACC9FDBCB6B0E6C6
:109E2000B1BECEAAA3BA5625642E25642E0D0A0013
:109E30004A000020B0E6B1BECEAAD7EED0C22E0DA9
:109E40000A000000B2BBCAC7B1BEC9E8B1B8B8FCCD
:109E5000D0C20D0A000000000020FE490860FE4844
:109E60000188FE480078C01C0844FB490880FC4873
:109E70000088C01CFA490880F9480088401CF8494D
:109E80000880F7480088F74909788842FFF6ABAEAA
:109E900000BFF548007801287ED101F05FFBF34850
:109EA000007801285ED1F2480078E8BBF0480078DD
:109EB000401CEF490870EF480078401CED490870DD
:109EC00008460078FF282CD1EB480078401CEA496E
:109ED000087008460078FF281BD100200870E7486A
:109EE0000078401CE549087008460078FF280BD12F
:109EF00000200870E2480078401CE14908700846DC
:109F00000178882000F096FDDC480178862000F07A
:109F100091FD0020D7490870D7480178842000F0CF
:109F200089FDD448017800E002E0822000F082FD43
:109F30000020D4490870D4490870D44908650864E1
:109F40004FF48061D248FCF794FE4FF40061D04892
:109F5000FCF791FE0020CF490870CF490870CF4927
:109F6000087030E0C948006DCD49884211D3C94816
:109F7000007870B9C348007858B90120C949087001
:109F80000020C24908640865BE4908700120C34921
:109F90000870C248007800E080E0012803D1022068
:109FA000B949087002E00120B74908700020B049A3
:109FB00008704FF48061B648FCF75DFE4FF4006115
:109FC000B348FCF756FE01F0EDFAB7480078D8B96F
:109FD000B648007890B90120B54908600020B5491D
:109FE0000870B5490870B5490870B5490870B54999
:109FF0000870AE480078401CAC4908704FF480519E
:10A00000A348FCF736FE07E00020A84908704FF48B
:10A0100080519F48FCF72FFE01F0E6FAAA4800782D
:10A02000012812D1A948007820B9A8480078401C1E
:10A03000A64908704FF48051A548FCF71AFE4FF46A
:10A040000061A348FCF717FE07E04FF48051A048D9
:10A05000FCF711FE00209D49087001F0E7FA9D48C9
:10A060000078012812D19C48007820B99A480078DD
:10A07000401C994908704FF480519548FCF7FBFD4E
:10A080004FF400619248FCF7F4FD07E04FF40061E3
:10A090008F48FCF7F0FD00208F4908708F4800784A
:10A0A00001287DD100208E4908608E4908606E49E4
:10A0B00008708A4908708C484068012871D18A4824
:10A0C000C06801281FD18949087024208849087078
:10A0D0000120487006208870002000F057FC844959
:10A0E000C870022000F052FC81490871042000F081
:10A0F0004DFC7F494871062000F048FC7C4988717E
:10A100000020C87108727848C068022820D1012058
:10A11000764908702420764908700220487006208D
:10A120008870102000F032FC7149C870122000F0D5
:10A130002DFC6F490871142000F028FC6C4948710F
:10A14000162000F023FC6A4988710020C87108724B
:10A150006548C06803282AD101206449087024207A
:10A16000634908700320487006208870202000F0A2
:10A170000DFC5F49C870222000F008FC5C490871A2
:10A18000242000F003FC5A494871262000F0FEFB11
:10A1900057498871282000F0F9FB5549C87101E042
:10A1A000BFE3FDE12A2000F0F1FB514908724E485F
:10A1B000C068042820D101204C49087024204C4953
:10A1C00008700420487006208870302000F0DEFB04
:10A1D0004749C870322000F0D9FB45490871342046
:10A1E00000F0D4FB42494871362000F0CFFB4049D3
:10A1F00088710020C87108723B48C0683A48C0683E
:10A2000006281FD1012039490870242038490870D8
:10A21000062048708870502000F0B8FB3449C870A0
:10A22000512000F0B3FB32490871522000F0AEFB20
:10A230002F494871532000F0A9FB2D498871002057
:10A24000C87108722848C068072869D101202749C9
:10A2500008704FE04C000020480000204B00002018
:10A26000500000209F010020D70000202A0000207D
:10A27000CD0000207600002077000020790000202B
:10A280007A000020D5000020D300002058030020D1
:10A2900000080140010100208C000020D4000020B3
:10A2A000804F1200000100202B000020CE00002073
:10A2B00088000020D9000020DA000020D200002011
:10A2C000D1000020D80000202C000020CF0000206A
:10A2D000001001402D000020D000002017000020B9
:10A2E0000C00002010000020180300208600002031
:10A2F000000400202420FE49087007204870062032
:10A300008870602000F042FBF949C870622000F0BC
:10A310003DFBF7490871002048718871C8710872C7
:10A32000F448C06808284DD1F348FBF786FBF24992
:10A330000868FAF797FFF1490860EF494868FAF7AB
:10A3400091FFEF490860EC498868FAF78BFFED4907
:10A350000860ED48FBF7C6FFEB494878FAF78BFF3A
:10A36000EA490860E8490878FAF785FFE849086093
:10A370000120E84908702420DD4908700820487051
:10A3800006208870E1480068FAF77AFFD849C8705B
:10A39000DF480068FAF774FFD5490871D7480068AC
:10A3A000FAF787FFD2494871D5480068FAF781FF6C
:10A3B000CF498871D3480068FAF77BFFCC49C87150
:10A3C00000200872CB48C068092814D10120D14967
:10A3D00008702420C649087009204870062088703B
:10A3E0000020C870087148718871C87108724FF4F4
:10A3F000036100F0CFFFBF48C068102829D14FF497
:10A400007A7000F067FD4FF47A7000F063FD4FF44E
:10A410007A7000F05FFD4FF47A7000F05BFD4FF44E
:10A420007A7000F057FD4FF47A7000F053FD4FF44E
:10A430007A7000F04FFD4FF47A7000F04BFD4FF44E
:10A440007A7000F047FD4FF47A7000F043FDFDF79D
:10A45000AFFDA848C068132820D10120AD4908707D
:10A460002420A34908701320487006208870882093
:10A4700000F08CFA9E49C870862000F087FA9C494B
:10A480000871842000F082FA99494871822000F016
:10A490007DFA974988710020C87108729548C06894
:10A4A00012287DD124209249087012204870202063
:10A4B0008870002000F06AFA8D49C870022000F010
:10A4C00065FA8B490871042000F060FA88494871E8
:10A4D000062000F05BFA86498871102000F056FAD9
:10A4E0008349C871122000F051FA81490872142082
:10A4F00000F04CFA7E494872162000F047FA7C4979
:10A500008872202000F042FA7949C872222000F0B7
:10A510003DFA77490873242000F038FA74494873EB
:10A52000262000F033FA72498873282000F02EFAB2
:10A530006F49C8732A2000F029FA6D490874302049
:10A5400000F024FA6A494874322000F01FFA684982
:10A550008874342000F01AFA6549C874362000F077
:10A5600015FA63490875402000F010FA60494875F3
:10A57000422000F00BFA5E498875442000F006FA8C
:10A580005B49C875462000F001FA59490876502009
:10A5900000F0FCF956494876512000F0F7F900E048
:10A5A00079E053498876522000F0F0F95049C87696
:10A5B000532000F0EBF94E490877602000F0E6F9EF
:10A5C0004B494877622000F0E1F9494988774A48C9
:10A5D000FBF733FA48490868FAF744FE4749086030
:10A5E00045494868FAF73EFE45490860424988688F
:10A5F000FAF738FE434908604348FBF773FE4249C7
:10A600004878FAF738FE414908603F490878FAF778
:10A6100032FE3F4908603D480068FAF731FE344990
:10A62000C8773B480068FAF72BFE314981F82000D3
:10A6300032480068FAF73DFE2D4981F82100304884
:10A640000068FAF736FE2A4981F822002D48006892
:10A65000FAF72FFE264981F8230000202E490870C2
:10A6600000BF07E02249095C2B4A127811442A4AAC
:10A670001170401C2428F5DB274800781C4981F81C
:10A680002400002405E01A48015D2448FEF7EFF994
:10A69000641C252CF7DB1748406802287DD115483B
:10A6A000C06801281DD11E49087012480069C1B256
:10A6B000002000F0BFF90F484069C1B2022000F04D
:10A6C000B9F90C488069C1B2042000F0B3F9094817
:10A6D000C069C1B2062000F0ADF90121782000F078
:10A6E000A9F90448C068022839D101200C4919E0B1
:10A6F0000004002018030020E40300209C00002038
:10A70000A0000020A400002084000020BC00002045
:10A71000C000002086000020BA0000200044004055
:10A720008D000020087080480069C1B2102000F040
:10A7300081F97D484069C1B2122000F07BF97A4866
:10A740008069C1B2142000F075F97748C069C1B2C0
:10A75000162000F06FF90121722000F06BF97248A9
:10A76000C06803281FD10120704908706E48006935
:10A77000C1B2202000F05EF96B484069C1B22220CE
:10A7800000F058F968488069C1B2242000F052F9FD
:10A790006548C069C1B2262000E066E000F04AF9D1
:10A7A0000120634908706048C068042819D101205D
:10A7B0005E4908705C480069C1B2282000F03AF98F
:10A7C00059484069C1B22A2000F034F9584800784D
:10A7D000012806D10020564908700121742000F09C
:10A7E00029F95148C068082819D101204F4908703B
:10A7F0004D480069C1B2602000F01CF94A48406928
:10A80000C1B2622000F016F947484069464909691B
:10A8100040EA012047490880012047490870424822
:10A82000C06809281AD10120404908703E480069D3
:10A83000C1B2822000F0FEF83B484069C1B28420DA
:10A8400000F0F8F838488069C1B2862000F0F2F8CC
:10A850003548C069C1B2882000F0ECF83248C068C1
:10A86000102802D1012031490870344800780128AD
:10A8700021D10020314908703149087000BF07E03C
:10A880003049095C2E4A127811442D4A1170401C3F
:10A890000928F5DB2A4800782A494872002408E094
:10A8A0002848015D2848FEF7E2F8642000F030FBFC
:10A8B000641C0A2CF4DB1D480078012831D10020EB
:10A8C0001F4908701949087024201E49087016484D
:10A8D000806810304870062088700020C8700871A9
:10A8E00048718871C871087200BF07E01549095C9A
:10A8F000134A12781144124A1170401C0928F5DBE2
:10A900000F4800780F494872002408E00D48015DA7
:10A910000D48FEF7ACF8642000F0FAFA641C0A2C2B
:10A92000F4DB00BF70BD0000180300208D00002084
:10A9300095000020320100209900002086000020B0
:10A94000BA000020000400200044004008B50420A4
:10A95000ADF8000003208DF8020014208DF80300EC
:10A9600069460848FCF7A8F80820ADF80000032065
:10A970008DF8020014208DF8030069460248FCF7A8
:10A980009BF808BD00140140000C014070B504465E
:10A99000E6B272B600F01EF8FE2101EAE41141F0C1
:10A9A000A00002F031FD00F0DFF9304602F02CFD8E
:10A9B00000F0DAF900F00EF8A12002F025FD00F019
:10A9C000D3F900F0ABFF054600F01EF862B628464A
:10A9D00070BD000010B504210948FCF74CF90821AE
:10A9E0000848FCF748F9012000F092FA04210448D5
:10A9F000FCF73FF908210348FCF73BF910BD0000C4
:10AA000000140140000C014010B504210748FCF778
:10AA100030F908210648FCF72EF9012000F078FAF9
:10AA200004210248FCF727F910BD00000014014082
:10AA3000000C014070B504460D4672B6FFF7CAFF20
:10AA4000FE2101EAE41141F0A00002F0DDFC00F07B
:10AA50008BF92046E11704EB11610912A4EB0121E7
:10AA6000CEB2304602F0D0FC00F07EF9284602F06B
:10AA7000CBFC00F079F9FFF7C7FF62B6052000F0C4
:10AA800029FA70BD10B50024002000F099F80446A2
:10AA900034B1022C05D0032C07D0042C1BD10DE0BF
:10AAA0001AE00EA0FEF750F816E0012010490870D9
:10AAB00002F030F90FA0FEF747F80DE015A0FEF701
:10AAC00043F800201949087019A0FEF73DF800204E
:10AAD0000749087000E000BF00BF10BD204950B515
