:020000040800F2
:105000006819002045510008C97B0008E16D0008BF
:10501000C57B0008D96300083B8B00080000000036
:10502000000000000000000000000000897F000870
:10503000CD64000800000000517C0008A580000835
:105040005F5100085F5100085F5100085F51000880
:105050005F5100085F510008D16400083165000805
:105060005F5100085F5100085F5100085F51000860
:105070005F5100085F5100085F5100085F51000850
:105080005F5100085F5100085F5100085F51000840
:105090005F5100085F5100085F5100086565000816
:1050A0005F5100085F5100085F5100085F51000820
:1050B0009D81000851820008258300085F51000887
:1050C0005F5100085F5100085F5100085F51000800
:1050D0005F5100085F510008698700085F510008B0
:1050E000056500085F5100085F5100085F51000826
:1050F0005F5100085F5100085F5100085F510008D0
:105100005F5100085F5100085F5100085F510008BF
:105110005F5100085F5100085F5100085F510008AF
:105120005F5100085F5100085F5100085F5100089F
:10513000DFF80CD000F0D6FB0048004711B800089B
:10514000681900200648804706480047FEE7FEE74A
:10515000FEE7FEE7FEE7FEE7FEE7FEE7FEE7FEE727
:10516000A98000083151000840EA01039B0703D0E1
:1051700009E008C9121F08C0042AFAD203E011F896
:10518000013B00F8013B521EF9D27047D2B201E058
:1051900000F8012B491EFBD270470022F6E710B53C
:1051A00013460A4604461946FFF7F0FF204610BD95
:1051B00030B505462A460B4612F8010B13F8014B91
:1051C00008B1A042F8D01CB1002802D06D1CF1E754
:1051D000284630BDCAB2401E10F8011F8A4202D0D4
:1051E0000029F9D100207047421C10F8011B00294A
:1051F000FBD1801A704730B504460020034600E01A
:105200005B1C934203D2E05CCD5C401BF8D030BD08
:1052100010B5044600E0401C0378002BFBD100E0F1
:10522000401C521E04D311F8013B0370002BF7D130
:1052300000210170204610BD034611F8012B00F833
:10524000012B002AF9D11846704770B5064603F0C5
:1052500001FD046805460A220021304600F02FF9BE
:105260002C6070BD2DE9FE4F81EA030404F0004478
:1052700021F0004100944FF0000B23F0004350EA6E
:1052800001045ED052EA03045BD0C3F30A54C1F3B5
:105290000A552C44A4F2F3340194A0FB0254C1F348
:1052A000130141F48011C3F3130343F4801301FB92
:1052B000024400FB034E840A970A44EA815447EAF9
:1052C0008357A4FB076802958D0A05FB07854FEA03
:1052D000932C04FB0C542705029D4FEA065847EA1D
:1052E0001637B5EB08056EEB070C870E920E47EAF2
:1052F000811742EA8312A7FB0201B6EB0B0164EBB4
:1053000000042B0D43EA0C335E1844EB1C50DA46C4
:105310005146E7FB0201C5F313044FEA0B3343EA9E
:1053200014534FEA0432019C43EA0603A4F10C042F
:105330000294009CCDE900B400F03FF903B0BDE851
:10534000F08F00200146F9E796230022114600F075
:10535000F7B80EB5C10F80EAE0700844CA07002113
:1053600040F233438DE80E000A460B4600F025F963
:1053700003B000BD00F0004220F00040C10DC0F3BA
:10538000160040F400007F2901DA002070479629BA
:1053900003DCC1F19601C84001E096398840002A3B
:1053A000F4D04042704720F00040C10DC0F3160019
:1053B00040F400007F2901DA00207047962903DCC1
:1053C000C1F19601C840704796398840704701F096
:1053D000004330B421F0004150EA010206D00A0D2A
:1053E000A2F56072C1F31301002A02DC30BC002078
:1053F0007047440F44EAC104C100E01830BC00EB20
:10540000C25000F094B80000002801DBC0F1004059
:10541000002901DBC1F1004181427047002801DB16
:10542000C0F10040002901DBC1F100418842704712
:1054300030B50B46014600202022012409E021FA64
:1054400002F59D4205D303FA02F5491B04FA02F561
:105450002844151EA2F10102F1DC30BD2DE9F05FF8
:105460000546002092469B468846064681464024D3
:105470001BE0284641464746224600F054FA534670
:105480005A46C01A914110D311461846224600F0E0
:105490003BFA2D1A67EB01084F46224601200021F6
:1054A00000F032FA17EB00094E41201EA4F101046E
:1054B000DFDC484631462A464346BDE8F09F2DE9E9
:1054C000F04791460F4680460446002614F8015BDB
:1054D0002DB100F04BFA0068405DC007F6D12B2DCE
:1054E00002D02D2D18D0641E4A463946204600F0C1
:1054F00041FA27B13968A14201D1C7F8008071058E
:105500004FF002040BD54042002803DD03F0A2FB5C
:105510000460A007BDE8F08746F48066E4E7002851
:10552000F8DA03F097FB04606FF00040F2E700291F
:10553000A8BF7047401C490008BF20F00100704719
:1055400010B4B0FA80FC00FA0CF050EA010404BF79
:1055500010BC704749B1CCF1200421FA04F411FACF
:105560000CF118BF012121430843A3EB0C01CB1D13
:105570004FEA00614FEA102042BF002010BC704784
:1055800000EBC35010440029A4BF10BC7047401C5E
:10559000490008BF20F0010010BC704710B5141E70
:1055A00073F1000408DA401C41F1000192185B41DC
:1055B0001A4301D120F0010010BD2DE9F04D9246B3
:1055C0009B4611B1B1FA81F202E0B0FA80F22032CA
:1055D000904600F099F904460F4640EA0A0041EA75
:1055E0000B0153465A46084313D0114653EA0100B3
:1055F00019D0C8F14002504600F095F905460E4614
:1056000050465946424600F07FF9084305D0012034
:1056100004E020463946BDE8F08D0020054346EA07
:10562000E0762C4337430A986305E40AA0EB0800B0
:105630000022FD0A44EA47540A3002D50020014600
:10564000E9E7010510196941DDE9084500196941DB
:10565000BDE8F04DA2E72DE9FE4F804681EA030048
:10566000C00F0C46009021F0004123F00045B8EB3C
:105670000200A94105D24046214690461C460B46F1
:10568000024623F00040104347D0270DC7F30A001D
:10569000C3F30A510290401A019040286BDAC3F319
:1056A000130040F4801B0098924620B10023D2EBF7
:1056B000030A63EB0B0B01985946C0F140025046B8
:1056C00000F022F906460D4650465946019A00F070
:1056D0003AF910EB08006141002487EA115284EA8C
:1056E000E7731A4340D0009A62B3019A012A4FEA45
:1056F000075215DC001B61EB02014FF0004202EA89
:105700000752CDE90042001C41F5801132462B467C
:10571000FFF753FF03B0BDE8F08F40462146F9E79D
:10572000001B61EB0201001C41F5801300185B4176
:105730002018A2F5001747EB030140EAD570B6190F
:105740006D4111E06D084FEA360645EAC0754FEA33
:105750000752001B61EB0201001C41F58011490852
:105760004FEA30000019514132462B4603B0BDE8E4
:10577000F04FFFF713BF0098012240000023D0EB49
:10578000020263EBE073009821464FEAE074B8EB45
:10579000000061EB0401E9E783F000435BE781F07F
:1057A000004158E72DE9F04D81EA030404F0004B75
:1057B00021F0004514464FF0000A23F0004150EA62
:1057C000050220D054EA01021DD0C5F30A57024653
:1057D000C5F31303C1F31300C1F30A5640F4801557
:1057E00043F48013A7EB0608101BD64608F2FD38D9
:1057F00073EB050002D308F1010801E092185B4148
:10580000B8F1000F03DA00200146BDE8F08D00205A
:105810004FF48011064684460EE0171B73EB050714
:1058200005D3121B63EB050306434CEA010C490840
:105830004FEA300092185B4150EA0107EDD152EA7D
:10584000030012D082EA040083EA0501084305D070
:10585000101BAB4106D20122002306E000224FF0CC
:10586000004302E06FF0010253101AEB06004CEB0C
:10587000085110EB0A0041EB0B01BDE8F04DFFF7BA
:105880008DBEC1F30A52C1F3130140F2FF3341F45C
:1058900080119A4202DA00200146704740F23343F9
:1058A0009A42A2F2334202DC524200F03CB800F0CD
:1058B0002BB8000030B5041E71F1000404DB4FF07A
:1058C0000044404264EB0101141E73F1000405DB47
:1058D0001C464FF00043524263EB0403994208BF59
:1058E000904230BD064C074D06E0E06840F00103F1
:1058F00094E8070098471034AC42F6D3FFF71CFC3D
:1059000028D6000848D60008202A04DB203A00FAEE
:1059100002F1002070479140C2F1200320FA03F306
:10592000194390407047202A04DB203A21FA02F004
:105930000021704721FA02F3D040C2F120029140C9
:10594000084319467047202A06DBCB17203A41FA54
:1059500002F043EAE07306E041FA02F3D040C2F1FC
:1059600020029140084319467047000000487047E4
:1059700024D500082DE9F05F8246007800271546FF
:105980008B460AF10104B946302801D09DB113E0DD
:1059900014F8010B0127782803D0582801D045B10D
:1059A0000AE00DB1102D07D10027102514F8010BC6
:1059B00002E0082500E00A250026B0460EE005FBBF
:1059C000080005FB06F1012701EB10461FFA80F8DD
:1059D000B6F5803F00D3B94614F8010B294600F014
:1059E00018F80028EBDABBF1000F05D00FB1641EE8
:1059F00000E05446CBF80040B9F1000F06D003F0A8
:105A000029F902210160C81EBDE8F09F48EA06405E
:105A1000FAE73A2800D2303820F02002412A01D398
:105A2000A2F13700884201D34FF0FF30704770B5C4
:105A30008C1810F8015B15F0070301D110F8013B39
:105A40002A1106D110F8012B03E010F8016B01F8C0
:105A5000016B5B1EF9D12B0705D40023521E0DD418
:105A600001F8013BFAE710F8013BCB1A921C03E066
:105A700013F8015B01F8015B521EF9D5A142D8D39E
:105A8000002070BD2DE9FC478146322000F0C4F8AB
:105A90008DF80000332000F0BFF88DF801000120E0
:105AA00005F0C6FA342000F0B7F88DF80200352072
:105AB00000F0B2F88DF80300012005F0B9FA3620A5
:105AC00000F0AAF88DF80400372000F0A5F88DF852
:105AD0000500012005F0ACFA9DF800009DF80110CA
:105AE00000EB012004B2002C01DA604204B220462F
:105AF000FFF72FFC07464FF033321E4BFFF7B2FB88
:105B00000546FFF764FCC9F800009DF802009DF807
:105B1000031000EB012004B2002C01DA604204B251
:105B20002046FFF716FC05464FF03332114BFFF7C6
:105B300099FB0746FFF74BFCC9F804009DF80400E9
:105B40009DF8051000EB012004B2002C01DA604240
:105B500004B22046FFF7FDFB05464FF03332054BFC
:105B6000FFF780FB0746FFF732FCC9F80800BDE8E5
:105B7000FC87000033330F4010B502F0ABF9002171
:105B80001E2000F073F800211F2000F06FF80021A4
:105B9000202000F06BF80021212000F067F80021A0
:105BA000222000F063F80021232000F05FF801219B
:105BB000242000F05BF80121252000F057F82B216C
:105BC000262000F053F80021272000F04FF809218B
:105BD000282000F04BF8FF21292000F047F8802111
:105BE0002A2000F043F80F212C2000F03FF8082174
:105BF0002D2000F03BF880212E2000F037F8002106
:105C00002F2000F033F80B21312000F02FF8002175
:105C1000382000F02BF810BD10B5044610211148B3
:105C200001F0A3F844F08000002242EA00210E486F
:105C300002F030F900BF02210B4802F01FF90028E2
:105C4000F9D000BF0121084802F018F90028F9D066
:105C50001021044801F08BF8034802F018F9C0B293
:105C600010BD0000001001400030014070B5044636
:105C70000D4610210E4801F078F845EA04210D4840
:105C800002F008F900BF02210A4802F0F7F80028E4
:105C9000F9D000BF0121074802F0F0F80028F9D040
:105CA0001021034801F063F8024802F0F0F870BDDB
:105CB000001001400030014030B587B039483AA1AA
:105CC00002683A4802F0B2FF39480021029103917C
:105CD000CDE9041000913C23344A019135A138A04C
:105CE00001F0F0F9002858D13148808882B230485C
:105CF0000168042006F076F94FF4FA6005F098F98F
:105D00000CE0042005F039FC044622462E4904200C
:105D100005F0E6FF012005F08BF903E02A48007842
:105D20002028EED100BF28480078202802D1012089
:105D300026490870244D002D2BD0284601F0AEFED8
:105D4000022826D1284601F092FD06281CD2DFE861
:105D500000F003070B0F13171DA002F057FF17E009
:105D600020A002F053FF13E025A002F04FFF0FE048
:105D70002CA002F04BFF0BE032A002F047FF07E03F
:105D800039A002F043FF03E042A002F03FFF00BF52
:105D900000BF074801F0FEF802E045A002F036FF20
:105DA00007B030BD58000020256400009C01002091
:105DB000280A00206869744067647A79000000004E
:105DC00067647A7931323300680900205E00002070
:105DD000546970733A09C1ACBDD3B3C9B9A60D0AF1
:105DE000000000005741524E3A09C1ACBDD3CAA7CA
:105DF000B0DCA3BAD0ADD2E9B4EDCEF30D0A000009
:105E00005741524E3A09C1ACBDD3CAA7B0DCA3BAC0
:105E1000B7C7B7A8B5C4636C69656E7469640D0AC9
:105E2000000000005741524E3A09C1ACBDD3CAA789
:105E3000B0DCA3BAB7FECEF1C6F7CAA7B0DC0D0A34
:105E4000000000005741524E3A09C1ACBDD3CAA769
:105E5000B0DCA3BAD3C3BBA7C3FBBBF2C3DCC2EBAA
:105E6000B4EDCEF30D0A00005741524E3A09C1ACD1
:105E7000BDD3CAA7B0DCA3BAB7C7B7A8C1B4BDD356
:105E800028B1C8C8E7746F6B656EB7C7B7A8290D8E
:105E90000A0000004552523A09C1ACBDD3CAA7B0AE
:105EA000DCA3BACEB4D6AAB4EDCEF30D0A0000003E
:105EB0005741524E3A094D5154545F5061636B65DE
:105EC00074436F6E6E656374204661696C65640D22
:105ED0000A0000007FB504460D4616460F48012112
:105EE000002200923346CDE9012103902A46214643
:105EF0000A2001F035FA80B90848808882B2074844
:105F00000168042006F06EF805A002F07FFE002074
:105F100006490870014801F03DF87FBDA404002047
:105F2000B7A2CBCDB3C9B9A60D0A0000640000200A
:105F30002DE9F0438BB007460020079008900990A8
:105F40000A900690059000260490002500248046C3
:105F5000384601F0A3FD0646F01E0D2873D2DFE897
:105F600000F0266A738CA7C7AFC7BBC7C7C70700B7
:105F700006AA05A9384601F035FC0546B5B974A056
:105F8000DDE9051202F042FE07AADDE9050101F094
:105F900053F858B974A002F039FE089882B2042070
:105FA000079906F01FF807A800F0F4FFA3E0744873
:105FB00004AB06AA05A90090384601F067FC054627
:105FC000002D37D10698FFF70FF981464A466D48F4
:105FD0000699FFF7C9F89DF81000012802D00228A1
:105FE00026D112E007A96648008801F054FA58B992
:105FF00065A002F00BFE089882B20420079905F014
:10600000F1FF07A800F0C6FF13E007A95C4800886D
:1060100001F089FA58B962A002F0F8FD089882B23E
:106020000420079905F0DEFF07A800F0B3FF00E0A9
:1060300000BF00BF5FE0384601F0F0FC10B95EA081
:1060400002F0E4FD57E053E0384601F005FD98B951
:1060500061A002F0DBFD07A90A2001F088FA58B917
:1060600063A002F0D3FD089882B20420079905F0DE
:10607000B9FF07A800F08EFF3DE04148018838468F
:1060800001F0F9FC98B960A002F0C0FD07A90A2050
:1060900001F025FA58B962A002F0B8FD089882B262
:1060A0000420079905F09EFF07A800F073FF22E087
:1060B000384601F0C2FC10B960A002F0A7FD1AE05A
:1060C000384601F025FD18B962A002F09FFD02E0FC
:1060D00067A002F09BFD0EE0384601F033FD18B9D1
:1060E0006AA002F093FD02E06FA002F08FFD02E0D3
:1060F0004FF0FF3500BF00BF681C10B90BB0BDE802
:10610000F0837D210698FFF765F80446A4B1681C6A
:1061100090B1641C06E014F8012B404608F1010818
:1061200001A90A542078302802DB20783928F2DDD2
:1061300001A8FFF78AF880460F2E01D0032E05D163
:10614000059805F0C1F9069805F0BEF900BFD5E73E
:10615000636D6469643A2025732C207265713A205E
:1061600025730D0A00000000546970733A095365E5
:106170006E6420436D64526573700D0A0000000068
:10618000D0020020E8090020546970733A09536571
:106190006E64205075626C69736841636B0D0A0010
:1061A000546970733A0953656E64205075626C6966
:1061B00073685265630D0A00546970733A094D5152
:1061C0005454205075626C6973682053656E642066
:1061D0004F4B0D0A00000000546970733A09526574
:1061E00076205075626C6973685265630D0A000011
:1061F000546970733A0953656E64205075626C6916
:10620000736852656C0D0A00546970733A095265DF
:1062100076205075626C69736852656C0D0A0000D7
:10622000546970733A0953656E64205075626C69E5
:106230007368436F6D700D0A00000000546970733D
:106240003A09526576205075626C697368436F6DC8
:10625000700D0A00546970733A094D51545420531B
:106260007562736372696265204F4B0D0A0000000E
:10627000546970733A094D515454205375627363D5
:1062800072696265204572720D0A0000546970736C
:106290003A094D51545420556E53756273637269B7
:1062A0006265204F4B0D0A00546970733A094D51D5
:1062B000545420556E53756273637269626520454C
:1062C00072720D0A00000000F0B585B004460D465C
:1062D00000260020019002900390049006E054F8FC
:1062E000261021A002F092FC701CC6B2AE42F6DB72
:1062F00001A82B46224600210090142001F05BF9F2
:1063000040B9029882B20420019905F06BFE01A801
:1063100000F040FE642004F08BFE042005F02DF90F
:1063200007463A461649042005F0DAFC144800797D
:1063300030B1012808D002280AD0802810D10BE003
:1063400010A002F063FC0BE014A002F05FFC07E079
:1063500018A002F05BFC03E01CA002F057FC00BF99
:1063600000BF05B0F0BD00005375627363726962CF
:106370006520546F7069633A2025730D0A00000090
:1063800068090020B6A9D4C4C8B7C8CFA3AC2051AF
:106390006F53B5C8BCB6300D0A000000B6A9D4C40E
:1063A000C8B7C8CFA3AC20516F53B5C8BCB6310D28
:1063B0000A000000B6A9D4C4C8B7C8CFA3AC205106
:1063C0006F53B5C8BCB632200D0A0000B6A9D4C4BC
:1063D000CAA7B0DC200D0A0000BFFEE72DE9F0419E
:1063E00004464FF40071224800F0BFFC142004F072
:1063F0001FFE4FF400711E4800F0B9FC282004F085
:1064000035FE4FF400711A4800F0A6FC68BB00BFCF
:106410004FF40071164800F09FFC0028F8D000BF30
:106420004FF40071124800F097FC0028F8D100F0FA
:1064300021F8207000F01EF8064600F01BF860708E
:1064400000F018F8074600F015F805464FF4007103
:10645000074800F08CFC20786178084430443844C8
:10646000A84202D10120BDE8F0810020FBE7000036
:106470000010014070B50024002521E000BF4FF45A
:106480000071114800F068FC0028F8D0212004F0C9
:10649000EDFD4FF400710C4800F05EFC60B101208E
:1064A00000EB4400C4B200BF4FF40071064800F096
:1064B00053FC0028F8D101E06006040E681CC5B248
:1064C000082DDBDB204670BD001001407047000046
:1064D00010B5012000F00CF960B1012000F0FAF8CD
:1064E0000548006800F0010004490860084600788B
:1064F0000349087010BD0000080801401400002086
:10650000E800002010B54FF4806000F0F1F850B1C1
:106510004FF4806000F0DEF84FF48061024800F034
:106520001BFC0249087010BD000801402200002039
:1065300010B5022000F0DCF860B1022000F0CAF8CB
:106540000548006800F00200044908600846007829
:106550000349087010BD0000080801401000002029
:10656000EA00002010B54FF4007000F0C1F80028D8
:1065700047D04FF4007000F0ADF84FF40071484878
:1065800000F0EAFB474908704748007802280BD121
:106590004648007840B908460078012804D14449AB
:1065A0000870444908700AE04048007838B13D4816
:1065B000007820B901203E4908703E4908703C48E7
:1065C000007802281AD137480078B8B93A480068EC
:1065D000401E394908600846006818B90846006836
:1065E000401E08600220304908703348016833A01B
:1065F00002F00CFB00203649087002E0012034490B
:106600000870402000F074F8002848D0402000F0C6
:1066100061F84021224800F09FFB2449087022487D
:10662000007802280CD11F48007848B90846007845
:10663000012805D102201E4908701E4908700AE091
:106640001A48007838B91748007820B10220184954
:106650000870184908701648007801281CD11348A2
:106660000078C8B902201049087013480068401C1F
:10667000114908600846006818B908460068401CBF
:1066800008600D4801680DA002F0C0FA0020094919
:1066900008700F49087002E001200D49087010BD14
:1066A000000C0140000000206000002002000020DB
:1066B00001000020200000207C000020B5E7CCDD98
:1066C000B5BDCEBBA3AC2564C2A50D0A0000000079
:1066D000D600002001490860704700001404014002
:1066E00010B500F063F800F099F800F0CFF810BD95
:1066F000014600200022074B1B6803EA0102054BFC
:1067000014331B680B4013B10AB1012000E00020D4
:106710007047000000040140002123498279002ACB
:106720003AD00A46126803689A430B461A600A1D5B
:10673000126803689A430B1D1A60027911440A68B3
:1067400003681A430A60184A0832126803689A43B9
:10675000154B08331A601A1D126803689A43124BCE
:106760000C331A604279102A0ED11A1F126803687E
:106770001A430D4B08331A601A1D126803681A4336
:10678000094B0C331A600DE00749427911440A683D
:1067900003681A430A6005E0027911440A68036835
:1067A0009A430A6070470000000401401FB50121B0
:1067B000052001F09DFA4FF4E06001F03FFA062059
:1067C0008DF80C0000208DF80D0006208DF80E00CD
:1067D00001208DF80F0003A801F0F8F90120ADF8B1
:1067E000080028208DF80B0002A90B4800F0E0F902
:1067F0000021084600F0BCF90120009000208DF82F
:10680000040010208DF8050001208DF80600684670
:10681000FFF782FF1FBD0000000801401FB50121E6
:10682000052001F065FA4FF4E06001F007FA072057
:106830008DF80C0000208DF80D0007208DF80E005B
:1068400001208DF80F0003A801F0C0F90220ADF877
:10685000080028208DF80B0002A90B4800F0A8F9C9
:106860000121002000F084F90220009000208DF822
:10687000040010208DF8050001208DF80600684600
:10688000FFF74AFF1FBD0000000801401FB50121AE
:10689000092001F02DFA4FF4E06001F0CFF9172044
:1068A0008DF80C0000208DF80D0003208DF80E00EF
:1068B00001208DF80F0003A801F088F94020ADF801
:1068C000080028208DF80B0002A91A4800F070F982
:1068D0004FF40070ADF8080028208DF80B0002A9D5
:1068E000144800F065F90621012000F041F940202C
:1068F000009000208DF8040010208DF80500012084
:106900008DF806006846FFF707FF0921012000F017
:106910002FF94FF40070009000208DF80400102033
:106920008DF8050001208DF806006846FFF7F4FE9B
:106930001FBD0000000C014008B501213D2001F001
:10694000D7F90121864800F0BFF94020ADF80000DA
:1069500001208DF8020048208DF803006946814827
:1069600000F026F98020ADF8000001208DF802002B
:1069700010208DF8030069467A4800F019F94FF4A9
:106980000070ADF8000003208DF8020014208DF88F
:1069900003006946734800F00BF94FF40071714829
:1069A00000F0E5F90120ADF800008DF8020010209C
:1069B0008DF8030069466C4800F0FAF801216A4836
:1069C00000F0D5F92020ADF8000001208DF802007C
:1069D00010208DF803006946624800F0E9F8202194
:1069E000604800F0C4F94FF48060ADF80000012069
:1069F0008DF8020010208DF8030069465A4800F017
:106A0000D7F84FF48061584800F0B1F90220ADF892
:106A1000000001208DF8020010208DF80300694667
:106A2000514800F0C5F802214F4800F0A0F94FF49A
:106A30008050ADF8000001208DF8020010208DF884
:106A400003006946494800F0B3F84FF480514748C5
:106A500000F08DF94FF40060ADF8000001208DF8D2
:106A6000020010208DF8030069463F4800F0A0F8AE
:106A70004FF400613C4800F07AF94FF48060ADF8C3
:106A8000000001208DF8020010208DF803006946F7
:106A9000364800F08DF84FF48061344800F067F913
:106AA0004FF40060ADF8000001208DF802001020C6
:106AB0008DF8030069462D4800F07AF84FF4006124
:106AC0002A4800F054F94FF48070ADF8000001201E
:106AD0008DF8020010208DF803006946234800F06D
:106AE00067F84FF48071214800F041F94FF40070CD
:106AF000ADF8000001208DF8020010208DF8030091
:106B000069461A4800F054F84FF40071174800F035
:106B10002EF94FF48050ADF8000001208DF80200EE
:106B200010208DF8030069460E4800F041F84FF43C
:106B300080510C4800F01BF94FF40060ADF80000E4
:106B400001208DF8020010208DF8030069460548E9
:106B500000F02EF84FF40061024800F008F908BD7B
:106B60000002300000100140000C0140000801400C
:106B700030B500228B071C0F0F2303FA04F20B4BD6
:106B80008C1053F824309343084C8D1044F8253072
:106B900023468C1053F824308C07240F00FA04F499
:106BA0002343024C8D1044F8253030BD08000140CD
:106BB0002DE9F04102460025002600200023002494
:106BC000002791F803C00CF00F0591F803C00CF0FA
:106BD000100CBCF1000F03D091F802C04CEA05057F
:106BE00091F800C0BCF1000F31D0146800202BE0F8
:106BF0004FF0010C0CFA00F3B1F800C00CEA0306E8
:106C00009E4220D183004FF00F0C0CFA03F7BC43D7
:106C100005FA03FC4CEA040491F803C0BCF1280F08
:106C200006D14FF0010C0CFA00FCC2F814C00AE0C7
:106C300091F803C0BCF1480F05D14FF0010C0CFADC
:106C400000FCC2F810C0401C0828D1D31460B1F871
:106C500000C0BCF1FF0F34DD546800202EE000F1CD
:106C6000080C4FF0010808FA0CF3B1F800C00CEA68
:106C700003069E4221D183004FF00F0C0CFA03F75C
:106C8000BC4305FA03FC4CEA040491F803C0BCF1D0
:106C9000280F05D100F1080C08FA0CF8C2F814808E
:106CA00091F803C0BCF1480F07D100F1080C4FF078
:106CB000010808FA0CF8C2F81080401C0828CED34E
:106CC0005460BDE8F0810000F0B50A4600230024BE
:106CD0000021002500F00046B6F1004F02D11D4E04
:106CE000F16901E01B4E7168C0F3034583B200F403
:106CF0004016B6F5401F08D121F07061154E766838
:106D000026F07066134F7E6012E000F48016B6F530
:106D1000801F06D1032606FA05F4A14341F07061F5
:106D200006E0460D360103FA06F6B14341F0706104
:106D300022B1460D360103FA06F6314300F0004653
:106D4000B6F1004F02D1034EF16101E0014E7160D6
:106D5000F0BD0000000001400246002093680B4097
:106D60000BB1012000E000207047416170470161D4
:106D700070474FF6FF710180022181700421C170BC
:106D80007047000010B50F4800680F4908600D48B3
:106D9000001D006848600B4808300068886008469D
:106DA00000684008496800EB91000749896800EBDA
:106DB000D100064908600846016805A001F026FFD9
:106DC00010BD0000E8F7FF1F8C04002058000020D1
:106DD000CEA8D2BB6964A3BA25640D0A00000000E6
:106DE00000BFFEE710B5002001F0AAFE10BD10B5EF
:106DF000012001F0A5FE10BD70B504460025FFF787
:106E0000F1FFC4F3074000F010F8C4F3072000F0CE
:106E10000CF804F0F80000F008F8002000F005F885
:106E20000546FFF7E4FF284670BD10B5044620462E
:106E300000F0FCFF10BD70B504460D46FFF7D2FF11
:106E4000C4F30740FFF7F1FFC4F30720FFF7EDFF9E
:106E500004F0F801091DC8B2FFF7E7FF2846FFF765
:106E6000E4FFFFF7C4FF70BD4CF6CC400149086059
:106E7000704700000030004010B500F013F810BD5E
:106E800070B505460C4645F2555000F01FF82846EF
:106E900000F010F8204600F013F800F003F8FFF7B8
:106EA000E3FF70BD4AF6AA20014908607047000060
:106EB0000030004001494860704700000030004049
:106EC00001498860704700000030004001490860B7
:106ED000704700000030004010B54FF47A7004F0A5
:106EE000A7F840F6A6610420FFF7CAFF01F02CF9CD
:106EF00001F06EF901F082F901F0D4F901F0E8F93E
:106F000001F062FAFFF718FD04F02AFC01F01AFD07
:106F100001F028FE03F0C8FDFEF72EFEFFF7E0FBB0
:106F200001F0DAFB00F096FEFFF72CFF00F06AFF9D
:106F300006F0C2F906F01AF805F07CFE04F09CFD9C
:106F40000B490C4806F01CF90BA001F05FFE012173
:106F5000084600F0ADFE0121880701F050FA01213A
:106F6000042000F0A5FE0121094801F048FA10BDF7
:106F70004D01002045010020573535303020496E45
:106F8000697420436F6D706C657465210D0A000093
:106F90000008004010B50446207B012802D120687B
:106FA00004F092FA002020606060A060207310BDA1
:106FB0000246002301230DE002F07F000870D20991
:106FC0002AB1087840F080000870491C01E018469A
:106FD00070475B1C042BEFDD4FF0FF30F8E770B516
:106FE00004460E460025206898B9012020733046DB
:106FF00004F018FC20602068E0B100206060A6600A
:1070000003E00020216848556D1CA068A842F8D80C
:1070100010E00220207303E00020216848556D1C19
:10702000A068A842F8D800206060A068B04201D2F1
:107030000020206070BD00002DE9FF5F07460D466F
:1070400090463846FEF7D0F886B22846FEF7CCF8D0
:107050001FFA80FA4FF00009B01D04F0E3FB04466C
:107060001CB9012004B0BDE8F09FB11D2046FEF719
:1070700094F812A0016821608088A08032463946C9
:107080002046FEF7C5F82846FEF7AEF883460120F5
:10709000002100915B462A46CDE902080191214674
:1070A0000A2000F05DF910B94FF0000901E04FF03F
:1070B0000109204604F008FA4846D3E724637273B6
:1070C000702F00002DE9FF4F83B082468B4691461A
:1070D000159C0025002002900F2701904846FEF7DE
:1070E00083F88046B9F1000F03D1012007B0BDE855
:1070F000F08F08F10200384487B2109808B145F0CB
:107100000205129878B145F004051298FEF76CF864
:10711000C0B202901398FEF767F801460298001D6E
:107120000844384487B2119820B1012804D00228BD
:1071300008D104E000BF07E045F00C0504E045F08D
:10714000140501E00220D1E700BF149808B145F012
:107150002405BAF1000F02D0BBF1000F01D10320CA
:10716000C4E745F0C0055046FEF73EF806465846CF
:10717000FEF73AF83044001D384487B239462046BD
:10718000FFF72DFF206808B90420AFE739462068D3
:10719000FEF703F810216268501C6060206881547B
:1071A000D4E90023D118781FFFF702FF019001985E
:1071B000002804DA2046FFF7EDFE052096E7616817
:1071C00001980844606000216268501C606020687B
:1071D000815404216268501C6060206881544D21F4
:1071E0006268501C60602068815451216268501CA4
:1071F00060602068815454216268501C606020687F
:1072000081546268501C6060206881540421626867
:10721000501C6060206881546168481C6060206870
:1072200045540698010A6268501C606020688154C9
:107230000698C1B26268501C606020688154C8F32F
:1072400007216268501C6060206881546268501C8D
:107250006060206800F80280D4E900128818424675
:107260004946FDF7D5FF60684044606005F00400C2
:10727000B8B30026139808B938A013901298FDF7F8
:10728000B3FF86B2310A6268501C60602068815486
:107290006268501C606020688654D4E90012881827
:1072A00032461299FDF7B4FF60683044606013986D
:1072B000FDF79AFF86B2310A6268501C6060206850
:1072C00081546268501C606020688654D4E90012C2
:1072D000881832461399FDF79BFF60683044606060
:1072E00000BF05F08000C8B15046FDF77DFF86B2B3
:1072F000310A6268501C6060206881546268501CCA
:10730000606020688654D4E90012881832465146DD
:10731000FDF77EFF60683044606000BF05F040000C
:10732000C8B15846FDF760FF86B2310A6268501C4A
:107330006060206881546268501C606020688654D8
:10734000D4E90012881832465946FDF761FF60689B
:107350003044606000BF0020C8E60000000000006C
:107360002DE9F84F8046894693469A460D9C0027A2
:10737000002500200090002660602073A060B8F116
:10738000000F02D10120BDE8F88F00250AE019F8AE
:107390000500232803D019F805002B2801D102206D
:1073A000F1E76D1C19F805000028F0D146F0300611
:1073B0000B9808B146F0010605EB0A00871C0A98F5
:1073C00020B1012804D002280AD105E000BF09E05D
:1073D00046F00206BF1C05E046F00406BF1C01E0B3
:1073E0000320D0E700BFF91C2046FFF7F8FD206816
:1073F00008B90420C7E7F91C2068FDF7CEFE6168D4
:10740000481C606020684654D4E900028118384660
:10741000FFF7CEFD00900098002804DA2046FFF721
:10742000B9FD0520AFE76168009808446060C5F3C6
:1074300007216268501C6060206881546268501C9B
:10744000606020688554D4E9001288182A464946AD
:10745000FDF7DEFE6068284460600A9860B14FEA7C
:1074600018216268501C6060206881546268501C5A
:107470006060206800F80280BBF1000F09D0D4E9F9
:107480000012881852465946FDF7C2FE6068504403
:107490006060002077E770B505460C460421204661
:1074A000FFF79DFD206808B9012070BD6221626868
:1074B000501C60602068815402216268501C60602A
:1074C0002068815429126268501C606020688154D1
:1074D0006268501C6060206885540020E5E770B544
:1074E00005460C4604212046FFF779FD206808B9BF
:1074F000012070BD62216268501C60602068815468
:1075000002216268501C6060206881542912626800
:10751000501C6060206881546268501C6060206864
:1075200085540020E5E770B505460C460421204649
:10753000FFF755FD206808B9012070BD5021626831
:10754000501C60602068815402216268501C606099
:107550002068815429126268501C60602068815440
:107560006268501C6060206885540020E5E770B5B3
:1075700005460C4604212046FFF731FD206808B976
:10758000012070BD62216268501C606020688154D7
:1075900002216268501C6060206881542912626870
:1075A000501C6060206881546268501C60602068D4
:1075B00085540020E5E72DE9FF5F80461746994690
:1075C0000E9C0026B246B3460025B8F1000F03D149
:1075D000012004B0BDE8F09F0BE057F8250008B982
:1075E0000220F6E757F82500FDF7FEFD0644681C6B
:1075F000C5B24D45F1DB09EB4900801C00EB060AE2
:107600000AF105012046FFF7EAFC206808B90320CB
:10761000DFE782216268501C606020688154D4E9F1
:10762000000281185046FFF7C3FC8346BBF1000FF0
:1076300004DA2046FFF7AEFC0420CAE7606858442D
:1076400060604FEA18216268501C606020688154B5
:107650006268501C6060206800F80280002524E009
:1076600057F82500FDF7C0FD0646C6F307216268FE
:10767000501C6060206881546268501C6060206803
:107680008654D4E90023D01857F825103246FDF768
:10769000BFFD6068304460600198C1B26268501CF0
:1076A000606020688154681CC5B24D45D8DB00205D
:1076B0008FE72DE9F05F80460F4691461C46002675
:1076C000B246B3460025B8F1000F02D10120BDE853
:1076D000F09F0BE057F8250008B90220F7E757F8AC
:1076E0002500FDF781FD0644681CC5B24D45F1DB60
:1076F000022000EB490000EB060A0AF105012046D2
:10770000FFF76DFC206808B90320E0E7A22162685A
:10771000501C606020688154D4E9000281185046F2
:10772000FFF746FC8346BBF1000F04DA2046FFF763
:1077300031FC0420CBE76068584460604FEA1821B0
:107740006268501C6060206881546268501C6060F0
:10775000206800F8028000251DE057F82500FDF79D
:1077600043FD0646C6F307216268501C606020682E
:1077700081546268501C606020688654D4E90023FC
:10778000D01857F825103246FDF742FD60683044A6
:107790006060681CC5B24D45DFDB002097E7F0B59F
:1077A00004460D462646012300201060002114E007
:1077B000775C07F07F07106807FB03001060705CC0
:1077C00000F0800008B9481CF0BDDB01B3F5001FD4
:1077D00002D36FF00100F7E7491CA942E8DB4FF044
:1077E000FF30F1E72DE9F84307460C4615462F21F7
:1077F000F81CFDF7EFFC064600200090804616B905
:107800000120BDE8F883761C6A460421781CFFF746
:10781000C6FF252004F006F82060206808B9022081
:10782000EFE725212068FDF7B8FC242231462068C7
:10783000FDF79AFC243600982C381FFA80F808F1DE
:10784000010003F0EFFF2860286820B9206803F0EA
:107850003BFE0320D5E708F101012868FDF79DFCF8
:10786000424631462868FDF77FFC0020C9E7014603
:107870004878022801D001207047887810B18878B4
:10788000012801D1C878F7E7FF20F5E72DE9FC5F73
:1078900081460D4616469A4699F8000000F00F0BF7
:1078A000002001900BF0080000904FF00008002429
:1078B000CBF341008AF8000001AA042109F101007C
:1078C000FFF76DFF4844471C0198022802D30BF0D4
:1078D000010010B1FF20BDE8FC9F7878397840EABC
:1078E0000124A01C0199814201D2FF20F3E749A1A4
:1078F000B81CFDF75DFC08B10F20ECE79AF800001A
:1079000020B1012833D0022872D131E0009808B1AB
:10791000FF20E0E7601C03F085FF2860286808B9B5
:10792000FF20D8E7611C2868FDF737FC2246B91C08
:107930002868FDF719FC0198801EA0EB040808F1E7
:10794000010003F06FFF3060306820B9286803F051
:10795000BBFDFF20BFE708F101013068FDF71DFC0A
:10796000BA1C111942463068FDF7FEFB42E000BF29
:10797000A01C0199884201D9FF20ACE7E01C395CCA
:10798000A01C385C41EA00210C9801800C9808B9D1
:10799000FF20A0E7601C03F045FF2860286808B9B5
:1079A000FF2098E7611C2868FDF7F7FB2246B91C09
:1079B0002868FDF7D9FB0198001FA0EB040808F127
:1079C000010003F02FFF3060306820B9286803F011
:1079D0007BFDFF207FE708F101013068FDF7DDFB4B
:1079E0003A1D111942463068FDF7BEFB02E0FFE781
:1079F000FF2070E700BF2B212846FDF7EBFB20B9E5
:107A000023212846FDF7E6FB08B1FF2063E70020AD
:107A100061E7000024637265710000000146487848
:107A2000022801D001207047887820B9C8780A2838
:107A300001D10020F7E70120F5E701464878022848
:107A400001D001207047887820B9C8780A2801D170
:107A50000020F7E70120F5E701464878022801D029
:107A600001207047887820B9C8780A2801D1002001
:107A7000F7E70120F5E702465078022801D00120FF
:107A800070479078B0EB112F05D1D078CBB29842E7
:107A900001D10020F4E70120F2E70000F8B5044628
:107AA000FF2720780511012D01DB0E2D01DD384661
:107AB000F8BD032D24D1002000906A460421601CEB
:107AC000FFF76DFE2044461C0098022803D320785F
:107AD00000F0010008B1FF20EAE77078317840EA51
:107AE0000120801C0099884201D9FF20E0E706A10F
:107AF000B01CFDF75DFB08B10F2700E0032700E095
:107B00002F463846D4E700002463726571000000F8
:107B10000146FF208A78A2B9CA78142A11D10A79BD
:107B200032B1012A05D0022A04D0802A06D103E00E
:107B300000BF00BF002003E0012001E0022000BFE1
:107B400000BF7047014601208A781AB9CA781E2AF8
:107B500000D10020704700007FB505460E4600208A
:107B600000900190029003906B46324629460A200D
:107B7000FFF79FFDD0B9019882B20420009904F06C
:107B800031FA642003F054FA042003F0F6FC0446B2
:107B900022460749042004F0A3F8054800780B2189
:107BA000B1EB201F02D103A001F030F87FBD00002F
:107BB00068090020B3C9B9A6C8A1CFFBB6A9D4C42F
:107BC0000D0A000000BFFEE77047000070B50021FD
:107BD00000230F22C47804B3154C246804F4E06435
:107BE000C4F5E064210AC1F10403CA40447804FAF0
:107BF00003F184781440214309010E4C0678A15505
:107C0000047804F01F050124AC4005786D11AD0027
:107C100005F1E025C5F8004109E0047804F01F05EE
:107C20000124AC40044D0678761145F8264070BD1D
:107C30000CED00E000E400E080E100E002490143D7
:107C4000024A1160704700000000FA050CED00E0E8
:107C50007047000010B51248006800F002000228CA
:107C600005D00F48006800F0020001280BD1012167
:107C70000C48FFF77CF820210B48FFF776F803202B
:107C80000A4908700AE001210648FFF76EF8202132
:107C90000548FFF76CF802200449087010BD000089
:107CA00008080140000C0140001001405F00002066
:107CB00029B1064AD2690243044BDA6104E0034A5F
:107CC000D2698243014BDA61704700000010024024
:107CD00029B1064A12690243044B1A6104E0034ABF
:107CE00012698243014B1A61704700000010024084
:107CF00029B1064A92690243044B9A6104E0034A9F
:107D000092698243014B9A61704700000010024063
:107D100029B1064AD2680243044BDA6004E0034A00
:107D2000D2688243014BDA607047000000100240C5
:107D300030B500210022002400232D4D6D6805F090
:107D40000C0121B1042905D0082923D105E0294DD2
:107D5000056022E0274D05601FE0254D6D6805F4A4
:107D60007012234D6D6805F48034022505EB9242B4
:107D70001CB9214D554305600BE01D4D6D6805F4A0
:107D800000351DB11C4D5543056002E0194D5543AA
:107D9000056002E0174D056000BF00BF144D6D681F
:107DA00005F0F0010909154D6B5C0568DD40456083
:107DB0000F4D6D6805F4E061090A104D6B5C456874
:107DC000DD4085600A4D6D6805F46051C90A0B4DB0
:107DD0006B5C4568DD40C560054D6D6805F440414C
:107DE000890B074D6B5CC568B5FBF3F5056130BDCC
:107DF0000010024000127A0000093D000501002039
:107E00001501002010B580210748FEF7AEFF0220C3
:107E100003F02CF980210448FEF7A9FF4FF4C86055
:107E200003F006F910BD00000010014010B5044633
:107E300000BF02210A4800F021F80028F9D02146AD
:107E4000074800F027F800BF0121054800F016F8A8
:107E50000028F9D0024800F01AF8C0B210BD0000A6
:107E60000038004021B1028842F04002028004E064
:107E700002884FF6BF731A40028070470246002006
:107E800013890B400BB1012000E000207047014630
:107E9000888970478181704710B50022028802F4FA
:107EA00041520B884C8823438C882343CC8823433E
:107EB0000C8923434C8923438C892343CC89234356
:107EC0001A430280838B4FF2FF74234083830B8A13
:107ED000038210BD00B587B001211D20FFF708FF08
:107EE00001210803FFF704FF06A8FEF742FF102058
:107EF000ADF818008DF81B0003208DF81A0006A9B4
:107F00001E48FEF755FE10211C48FEF730FF06A85C
:107F1000FEF72FFFE020ADF8180018208DF81B00A9
:107F200003208DF81A0006A91548FEF741FE00202F
:107F3000ADF804004FF48270ADF806004FF4006015
:107F4000ADF808000220ADF80A000120ADF80C00E1
:107F50004002ADF80E003820ADF810000020ADF85A
:107F600012000720ADF8140001A90648FFF794FF9E
:107F700001210448FFF776FF07B000BD0010014063
:107F80000008014000300140704710B500F002F8D1
:107F900010BD00000CB5002001900090334800682F
:107FA00040F480303149086000BF3048006800F478
:107FB000003000900198401C0190009818B9019879
:107FC000B0F5A06FF1D12948006800F4003010B17D
:107FD0000120009001E0002000900098012843D18A
:107FE0002348006840F010002149086008460068F6
:107FF00020F0030008600846006840F002000860B6
:108000001A48406819494860084640684860084670
:10801000406840F4806048600846406820F47C1066
:1080200048600846406840F4E81048600846006828
:1080300040F08070086000BF0C48006800F00070DD
:108040000028F9D00948406820F00300074948603B
:108050000846406840F00200486000BF034840689E
:1080600000F00C000828F9D10CBD000000100240FF
:1080700000200240012080F3138800BF00BF0748A2
:10808000006800F4E06006490843001D03490860E9
:10809000BFF34F8F00BF00BFFEE700000CED00E014
:1080A0000000FA057047000010B51248006840F063
:1080B000010010490860084640680F4908400D4912
:1080C0004860084600680D4908400A4908600846AB
:1080D000006820F4802008600846406820F4FE0014
:1080E00048604FF41F008860FFF74FFF04480549C0
:1080F000086010BD001002400000FFF8FFFFF6FE10
:108100000050000808ED00E04FF0E021096921F07F
:1081100004014FF0E0221161C21700EB5272C2F36A
:10812000C702074B1A701946097801EB4102C2EBEE
:10813000C1114FF6FF7202EAC101024A1180704775
:108140002A0000202C0000200EB501210846FFF770
:10815000AFFD4FF0804000F05FF96420ADF80400FF
:108160004720ADF800000020ADF8020069464FF04E
:10817000804000F05FFA0121880700F03AF90122FF
:108180001146900700F04DFA0121880700F037F9F9
:1081900000210120FFF78CFD0EBD000010B501216C
:1081A000880700F02DFA78B10121880700F024F942
:1081B000002407E0054850F82400401C034941F81A
:1081C0002400641C162CF5DB10BD000050030020B9
:1081D00008B54FF4E060FFF731FD1C208DF800007A
:1081E00000208DF8010004208DF8020001208DF898
:1081F00003006846FFF7EAFC08BD00000EB5012148
:108200000220FFF755FD114800F006F96420ADF893
:1082100004004720ADF800000020ADF802006946D8
:108220000A4800F007FA0121084800F0E2F80122AC
:108230001146064800F0F5F90121044800F0DFF886
:1082400000210220FFF734FD0EBD000000040040B5
:1082500010B50121104800F0D3F9E0B101210E481A
:1082600000F0CAF80D480068401C0C490860084638
:1082700000684CF25031884207DB09480068401C16
:108280000749086000200549086005480068022881
:1082900001D9FFF7EFFE10BD0004004018000020D8
:1082A0001C00002008B54FF4E060FFF7C7FC1D205C
:1082B0008DF8000000208DF801000B208DF80200E1
:1082C00001208DF803006846FFF780FC08BD000020
:1082D0000EB501210420FFF7EBFC114800F09CF8DB
:1082E0006420ADF804004720ADF800000020ADF890
:1082F000020069460A4800F09DF90121084800F093
:1083000078F801221146064800F08BF90121044853
:1083100000F075F800210420FFF7CAFC0EBD000034
:108320000008004010B501211F4800F069F900283D
:1083300039D001211C4800F05FF81C480078012862
:1083400004D11B484068401C19494860194800780E
:10835000012804D116488068401C154988601648D9
:108360000078012804D11248C068401C1049C86038
:1083700012480078012804D10D480069401C0C49BE
:1083800008610F480078012804D109484069401C61
:10839000074948610B480078012804D104488069E6
:1083A000401C0349886110BD000800402E000020D9
:1083B000A80300202F000020300000203100002002
:1083C000320000203300002008B54FF4E060FFF7D2
:1083D00035FC1E208DF8000000208DF801000C20D7
:1083E0008DF8020001208DF803006846FFF7EEFBD0
:1083F00008BDCA4302827047CA430282704721B156
:10840000028842F00102028004E002884FF6FE7307
:108410001A4002807047000010B504466848844244
:1084200008D10121C014FFF773FC0021E014FFF70D
:108430006FFCC4E0B4F1804F08D101210846FFF77A
:1084400047FC00210120FFF743FCB8E05D4884426F
:1084500008D101210220FFF73BFC00210220FFF799
:1084600037FCACE05848844208D101210420FFF7D2
:108470002FFC00210420FFF72BFCA0E0534884428E
:1084800008D101210820FFF723FC00210820FFF775
:108490001FFC94E04E48844208D101211020FFF7D0
:1084A00017FC00211020FFF713FC88E049488442A4
:1084B00008D101212020FFF70BFC00212020FFF72D
:1084C00007FC7CE04448844208D101214014FFF7B6
:1084D0001FFC00216014FFF71BFC70E03F48844242
:1084E00009D10121C804FFF713FC00214FF400203B
:1084F000FFF70EFC63E03A48844209D101210805E8
:10850000FFF706FC00214FF48010FFF701FC56E056
:108510003448844209D101214805FFF7F9FB0021C5
:108520004FF40010FFF7F4FB49E02F48844208D1D4
:1085300001214020FFF7CCFB00214020FFF7C8FBC2
:108540003DE02A48844208D101218020FFF7C0FB8A
:1085500000218020FFF7BCFB31E02548844208D190
:1085600001218015FFF7B4FB0021A015FFF7B0FB38
:1085700025E02048844209D101210804FFF7C8FB07
:1085800000214FF48030FFF7C3FB18E01A48844203
:1085900009D101214804FFF7BBFB00214FF4003053
:1085A000FFF7B6FB0BE01548844208D1012188048F
:1085B000FFF7AEFB00214FF48020FFF7A9FB10BDB1
:1085C000002C01400004004000080040000C004066
:1085D000001000400014004000340140004C0140F5
:1085E000005001400054014000180040001C0040B1
:1085F000002000400040014000440140004801408C
:1086000030B50246002000230024158A05EA010344
:10861000958905EA010413B10CB1012000E00020A6
:1086200030BD1AB183890B43838102E083898B4378
:1086300083817047002202881D4B98420ED01D4B4B
:1086400098420BD0B0F1804F08D01B4B984205D018
:108650001A4B984202D01A4B984204D14FF68F73AE
:108660001A404B881A43174B984207D0164B984232
:1086700004D04FF6FF431A40CB881A4302808B8800
:1086800083850B8803850A4B98420BD0094B98428F
:1086900008D00E4B984205D00D4B984202D00D4B9E
:1086A000984201D10B7A0386012383827047000030
:1086B000002C01400034014000040040000800404C
:1086C000000C004000100040001400400040014039
:1086D000004401400048014000B585B0012104205C
:1086E000FFF706FB01214804FFF7E2FA0420ADF88A
:1086F000100018208DF8130003208DF8120004A933
:108700001748FEF755FA0820ADF8100004208DF840
:10871000130004A91248FEF74BFA4FF4E130009021
:108720000020ADF80400ADF80600ADF80800ADF883
:108730000C000C20ADF80A00012240F22551094836
:1087400000F061F96946074800F082F90121054807
:1087500000F016F94021034800F009F905B000BD0A
:10876000000801400044004010B500240821694879
:1087700000F012F930B1674800F0D6F908216548D9
:1087800000F0F5F80421634800F006F930B16148C3
:1087900000F0CAF904215F4800F0E9F802215D48C1
:1087A00000F0FAF830B15B4800F0BEF902215948F8
:1087B00000F0DDF80121574800F0EEF830B15548DF
:1087C00000F0B2F90121534800F0D1F840F22551F0
:1087D000504800F0EEF800287DD04E4800F0A4F993
:1087E000C4B24D48007800B110BD4C48007880B943
:1087F0004B48007868B9242C0BD148490878411CB3
:10880000464A1170474941F8204001204449087008
:10881000EAE7424800780A2814DA4148007801283B
:1088200010D13E480078092804DA3F4800782044F7
:108830003D49087039490878411C384A1170394956
:1088400041F82040354800780A285CD13548006856
:108850003449496808443349896808443149C9683A
:1088600008443049096908442E49496908442D499A
:10887000896908442B49C96908442A49096A084496
:10888000294908702748406A0978884234D1002174
:108890000120FFF70DFA2548007860B923480078D9
:1088A000401C2249087001210220FFF701FA012132
:1088B0001F48FFF7A4FD20211E48FEF758FA0121AA
:1088C0001D48FEF752FA02211B48FEF750FA4FF4FA
:1088D0008061194800E01BE0FEF747FA01200E49CD
:1088E00008701649087000200F49087001201449CB
:1088F00008700020094908700020084908700849DC
:1089000008700949087040F22551024800F02FF81C
:1089100000BF69E70044004023000020250000203C
:10892000260000201003002027000020280000203F
:108930000004004000100140000C0140A500002090
:108940002400002008B54FF4E060FFF777F92620F7
:108950008DF8000000208DF8010002208DF8020043
:1089600001208DF803006846FFF730F908BD01F4D7
:108970000072B2F5007F00D100BFCA430280704789
:1089800021B1828942F40052828104E082894DF64D
:10899000FF731A408281704702460020B1F5007FC4
:1089A00000D100BF13880B400BB1012000E0002074
:1089B000704770B50246002400230025002040F6D1
:1089C0006A16B14200D100BFC1F3421501F01F0386
:1089D000012606FA03F3012D02D19689334006E001
:1089E000022D02D1168A334001E0968A33400C12E0
:1089F000012606FA04F41688344013B10CB10120A4
:108A000000E0002070BDF0B50346002400260025DC
:108A1000002040F66A17B94200D100BF1846C1F3E2
:108A2000421401F01F06012707FA06F5012C01D1B7
:108A30000C3004E0022C01D1103000E014301AB1E7
:108A400007682F43076002E00768AF430760F0BD87
:108A50002DE9F04786B005460E460024A24600BF29
:108A6000A1460027B08900B100BF2F462C8A4CF6E2
:108A7000FF700440F08804432C82AC894EF6F3105A
:108A80000440B08831890843718908430443AC81AC
:108A9000AC8A4FF6FF400440B0890443AC8201A881
:108AA000FFF746F91F48874202D1DDF810A001E028
:108AB000DDF80CA0A88900F4004040B10AEBCA0020
:108AC00000EB0A1031684900B0FBF1F807E00AEB4F
:108AD000CA0000EB0A1031688900B0FBF1F864208D
:108AE000B8FBF0F004012009642101FB1089A8897A
:108AF00000F4004040B1322000EBC900B0FBF1F0BF
:108B000000F00700044308E0322000EB0910642164
:108B1000B0FBF1F000F00F0004432C8106B0BDE87B
:108B2000F08700000038014001468888C0F3080043
:108B30007047C1F308028280704700BFFEE7000063
:108B400010B504462CB94FF480510548FEF70DF9D5
:108B500005E0012C03D121030148FEF708F910BDFF
:108B6000000C014000B587B001218803FFF7A0F891
:108B700001210920FFF7BCF84FF46040ADF8040074
:108B800003208DF8060018208DF8070001A91D4864
:108B9000FEF70EF84FF48050ADF8040003208DF876
:108BA000060010208DF8070001A91648FEF700F80E
:108BB0004FF480511348FEF7DAF80020ADF80800B2
:108BC0004FF48270ADF80A000020ADF80C00ADF84B
:108BD0000E00ADF810004FF40070ADF81200082040
:108BE000ADF814000020ADF816000720ADF818000D
:108BF00002A90548FFF750F901210348FFF732F9B0
:108C000007B000BD000C0140003800400FB4054B18
:108C100010B503A9044A029800F0F2F810BC5DF800
:108C200014FB0000A5B40008000300200FB4084B9B
:108C300010B504A902AA039800F0E2F8044602A9BC
:108C4000002000F074FC204610BC5DF814FB00000E
:108C50002F950008004870470C03002002E008C868
:108C6000121F08C1002AFAD170477047002001E0A6
:108C700001C1121F002AFBD1704700002DE9FF5FE0
:108C800082B00021DDE90430020DDDF840B003437D
:108C900018D044F61050A2F2FF3242431514119836
:108CA00001281FD0A5EB0B00401C5FEA000A4FF023
:108CB00000064E4FDFF83891B046504615D5CAF140
:108CC000000413E0119801244AA3012801D16FEA9E
:108CD0000B010298119AC0E90031C0E9024206B0C6
:108CE000BDE8F09FCBF10000DFE704460021404AD9
:108CF000491842EB0450CDE9001012E0E00707D01C
:108D000032463B4640464946FCF7ACFA8046894627
:108D100032463B4610461946FCF7A4FA06460F4673
:108D20006410002CEAD1DDE90401DDE90023BAF189
:108D3000000F06DAFCF796FA42464B46FCF792FA29
:108D400005E0FCF72FFD42464B46FCF72BFD0446A1
:108D50000E460022284BFCF7ADFD03D84FF0FF3044
:108D6000014607E00022254B20463146FCF773FC04
:108D7000FCF787FD102409E0002C0ADB0A220023FF
:108D8000FCF76CFB039B30321A55641E50EA01025B
:108D9000F2D1641C039AC4F111031444119A012AFC
:108DA00003D0012208430DD10AE0084304D000207B
:108DB0004FF0110B119072E7A3EB0B056D1E0DE048
:108DC0005B4504DD4FF0000205F1010504E003DA24
:108DD0004FF00002A5F10105002AECD0029811998C
:108DE000C0E90231C0E9004579E700000000144005
:108DF0000000F03F300000000000F0430000E03FC2
:108E00002DE9FF4F95B09B468946064600250FE2A7
:108E1000252877D100242746F84A0121059400E04F
:108E2000044316F8013F203B01FA03F01042F7D14A
:108E300030782A2811D06FF02F033078A0F130025B
:108E4000092A16D8059A44F0020402EB820203EBC9
:108E500042021044761C0590EFE759F8042B059266
:108E6000002A03DA504244F40054059044F002040E
:108E7000761C30782E2816D116F8010F44F0040421
:108E80002A280DD06FF02F023078A0F13003092B83
:108E900009D807EB870302EB4303C718761CF3E7F7
:108EA00059F8047B761C30786C280FD006DC4C28EF
:108EB00017D068280DD06A2814D104E0742810D087
:108EC0007A280FD10DE044F400140AE044F4801431
:108ED00001E044F440147278824202D104F5801417
:108EE000761C761C307866280BD013DC582877D097
:108EF00009DC002875D04528F6D04628F4D047284C
:108F00001AD19DE118E0632835D0642879D065280E
:108F100012D195E1702873D008DC6728F1D0692858
:108F20006FD06E280DD06F2806D1B5E073282CD0F5
:108F3000752875D0782874D05A46179990476D1CBB
:108F400075E1C4F30250022809D003280DD0D9F8E6
:108F5000001004280DD00D6009F1040967E1D9F86B
:108F60000010EA17C1E90052F6E7D9F800100D80A9
:108F7000F2E70D70F0E719F8041B8DF800100020DF
:108F80008DF80100EA46012003E059F804AB4FF0E8
:108F9000FF3061074FF0000102D40DE008F101013C
:108FA0008846B9420FDA8045F8DB1AF80810002924
:108FB000F4D108E008F1010188468142FADB1AF891
:108FC00008100029F6D105985B46A0EB080721465A
:108FD0003846179A00F094FA284400EB080507E099
:108FE0004DE029E10DE01AF8010B5A461799904718
:108FF000B8F10108F7D25B4621463846179A13E1CB
:1090000042E00A220092C4F302524FF0000A022A00
:1090100008D059F804CB032A4FEAEC710AD00DE0CE
:1090200029E02AE009F1070121F00702F2E802C174
:10903000914609E00FFA8CFC4FEAEC71042A03D147
:109040004FFA8CFC4FEAEC71002907DA0A4600213E
:10905000DCF1000C61EB02012D2202E0220504D5B7
:109060002B228DF80420012203E0E20701D0202208
:10907000F7E7904659E00A2102E010220DE01021A6
:109080004FF0000A00910BE010224FF0000A44F06C
:1090900004040827009203E008224FF0000A00921F
:1090A000C4F30252022A05D059F804CB0021032A46
:1090B00008D009E009F1070121F00702F2E802C136
:1090C000914605E01FFA8CFC042A01D10CF0FF0C3C
:1090D0004FF00008220728D5702806D0009B83F0A7
:1090E000100353EA0A0305D00EE040228DF8042055
:1090F000012208E05CEA010206D030228DF804204B
:109100008DF8050002229046009B83F0080353EA85
:109110000A030AD15CEA010201D1620705D53022B7
:109120008DF804204FF001087F1E582804D034A089
:1091300003900EA802900DE036A0F9E75346604672
:10914000009AFCF78BF984460398825C0298401ED3
:10915000029002705CEA0100F0D1029806A9081A98
:1091600000F1200A600702D524F4803400E00127D2
:10917000574502DDA7EB0A0000E0002000EB0A01E2
:10918000009005984144401A0590E00306D45B46E0
:109190002146179A059800F0B3F90544002706E028
:1091A00001A85A46C05D179990476D1C7F1C474522
:1091B000F6DBE0030CD55B462146179A059800F0D4
:1091C0009FF9054404E030205A46179990476D1CDA
:1091D0000099481E00900029F5DC08E002980299E9
:1091E0005A460078491C0291179990476D1CBAF1B4
:1091F0000001AAF1010AF1DC65E100000928010083
:1092000030313233343536373839616263646566FC
:1092100000000000303132333435363738394142BE
:10922000434445460000000000F058F90544761C10
:10923000307800287FF4ECAD19B02846BDE8F08FF7
:10924000620700D4062709F1070222F0070CFCE8A8
:109250000223E14603F000485FEA080C02D00FF257
:10926000702C0DE05FEA045C02D50FF2682C07E079
:109270005FEAC47C02D00FF2602C01E0AFF2700C08
:109280004FF0FF3823F00043CDF850C065280CD0D4
:1092900006DC452809D046281DD047283DD13DE0B1
:1092A000662818D067287ED138E00021112F01DB15
:1092B000112000E0781CCDE9000106A90EA8FFF7F7
:1092C000DDFCDDE90F010E9A03910021009207F108
:1092D000010A04914DE04FF000400097CDE90110E4
:1092E00006A90EA8FFF7CAFCDDE90F0203920E9B48
:1092F00011990022DDF80CA00093049211B9791C99
:1093000000EB010AB7EB0A0004D4C0F1FF3007F10B
:10931000010A0490AAEB0700019044E0012F00DA53
:1093200001270021112F01DD112000E03846CDE991
:10933000000106A90EA8FFF7A1FCDDE90F010E9AB6
:109340000391002104910092BA4621070CD403999D
:10935000514500DA8A46BAF1010F05DD009AAAF1FB
:109360000101515C302908D0B84202DA10F1040F33
:1093700006DA0121CDE9011015E0AAF10101E9E7C2
:10938000002805DC049901440491AAEB000102E0E5
:10939000411C514500DD8A460499401A401C019049
:1093A0004FF000400290200704D40198504501DBA3
:1093B000CDF8048000208DF84F0002980DF14F0782
:1093C000B0F1004F25D02B200E9002984FF00208EC
:1093D00000280CDA404202902D200E9007E00A216E
:1093E0000298FCF725F83031029007F8011DB8F11A
:1093F0000001A8F10108F2DC02980028EFD1791EE3
:109400000E980870307800F0200040F0450007F812
:10941000020D12A8C01B00F107081498007800B1D3
:10942000012000EB0A01019801EBE071059841442D
:10943000401A401E0590E00306D45B462146179A69
:10944000059800F05DF805441498007818B15A4664
:10945000179990476D1CE00324D55B462146179A67
:10946000059800F04DF805441CE00498002807DB3F
:10947000DDE90301884203DD0098405C179901E0B3
:10948000179930205A469047049805F10105401C71
:1094900004900198401E019004D12E205A4617993D
:1094A00090476D1CBAF10001AAF1010ADDDC05E06C
:1094B00017F8010B5A46179990476D1CB8F1000137
:1094C000A8F10108F4DC5B462146179A0598ABE643
:1094D0002D0000002B000000200000002DE9F041CD
:1094E000044600251E461746880404D405E0394684
:1094F0002020B0476D1C641EF9D52846BDE8F081D8
:109500002DE9F041044600251E469046C80301D5CA
:10951000302700E02027880404D505E0414638467E
:10952000B0476D1C641EF9D52846BDE8F0810A6875
:10953000531C0B601070704710B5FDF79DFCF84888
:109540000078012801D003F0B7FEF6480078012822
:1095500001D001F045FB642001F06AFDF14800787C
:10956000012804D101F0A0FD642001F061FDEE4866
:109570000088012813D10020EB490880E9490870D0
:10958000FEF740FC03F098FE03F0F0FC03F0D2FB82
:10959000E649E74803F0F4FD0120E6490860E648A3
:1095A0000078012817D1E548007801280ED1E44859
:1095B000C06BE44988420ED30020E149C863032010
:1095C000DC4908600120E049087004E00020DC4923
:1095D000C863DE490870DA48806BDD49884261D390
:1095E0000020D7498863DB480068401CD9490860DF
:1095F0000222D949042002F0F5FC642001F018FD94
:10960000D6480078D02816D10C20CA49086000201E
:10961000D3490880D34908704FF40061CF48FBF765
:10962000BCFD0120D04908700020D04908700120FD
:10963000C149087036E0CA480088401CC849088003
:10964000C8480078401CC7490870C54800880228EF
:1096500007DD0E20B7490860C1480188C4A0FFF7A4
:10966000D5FABF48008803281CDDC7A0FFF7CEFA53
:109670000020BB4908800120AB4908800020AE498A
:1096800008700222C649042002F0ACFC0020B64952
:1096900008704FF40061B148FBF77FFD8021C1489D
:1096A000FBF77BFDA648416DBF48007840F2712270
:1096B0005043B1EB001F1DD30020A1494865BB48B2
:1096C0000068401CB9490860A7480078012811D1FA
:1096D000A348008801280DDAB5A0FFF797FAB7482C
:1096E0000078401CB54908700120B5490870032076
:1096F00090490860B148007803280FDBB148007832
:10970000401CB049087008460178382001F040FA42
:109710004FF47A7001F08CFCFEF7ACFC88480068CE
:10972000F8B1002086490860A7480078012805D1D3
:109730000220A64908708D49087016E0A4480078F8
:1097400001280BD0A3480078012807D0A248007850
:10975000012803D0A1480078012803D101209B49AA
:10976000087002E00020994908707548C06AB0F599
:109770007A6F59D300207249C86299480078401C1A
:10978000974908709148007820B101281DD002281F
:1097900049D136E09348007858B920219248FDF726
:1097A000E6FA01219148FDF7E0FA01208D490870A1
:1097B0000AE020218C48FDF7DAFA01218B48FDF7F9
:1097C000D6FA0020874908702DE0864800780128E5
:1097D0000BD101218548FDF7CAFA20218248FDF707
:1097E000C4FA00207F4908700AE001217F48FDF794
:1097F000BEFA20217C48FDF7BAFA012079490870A9
:1098000011E020217848FDF7B2FA01217748FDF7F1
:10981000ACFA02217548FDF7AAFA4FF4806173484B
:10982000FDF7A3FA00BF00BF4548006C70498842AD
:109830000FD37048007860B96F480078002808DDC1
:1098400000203F49086403203A49086001206B4921
:1098500008703B48406A44F62061884230D30020BB
:10986000374948626648FCF7B9FD65494878FBF717
:109870006BFD6449086062490878FBF765FD624941
:10988000086062495F480068FBF7C8FD11D3604972
:109890005D480068FBF7C2FD0BD300215948006802
:1098A000FBF7B2FD05D0002157480068FBF7ACFD7F
:1098B00003D101204649087002E0002044490870A5
:1098C0001F488069B0F5FA6F27D300201C498861D2
:1098D0002648007820B1012820D002281CD1B8E009
:1098E0004C48007860B902214048FDF740FA4FF437
:1098F00080613E48FDF739FA0120464908700BE0C7
:1099000002213A48FDF733FA4FF480613748FDF7FA
:109910002EFA00203F490870B6E0B6E07CE0000077
:10992000230000203C010020A80000204D01002061
:1099300045010020DC020020D7000020D6000020D6
:1099400050030020E09304000301002004010020E4
:10995000A0860100E0000020F0020020380A00206C
:10996000AA000020AC0000205E000020AF00002014
:10997000CEB4CAD5B5BDD0C4CCF8B4CECAFDA3BA56
:109980002025640D0A000000D0C4CCF8B3ACCAB1E5
:10999000A3ACD6D8D0C2C1ACBDD3A3A10D0A0000E0
:1099A0006A00002068090020DB000020E40000209D
:1099B000B7A2B2BCCFFBCFA20D0A0000640000200A
:1099C00061000020A0000020A5000020AE000020C3
:1099D000A3000020A4000020A6000020EA00002030
:1099E000AD000020B000002000100140000C01403C
:1099F000C0270900360000200101002002010020DC
:109A000079000020B4000020B80000200000484287
:109A10000000B442B1000020FA48007801280BD1C0
:109A20008102F948FDF7A3F90221F748FDF79DF9F6
:109A30000020F44908700BE04FF48061F248FDF714
:109A400096F90221F048FDF792F90120ED490870DE
:109A50001AE02021ED48FDF78AF90121EA48FDF7D7
:109A600084F90221E848FDF782F94FF48061E64865
:109A7000FDF77BF900214FF08040FEF7C0FC00218C
:109A80000120FEF715F900BF00BFE1480078022869
:109A90001DD1E0480078D0B9DF48806C40F6B8317D
:109AA000884214D30020DC498864D9480078022811
:109AB0000DD1D8480078401CD64908700120D449FF
:109AC00008700320D5490870D5A0FFF79FF8D0484B
:109AD0000078D0B9CF480078B8B1CF48806C40F654
:109AE000B831884211D30020CB498864C848007837
:109AF00058B90020C74908700220C84908700020E2
:109B0000C3490870CBA0FFF781F8CF48007801283F
:109B100015D1CE48007890B1BF48C06C40F6C41152
:109B200088420CD30020BC49C864C748007801288B
:109B300005D10020C5490870C5A0FFF767F8C248E5
:109B40000078B0B9C148007898B9B348C06C40F605
:109B5000C41188420DD30020AF49C864BA480078C8
:109B600038B9BA480078401CB8490870BDA0FFF762
:109B70004DF8C148007870B9C048FBF783FFBF4873
:109B80000068BF490860BD484068BE490860BB48DE
:109B90008068BD490860BD480078052801DDFEF7F2
:109BA00069FABB48407888287ED1B948C07899289E
:109BB000FAD1B748B7490978405CC22814D1B548F2
:109BC0000078401CB3490870B1480978405CB2493C
:109BD0000978884234D10120B0490870AD48007836
:109BE000401CAC4908702BE0A948AA490978405CA0
:109BF000C32815D1A7480078401CA6490870A4487E
:109C00000978405C4030A4490978884218D1012085
:109C1000A24908709F480078401C9E4908700FE0D8
:109C20009B489C490978405C9B490978884207D148
:109C300001209A49087097480078401C954908709F
:109C4000934894490978405CC22814D1914800781F
:109C5000401C904908708E480978405C8E494978CC
:109C6000884236D102208D4908708A480078401C0D
:109C7000884908702DE0864886490978405CC328E9
:109C800017D184480078401C8249087080480978C0
:109C9000405C40308049497888421AD102207F498F
:109CA00008707C48007800E041E1401C7949087068
:109CB0000FE0774877490978405C774949788842CE
:109CC00007D102207549087072480078401C71491C
:109CD00008706F486F490978405CC22814D16D48FC
:109CE0000078401C6B49087069480978405C6A49F3
:109CF0008978884234D10320684908706548007823
:109D0000401C644908702BE0614862490978405C56
:109D1000C32815D15F480078401C5E4908705C4834
:109D20000978405C40305C498978884218D103202A
:109D30005A49087057480078401C564908700FE08F
:109D4000534854490978405C53498978884207D17F
:109D50000320524908704F480078401C4D49087054
:109D60004B484C490978405CC22814D149480078D6
:109D7000401C4849087046480978405C4649C97803
:109D8000884234D104204549087042480078401C7C
:109D9000404908702BE03E483E490978405CC328A2
:109DA00015D13C480078401C3A4908703848097879
:109DB000405C40303849C978884218D1042037497E
:109DC000087034480078401C324908700FE0304871
:109DD00030490978405C3049C978884207D104206D
:109DE0002E4908702B480078401C2A4908702B48DF
:109DF0000078042874D1264826490978405C012857
:109E00005BD14DE0B1000020000C0140001001408A
:109E1000EA000020E9000020500300205F0000203D
:109E200061636320697320636C6F73656420210D27
:109E30000A000000616363206973206F70656E65BE
:109E40006420210D0A000000E8000020EB00002043
:109E5000626174746572792069732068696768202B
:109E6000210D0A0062617474657279206973206C37
:109E70006F7720210D0A0000A20000209804002026
:109E800094000020980000209C000020AC000020DE
:109E9000E80900205C0000203C0000205D0000205C
:109EA000FEA0FEF7B3FE0121802000F071FE4FF40A
:109EB0007A7001F0BDF8FEF7DDF8FD48FD4909783C
:109EC000405C022815D1FB480078401CF949087015
:109ED000F7480978405CF84908700846017800E0C6
:109EE0001AE0F6A0FEF792FEF3480178902000F009
:109EF0004FFEEF48EF490978405C03280CD1FAA0E7
:109F0000FEF784FE0221542001F0BCFA4FF47A706F
:109F100001F08EF8FEF7AEF80020FA490870042030
:109F2000E44908704021E248FBF737F909E00020D6
:109F3000F44908700420DF4908704021DC48FBF731
:109F40002CF9F148007801287ED101F07FFBEF4821
:109F5000007801285ED1EE480078E8BBEC48007834
:109F6000401CEB490870EB480078401CE949087038
:109F700008460078FF282CD1E7480078401CE649C5
:109F8000087008460078FF281BD100200870E348BD
:109F90000078401CE149087008460078FF280BD182
:109FA00000200870DE480078401CDD490870084633
:109FB0000178882000F0ECFDD8480178862000F078
:109FC000E7FD0020D3490870D3480178842000F0D1
:109FD000DFFDD048017800E002E0822000F0D8FDEB
:109FE0000020D0490870D0490870D049086508643D
:109FF0004FF48061CE48FCF7B8FE4FF40061CC48C6
:10A00000FCF7B5FE0020CB490870CB490870CB495E
:10A01000087030E0C548006DC949884211D3C54871
:10A02000007870B9BF48007858B90120C549087058
:10A030000020BE4908640865BA4908700120BF497C
:10A040000870BE48007800E080E0012803D10220BB
:10A05000B549087002E00120B34908700020AC49FE
:10A0600008704FF48061B248FCF781FE4FF4006144
:10A07000AF48FCF77AFE01F00DFBB3480078D8B981
:10A08000B248007890B90120B14908600020B14978
:10A090000870B1490870B1490870B1490870B149F8
:10A0A0000870AA480078401CA84908704FF48051F5
:10A0B0009F48FCF75AFE07E00020A44908704FF4BF
:10A0C00080519B48FCF753FE01F006FBA648007840
:10A0D000012812D1A548007820B9A4480078401C76
:10A0E000A24908704FF48051A148FCF73EFE4FF49E
:10A0F00000619F48FCF73BFE07E04FF480519C480D
:10A10000FCF735FE00209949087001F007FB9948DB
:10A110000078012812D19848007820B99648007834
:10A12000401C954908704FF480519148FCF71FFE80
:10A130004FF400618E48FCF718FE07E04FF4006111
:10A140008B48FCF714FE00208B4908708B48007880
:10A1500001287DD100208A4908608A4908606A493F
:10A1600008708649087088484068012871D186487F
:10A17000C06801281FD185490870242084490870CF
:10A180000120487006208870002000F0ADFC804956
:10A19000C870022000F0A8FC7D490871042000F07E
:10A1A000A3FC7B494871062000F09EFC7849887129
:10A1B0000020C87108727448C068022820D10120AC
:10A1C00072490870242072490870022048700620E5
:10A1D0008870102000F088FC6D49C870122000F0D3
:10A1E00083FC6B490871142000F07EFC68494871BB
:10A1F000162000F079FC664988710020C871087249
:10A200006148C06803282AD10120604908702420D1
:10A210005F4908700320487006208870202000F0F5
:10A2200063FC5B49C870222000F05EFC584908714D
:10A23000242000F059FC56494871262000F054FCB7
:10A2400053498871282000F04FFC5149C87101E042
:10A25000FBE349E22A2000F047FC4D4908724A48D6
:10A26000C068042818D101204849087024204849B2
:10A2700008700420487006208870302000F034FCFC
:10A280004349C870322000F02FFC41490871342046
:10A2900000F02AFC3E497DE085E00000B6A9D4C468
:10A2A000CAD5B5BDD6D8C6F4D6B8C1EE210D0A00C0
:10A2B000E80900205C000020DB000020B6A9D4C41F
:10A2C000CAD5B5BDB7A2B2BCBCE4B8F4D6B8C1EE2D
:10A2D00021BCE4B8F4B1E4B8FCCEAAA3BA2564C3A7
:10A2E000EB20A3A10D0A0000CAD5B5BDB8FCD0C2B1
:10A2F000B3CCD0F2D6B8C1EEA3ACD6D8C6F40D0A12
:10A30000000000005D000020D70000203600002083
:10A31000CD000020620000206300002065000020C6
:10A3200066000020D5000020D3000020500300204C
:10A33000000801400101002080000020D40000201E
:10A34000804F12000001002037000020CE000020C6
:10A350007C000020D9000020DA000020D20000207C
:10A36000D1000020D800002038000020CF000020BD
:10A370000010014039000020D00000202300002000
:10A38000180000201C000020100300207B0000208B
:10A39000B40400204871362000F0A6FBFE49887105
:10A3A0000020C8710872FD48C068052820D101202E
:10A3B000FB4908702420F8490870052048700620E1
:10A3C0008870922000F090FBF349C870942000F050
:10A3D0008BFBF1490871962000F086FBEE4948712D
:10A3E000982000F081FBEC4988710020C871087248
:10A3F000EA48C06806281FD10120E94908702420D6
:10A40000E5490870062048708870502000F06CFB09
:10A41000E149C870522000F067FBDF490871532002
:10A4200000F062FBDC494871562000F05DFBDA4920
:10A4300088710020C8710872D848C068072818D1F0
:10A440000120D74908702420D3490870072048709C
:10A4500006208870602000F047FBCF49C87062205A
:10A4600000F042FBCC490871002048718871C87126
:10A470000872CA48C068082847D1CA48FBF702FBDF
:10A48000C8480068C8490860C6484068C7490860AD
:10A49000C4488068C6490860C648FBF79FFFC549A5
:10A4A0004878FAF751FFC4490860C2490878FAF7BA
:10A4B0004BFFC24908600120B94908702420B64901
:10A4C00008700820487006208870BB480068FAF7BA
:10A4D00051FFB149C870B9480068FAF74BFFAE495F
:10A4E0000871B1480068FAF75EFFAB494871AF48A0
:10A4F0000068FAF758FFA8498871AD480068FAF774
:10A5000052FFA549C87100200872A448C0680928F4
:10A5100014D10120A249087024209F490870092005
:10A520004870062088700020C870087148718871D2
:10A53000C87108724FF4036100F0A4FF9748C06827
:10A54000102829D14FF47A7000F072FD4FF47A7020
:10A5500000F06EFD4FF47A7000F06AFD4FF47A70EF
:10A5600000F066FD4FF47A7000F062FD4FF47A70EF
:10A5700000F05EFD4FF47A7000F05AFD4FF47A70EF
:10A5800000F056FD4FF47A7000F052FD4FF47A70EF
:10A5900000F04EFDFDF76EFD8048C068132820D105
:10A5A00001207F49087024207B49087013204870DF
:10A5B00006208870882000F097FA7749C8708620B6
:10A5C00000F092FA74490871842000F08DFA724903
:10A5D0004871822000F088FA6F4988710020C871A4
:10A5E00008726E48C06812287ED124206A4908701B
:10A5F0001220487020208870002000F075FA66490B
:10A60000C870022000F070FA63490871042000F05D
:10A610006BFA61494871062000F066FA5E4988715C
:10A62000102000F061FA5C49C871122000F05CFA59
:10A6300059490872142000F057FA574948721620F9
:10A6400000F052FA54498872202000F04DFA524925
:10A65000C872222000F048FA4F490873242000F005
:10A6600043FA4D494873262000F03EFA4A49887360
:10A67000282000F039FA4849C8732A2000F034FA3B
:10A6800045490874302000F02FFA434948743220BD
:10A6900000F02AFA40498874342000F025FA3E4937
:10A6A000C874362000F020FA3B490875402000F0BD
:10A6B0001BFA39494875422000F016FA3649887568
:10A6C000442000F011FA3449C875462000F00CFA15
:10A6D00031490876502000F007FA2F494876522079
:10A6E00000F002FA2C4900E087E08876532000F061
:10A6F000FBF92949C876562000F0F6F92649087773
:10A70000602000F0F1F924494877622000F0ECF96C
:10A71000214988772348FBF7B5F922480068224988
:10A72000086020484068214908601E488068204928
:10A7300008602048FBF752FE1E494878FAF704FEED
:10A740001D4908601B490878FAF7FEFD1B4908609F
:10A7500019480068FAF70EFE0F49C87717480068D5
:10A76000FAF708FE0C4981F820000F480068FAF754
:10A770001AFE094981F821000C480068FAF713FE17
:10A78000054981F822000A480068FAF70CFE0249E0
:10A7900081F82300002013E0B404002010030020FF
:10A7A0007B000020980400209400002098000020E6
:10A7B0009C00002079000020B4000020B800002098
:10A7C000B049087000BF07E0AF49095CAD4A127894
:10A7D0001144AC4A1170401C2428F5DBA9480078CC
:10A7E000A94981F82400002405E0A748015DA74895
:10A7F000FEF79FF9641C252CF7DBA548406802286A
:10A800007ED1A348C06801281DD1A2490870A04884
:10A810000069C1B2002000F0BBF99D484069C1B297
:10A82000022000F0B5F99A488069C1B2042000F016
:10A83000AFF99748C069C1B2062000F0A9F901211B
:10A84000782000F0A5F99248C06802281ED10120A6
:10A85000904908708E480069C1B2102000F098F944
:10A860008B484069C1B2122000F092F98848806993
:10A87000C1B2142000F08CF98548C069C1B216201D
:10A8800000F086F90121722000F082F98048C0684A
:10A8900003281DD101207F4908707D480069C1B29D
:10A8A000202000F075F97A484069C1B2222000F0FA
:10A8B0006FF977488069C1B2242000F069F97448C3
:10A8C000C069C1B2262000F063F901207249087006
:10A8D0006F48C06804281BD101206E4908706C487D
:10A8E0000069C1B2282000F053F969484069C1B23B
:10A8F0002A2000F04DF968480078012808D100E0CE
:10A9000062E00020644908700121742000F040F9E1
:10A910005F48C068082819D101205E4908705C486A
:10A920000069C1B2602000F033F959484069C1B2F2
:10A93000622000F02DF9564840695549096940EAFE
:10A940000120564908800120554908705048C068C8
:10A9500009281AD101204F4908704D480069C1B239
:10A96000822000F015F94A484069C1B2842000F005
:10A970000FF947488069C1B2862000F009F94448C0
:10A98000C069C1B2882000F003F94148C0681028AE
:10A990001AD101203F4908703D480069C1B2922098
:10A9A00000F0F6F83A484069C1B2942000F0F0F89F
:10A9B00037488069C1B2962000F0EAF83448C0698F
:10A9C000C1B2982000F0E4F836480078012821D17F
:10A9D0000020344908702B49087000BF07E02A495D
:10A9E000095C284A12781144264A1170401C092833
:10A9F000F5DB2448007824494872002408E0224806
:10AA0000015D2248FEF795F8642000F02FFB641CDE
:10AA10000A2CF4DB1F480078012832D100201949A4
:10AA200008701C490870242017490870184880686D
:10AA300010304870062088700020C8700871487176
:10AA40008871C871087200BF08E01AE00E49095CFD
:10AA50000C4A127811440B4A1170401C0928F5DB8E
:10AA60000848007808494872002408E00648015D5B
:10AA70000648FEF75EF8642000F0F8FA641C0A2C21
:10AA8000F4DB10BDB2000020B404002000440040FC
:10AA900010030020810000208D00002032010020E2
:10AAA000910000207B00002008B50420ADF80000D4
:10AAB00003208DF8020014208DF803006946084831
:10AAC000FCF776F80820ADF8000003208DF80200AE
:10AAD00014208DF8030069460248FCF769F808BDA8
