:020000040800F2
:105000000804002045510008995300083D5300084A
:10501000955300088D5100080D5500080000000050
:10502000000000000000000000000000BD53000868
:1050300091510008000000009B530008A95400088B
:105040005F5100085F5100085F5100085F51000880
:105050005F5100085F5100085F5100085F51000870
:105060005F5100085F5100085F5100085F51000860
:105070005F5100085F5100085F5100085F51000850
:105080005F5100085F5100085F5100085F51000840
:105090005F5100085F5100085F5100085F51000830
:1050A0005F5100085F5100085F5100085F51000820
:1050B0005F5100085F5100085F5100085F51000810
:1050C0005F5100085F5100085F5100085F51000800
:1050D0005F5100085F5100085F5100085F510008F0
:1050E0005F5100085F5100085F5100085F510008E0
:1050F0005F5100085F5100085F5100085F510008D0
:105100005F5100085F5100085F5100085F510008BF
:105110005F5100085F5100085F5100085F510008AF
:105120005F5100085F5100085F5100085F5100089F
:10513000DFF80CD000F018F800480047D9550008F7
:10514000080400200648804706480047FEE7FEE7BF
:10515000FEE7FEE7FEE7FEE7FEE7FEE7FEE7FEE727
:10516000AD54000831510008064C074D06E0E068D8
:1051700040F0010394E8070098471034AC42F6D39E
:10518000FFF7DAFFE45500080456000800BFFEE709
:1051900070472DE9F041024600250026002000233B
:1051A0000024002791F803C00CF00F0591F803C00C
:1051B0000CF0100CBCF1000F03D091F802C04CEAC7
:1051C000050591F800C0BCF1000F31D01468002033
:1051D0002BE04FF0010C0CFA00F3B1F800C00CEA20
:1051E00003069E4220D183004FF00F0C0CFA03F708
:1051F000BC4305FA03FC4CEA040491F803C0BCF17B
:10520000280F06D14FF0010C0CFA00FCC2F814C0B4
:105210000AE091F803C0BCF1480F05D14FF0010C32
:105220000CFA00FCC2F810C0401C0828D1D314604E
:10523000B1F800C0BCF1FF0F34DD546800202EE04F
:1052400000F1080C4FF0010808FA0CF3B1F800C0A7
:105250000CEA03069E4221D183004FF00F0C0CFA9A
:1052600003F7BC4305FA03FC4CEA040491F803C0BD
:10527000BCF1280F05D100F1080C08FA0CF8C2F8AF
:10528000148091F803C0BCF1480F07D100F1080C5D
:105290004FF0010808FA0CF8C2F81080401C0828EA
:1052A000CED35460BDE8F081F0B50A460023002457
:1052B0000021002500F00046B6F1004F02D11D4E3E
:1052C000F16901E01B4E7168C0F3034583B200F43D
:1052D0004016B6F5401F08D121F07061154E766872
:1052E00026F07066134F7E6012E000F48016B6F56B
:1052F000801F06D1032606FA05F4A14341F0706130
:1053000006E0460D360103FA06F6B14341F070613E
:1053100022B1460D360103FA06F6314300F000468D
:10532000B6F1004F02D1034EF16101E0014E716010
:10533000F0BD0000000001400161704700BFFEE7C2
:1053400010B5482000F00AF900F002F810BD000086
:1053500008B501210D48FFF7A7FF0121082000F043
:105360001DF84FF40070ADF8000010208DF8030018
:1053700003208DF8020069460548FFF70AFF4FF445
:1053800000710348FFF7D8FF08BD0000000230009D
:10539000000C014000BFFEE77047704729B1064A84
:1053A00092690243044B9A6104E0034A9269824382
:1053B000014B9A617047000000100240704710B521
:1053C00000F002F810BD00000CB500200190009024
:1053D0003348006840F480303149086000BF3048ED
:1053E000006800F4003000900198401C0190009883
:1053F00018B90198B0F5A06FF1D12948006800F400
:10540000003010B10120009001E0002000900098D1
:10541000012843D12348006840F01000214908606A
:105420000846006820F0030008600846006840F065
:10543000020008601A4840681949486008464068F8
:1054400048600846406840F480604860084640680C
:1054500020F47C1048600846406840F4E81048603A
:105460000846006840F08070086000BF0C48006883
:1054700000F000700028F9D00948406820F00300CF
:10548000074948600846406840F00200486000BF95
:105490000348406800F00C000828F9D10CBD00005A
:1054A00000100240002002407047000010B5124872
:1054B000006840F0010010490860084640680F4944
:1054C00008400D494860084600680D4908400A49EF
:1054D00008600846006820F480200860084640689C
:1054E00020F4FE0048604FF41F008860FFF767FF5C
:1054F00004480549086010BD001002400000FFF894
:10550000FFFFF6FE0050000808ED00E000BFFEE7D8
:1055100002E008C8121F08C1002AFAD1704770477C
:10552000002001E001C1121F002AFBD170470000DA
:1055300010B54FF40070084908604FF4FA7000F09D
:105540002DF84FF400700449091F08604FF4FA70F9
:1055500000F024F810BD0000140C01404FF0E021D1
:10556000096921F004014FF0E0221161C21700EB3C
:105570005272C2F3C702074B1A701946097801EB41
:105580004102C2EBC1114FF6FF7202EAC101024AA9
:1055900011807047000000200200002001460D4AE3
:1055A00012884A434FF0E0235A6100229A61012297
:1055B0001A6100BF4FF0E022106900F001021AB139
:1055C00000F48032002AF5D000224FF0E0231A6167
:1055D0009A61704702000020FFF7B2FE00BFFFF79C
:1055E000A7FFFCE7045600080000002004000000AC
:1055F00010550008085600080400002004040000AC
:08560000205500080000000025
:04000005080051316D
:00000001FF
