:020000040800F2
:105000009018002045510008857E00087D7000083A
:10501000817E000819670008179000080000000052
:10502000000000000000000000000000698200088D
:10503000AD690008000000000D7F000885830008AE
:105040005F5100085F5100085F5100085F51000880
:105050005F5100085F510008B1690008E569000868
:105060005F5100085F5100085F5100085F51000860
:105070005F5100085F5100085F5100085F51000850
:105080005F5100085F5100085F5100085F51000840
:105090005F5100085F5100085F5100085F51000830
:1050A0005F5100085F5100085F5100085F51000820
:1050B0007D840008318500085F5100085F510008B9
:1050C0005F5100085F5100085F5100085F51000800
:1050D0005F51000821890008A98A0008198D00087D
:1050E0005F5100085F5100085F5100085F510008E0
:1050F0005F5100085F5100085F5100085F510008D0
:105100005F5100085F5100085F5100085F510008BF
:105110005F5100085F5100085F5100085F510008AF
:105120005F5100085F5100085F5100085F5100089F
:10513000DFF80CD000F0FEFB00480047E1B80008A3
:10514000901800200648804706480047FEE7FEE723
:10515000FEE7FEE7FEE7FEE7FEE7FEE7FEE7FEE727
:10516000898300083151000840EA01039B0703D0FE
:1051700009E008C9121F08C0042AFAD203E011F896
:10518000013B00F8013B521EF9D27047D2B201E058
:1051900000F8012B491EFBD270470022F6E710B53C
:1051A00013460A4604461946FFF7F0FF204610BD95
:1051B00030B505462A460B4612F8010B13F8014B91
:1051C00008B1A042F8D01CB1002802D06D1CF1E754
:1051D000284630BDCAB2401E10F8011F8A4202D0D4
:1051E0000029F9D100207047421C10F8011B00294A
:1051F000FBD1801A704730B504460020034600E01A
:105200005B1C934203D2E05CCD5C401BF8D030BD08
:1052100010B5044600E0401C0378002BFBD100E0F1
:10522000401C521E04D311F8013B0370002BF7D130
:1052300000210170204610BD034611F8012B00F833
:10524000012B002AF9D11846704770B5064603F0C5
:1052500071FF046805460A220021304600F0FFF97C
:105260002C6070BD2DE9FE4F804681EA0300C00F1F
:105270000C46009021F0004123F00045B8EB0200FD
:10528000A94105D24046214690461C460B4602469F
:1052900023F00040104347D0270DC7F30A00C3F3A3
:1052A0000A510290401A019040286BDAC3F31300B0
:1052B00040F4801B0098924620B10023D2EB030AF1
:1052C00063EB0B0B01985946C0F14002504600F0C9
:1052D00095F906460D4650465946019A00F0ADF93B
:1052E00010EB08006141002487EA115284EAE77359
:1052F0001A4340D0009A62B3019A012A4FEA07523A
:1053000015DC001B61EB02014FF0004202EA07527C
:10531000CDE90042001C41F5801132462B4600F0D9
:105320001CFA03B0BDE8F08F40462146F9E7001BA8
:1053300061EB0201001C41F5801300185B4120184D
:10534000A2F5001747EB030140EAD570B6196D418D
:1053500011E06D084FEA360645EAC0754FEA07527C
:10536000001B61EB0201001C41F5801149084FEA66
:1053700030000019514132462B4603B0BDE8F04FD2
:1053800000F0DCB90098012240000023D0EB0202BB
:1053900063EBE073009821464FEAE074B8EB00003D
:1053A00061EB0401E9E783F000435BE781F0004132
:1053B00058E72DE9FE4F81EA030404F0004421F090
:1053C000004100944FF0000B23F0004350EA010429
:1053D0005ED052EA03045BD0C3F30A54C1F30A550A
:1053E0002C44A4F2F3340194A0FB0254C1F3130142
:1053F00041F48011C3F3130343F4801301FB02440F
:1054000000FB034E840A970A44EA815447EA835713
:10541000A4FB076802958D0A05FB07854FEA932CCC
:1054200004FB0C542705029D4FEA065847EA16373D
:10543000B5EB08056EEB070C870E920E47EA811755
:1054400042EA8312A7FB0201B6EB0B0164EB0004F6
:105450002B0D43EA0C335E1844EB1C50DA465146E0
:10546000E7FB0201C5F313044FEA0B3343EA14537D
:105470004FEA0432019C43EA0603A4F10C040294AF
:10548000009CCDE900B400F068F903B0BDE8F08FEE
:1054900000200146F9E70EB5C10F80EAE07008442C
:1054A000CA07002140F233438DE80E000A460B463E
:1054B00000F053F903B000BD0EB540F23341029144
:1054C0000021CDE900110A460B4600F046F903B071
:1054D00000BD00F0004220F00040C10DC0F31600F6
:1054E00040F400007F2901DA00207047962903DC90
:1054F000C1F19601C84001E096398840002AF4D0F5
:1055000040427047C1F30A5210B5C1F3130140F293
:10551000FF3341F480119A4201DA002010BD40F2BD
:1055200033439A42A2F2334203DC524200F075F850
:1055300010BD904010BD01F0004330B421F0004197
:1055400050EA010206D00A0DA2F56072C1F3130100
:10555000002A02DC30BC00207047440F44EAC1043A
:10556000C100E01830BC00EBC25000F0B0B830B55C
:105570000B46014600202022012409E021FA02F511
:105580009D4205D303FA02F5491B04FA02F52844AB
:10559000151EA2F10102F1DC30BD2DE9F05F0546D8
:1055A000002092469B4688460646814640241BE0E2
:1055B000284641464746224600F02FF853465A46B1
:1055C000C01A914110D311461846224600F016F831
:1055D0002D1A67EB01084F4622460120002100F0FA
:1055E0000DF817EB00094E41201EA4F10104DFDC89
:1055F000484631462A464346BDE8F09F202A04DB50
:10560000203A00FA02F1002070479140C2F12003D5
:1056100020FA03F3194390407047202A04DB203A14
:1056200021FA02F00021704721FA02F3D040C2F1C2
:1056300020029140084319467047202A06DBCB1709
:10564000203A41FA02F043EAE07306E041FA02F33D
:10565000D040C2F1200291400843194670472DE91D
:10566000F04791460F4680460446002614F8015B39
:105670002DB100F071F90068405DC007F6D12B2D07
:1056800002D02D2D18D0641E4A463946204600F01F
:1056900067F927B13968A14201D1C7F800807105C7
:1056A0004FF002040BD54042002803DD03F042FD19
:1056B0000460A007BDE8F08746F48066E4E70028B0
:1056C000F8DA03F037FD04606FF00040F2E70029DC
:1056D000A8BF7047401C490008BF20F00100704778
:1056E00010B4B0FA80FC00FA0CF050EA010404BFD8
:1056F00010BC704749B1CCF1200421FA04F411FA2E
:105700000CF118BF012121430843A3EB0C01CB1D71
:105710004FEA00614FEA102042BF002010BC7047E2
:1057200000EBC35010440029A4BF10BC7047401CBC
:10573000490008BF20F0010010BC704710B5141ECE
:1057400073F1000408DA401C41F1000192185B413A
:105750001A4301D120F0010010BD2DE9F04D924611
:105760009B4611B1B1FA81F202E0B0FA80F2203228
:105770009046FFF743FF04460F4640EA0A0041EA1D
:105780000B0153465A46084313D0114653EA010011
:1057900019D0C8F140025046FFF73FFF05460E46BC
:1057A000504659464246FFF729FF084305D00120DD
:1057B00004E020463946BDE8F08D0020054346EA66
:1057C000E0762C4337430A986305E40AA0EB08000F
:1057D0000022FD0A44EA47540A3002D5002001465F
:1057E000E9E7010510196941DDE90845001969413A
:1057F000BDE8F04DA2E72DE9F04D81EA030404F085
:10580000004B21F0004514464FF0000A23F0004100
:1058100050EA050220D054EA01021DD0C5F30A5710
:105820000246C5F31303C1F31300C1F30A5640F453
:10583000801543F48013A7EB0608101BD64608F228
:10584000FD3873EB050002D308F1010801E092185E
:105850005B41B8F1000F03DA00200146BDE8F08D8E
:1058600000204FF48011064684460EE0171B73EBB0
:10587000050705D3121B63EB050306434CEA010C35
:1058800049084FEA300092185B4150EA0107EDD118
:1058900052EA030012D082EA040083EA05010843B9
:1058A00005D0101BAB4106D20122002306E00022E6
:1058B0004FF0004302E06FF0010253101AEB0600B4
:1058C0004CEB085110EB0A0041EB0B01BDE8F04D29
:1058D000FFF734BFC1F30A52C1F3130140F2FF33A3
:1058E00041F480119A4202DA00200146704740F2EA
:1058F00033439A42A2F2334202DC5242FFF78DBE9A
:10590000FFF77CBE30B5041E71F1000404DB4FF0DC
:105910000044404264EB0101141E73F1000405DBF6
:105920001C464FF00043524263EB0403994208BF08
:10593000904230BD064C074D06E0E06840F00103A0
:1059400094E8070098471034AC42F6D3FFF7F4FB15
:1059500030D5000850D500080048704714D400081E
:105960002DE9F05F82460078002715468B460AF144
:105970000104B946302801D09DB113E014F8010BA1
:105980000127782803D0582801D045B10AE00DB18D
:10599000102D07D10027102514F8010B02E008256F
:1059A00000E00A250026B0460EE005FB080005FBD6
:1059B00006F1012701EB10461FFA80F8B6F5803F8B
:1059C00000D3B94614F8010B294600F018F8002856
:1059D000EBDABBF1000F05D00FB1641E00E05446B6
:1059E000CBF80040B9F1000F06D003F0A3FB022171
:1059F0000160C81EBDE8F09F48EA0640FAE73A2871
:105A000000D2303820F02002412A01D3A2F1370021
:105A1000884201D34FF0FF30704770B58C1810F8F2
:105A2000015B15F0070301D110F8013B2A1106D1E3
:105A300010F8012B03E010F8016B01F8016B5B1EFD
:105A4000F9D12B0705D40023521E0DD401F8013BD8
:105A5000FAE710F8013BCB1A921C03E013F8015B44
:105A600001F8015B521EF9D5A142D8D3002070BDC8
:105A700008B50121084602F07BFA01214FF40770B6
:105A800002F0A6FA1020ADF8000000208DF8030007
:105A900069460C4801F0DAF90120ADF80000002059
:105AA0008DF803006946084801F0D0F90220ADF8EE
:105AB000000000208DF803006946034801F0C6F994
:105AC00008BD0000000801400010014010B5FFF7BC
:105AD000CFFF00F001F810BD00B591B03A4800F0DA
:105AE000A1FE3A4806903A4807900020089003200B
:105AF000099000200A9080200B9040000C908000BC
:105B00000D9020200E9000020F900020109006A90A
:105B10002D4800F02DFF01212B4800F077FE0020DA
:105B2000019001208DF808008DF809004FF46020E5
:105B300003900020049003208DF8140001A923484D
:105B40004C3800F071F84FF4404002F005FA03239E
:105B5000012204211D484C3800F08EF80323022254
:105B60000A211A484C3800F087F803231A460B2103
:105B700016484C3800F080F8012114484C3800F0E9
:105B800034F8012111484C3800F024F80F484C3803
:105B900000F0CEF800BF0D484C3800F03BF800286C
:105BA000F9D10A484C3800F0D3F800BF07484C3808
:105BB00000F026F80028F9D1012104484C3800F003
:105BC000BCF811B000BD0000080002404C240140A8
:105BD0002A00002021B1826842F00102826003E0C5
:105BE000826822F001028260704721B1826842F42B
:105BF0008072826003E0826822F480728260704763
:105C0000014600208A6802F004020AB1012000E087
:105C100000207047014600208A6802F008020AB19D
:105C2000012000E00020704730B50246002000232C
:105C300050680F4C20400D790C6844EA052420433D
:105C4000506090680B4C2040D1E902542C434D79B0
:105C500044EA450420439060D06A20F470000C7C34
:105C6000641EE4B2234340EA0350D06230BD00001A
:105C7000FFFEF0FFFDF7F1FFF0B504460D460020F2
:105C80000021092D11DDE068A5F10A0606EB4607A3
:105C9000072606FA07F18843A5F10A0606EB460631
:105CA00003FA06F10843E0600CE0206905EB4507C4
:105CB000072606FA07F1884305EB450603FA06F1C5
:105CC00008432061072A0FDA606B561E06EB860731
:105CD0001F2606FA07F18843561E06EB860605FACC
:105CE00006F10843606322E00D2A0FDA206BD61F0D
:105CF00006EB86071F2606FA07F18843D61F06EB38
:105D0000860605FA06F10843206310E0E06AA2F176
:105D10000D0606EB86071F2606FA07F18843A2F157
:105D20000D0606EB860605FA06F10843E062F0BDB3
:105D3000816841F008018160704721B1826842F4B6
:105D4000A002826003E0826822F4A00282607047B1
:105D5000816841F004018160704700002DE9FC4733
:105D60008146322000F0C4F88DF80000332000F0A6
:105D7000BFF88DF80100012005F026FB342000F06B
:105D8000B7F88DF80200352000F0B2F88DF8030066
:105D9000012005F019FB362000F0AAF88DF8040068
:105DA000372000F0A5F88DF80500012005F00CFB68
:105DB0009DF800009DF8011000EB012004B2002CBA
:105DC00001DA604204B22046FFF765FB07464FF058
:105DD00033321E4BFFF7EDFA0546FFF7ACFBC9F86F
:105DE00000009DF802009DF8031000EB012004B2B2
:105DF000002C01DA604204B22046FFF74CFB054656
:105E00004FF03332114BFFF7D4FA0746FFF793FBFD
:105E1000C9F804009DF804009DF8051000EB01206E
:105E200004B2002C01DA604204B22046FFF733FBD3
:105E300005464FF03332054BFFF7BBFA0746FFF735
:105E40007AFBC9F80800BDE8FC87000033330F4037
:105E500010B502F0AFF900211E2000F073F8002108
:105E60001F2000F06FF80021202000F06BF80021C7
:105E7000212000F067F80021222000F063F80021C3
:105E8000232000F05FF80121242000F05BF80121BD
:105E9000252000F057F82B21262000F053F8002190
:105EA000272000F04FF80921282000F04BF8FF21AF
:105EB000292000F047F880212A2000F043F80F2124
:105EC0002C2000F03FF808212D2000F03BF8802125
:105ED0002E2000F037F800212F2000F033F80B219E
:105EE000312000F02FF80021382000F02BF810BDF1
:105EF00010B504461021114801F085F844F08000E7
:105F0000002242EA00210E4802F034F900BF0221CB
:105F10000B4802F023F90028F9D000BF01210848FE
:105F200002F01CF90028F9D01021044801F06DF8A6
:105F3000034802F01CF9C0B210BD0000001001407F
:105F40000030014070B504460D4610210E4801F0A6
:105F50005AF845EA04210D4802F00CF900BF02216D
:105F60000A4802F0FBF80028F9D000BF01210748D9
:105F700002F0F4F80028F9D01021034801F045F8A8
:105F8000024802F0F4F870BD0010014000300140FA
:105F900030B587B039483AA102683A4803F0B6F8FC
:105FA0003948002102910391CDE9041000913C236E
:105FB000344A019135A138A001F0D6F9002858D112
:105FC0003148808882B230480168042005F0E6FF3D
:105FD0004FF4FA6005F0F8F90CE0042005F017FC26
:105FE000044622462E49042005F056FE012005F005
:105FF000EBF903E02A4800782028EED100BF2848BA
:106000000078202802D1012026490870244D002D57
:106010002BD0284601F0A0FE022826D1284601F008
:1060200083FD06281CD2DFE800F003070B0F1317CF
:106030001DA003F05BF817E020A003F057F813E071
:1060400025A003F053F80FE02CA003F04FF80BE06D
:1060500032A003F04BF807E039A003F047F803E063
:1060600042A003F043F800BF00BF074801F0DAF890
:1060700002E045A003F03AF807B030BD4800002028
:10608000256400005C0800205009002070617373D3
:10609000776F72640000000061646D696E0000003B
:1060A0008E08002069000020546970733A09C1AC61
:1060B000BDD3B3C9B9A60D0A000000005741524E26
:1060C0003A09C1ACBDD3CAA7B0DCA3BAD0ADD2E9FE
:1060D000B4EDCEF30D0A00005741524E3A09C1AC5F
:1060E000BDD3CAA7B0DCA3BAB7C7B7A8B5C4636CA1
:1060F00069656E7469640D0A000000005741524ED4
:106100003A09C1ACBDD3CAA7B0DCA3BAB7FECEF181
:10611000C6F7CAA7B0DC0D0A000000005741524E76
:106120003A09C1ACBDD3CAA7B0DCA3BAD3C3BBA7DD
:10613000C3FBBBF2C3DCC2EBB4EDCEF30D0A00002F
:106140005741524E3A09C1ACBDD3CAA7B0DCA3BA7D
:10615000B7C7B7A8C1B4BDD328B1C8C8E7746F6BBF
:10616000656EB7C7B7A8290D0A0000004552523A1C
:1061700009C1ACBDD3CAA7B0DCA3BACEB4D6AAB409
:10618000EDCEF30D0A0000005741524E3A094D5131
:1061900054545F5061636B6574436F6E6E656374D6
:1061A000204661696C65640D0A00000070B588B016
:1061B00004460D4616460020049005900690079070
:1061C00004A80121002200923346CDE90121039069
:1061D0002A4621460A2001F015FAB8B9059882B27C
:1061E0000420049905F0DAFE0EA002F07FFF0020E3
:1061F0000F49087004A801F015F8642005F0E4F8D0
:1062000000200C4908700C49087008E004A801F04F
:1062100009F8642005F0D8F808A002F067FF08B07C
:1062200070BD0000B7A2CBCDB3C9B9A60D0A00005E
:106230009D0000208800002074000020B7A2CBCD74
:10624000CAA7B0DC0D0A00002DE9F0438BB0074669
:1062500000200790089009900A900690059000266B
:106260000490002500248046384601F075FD06465E
:10627000F01E0D2870D2DFE800F026707891ACCCCB
:10628000B4CCC0CCCCCC070006AA05A9384601F096
:1062900006FC0546B5B977A0DDE9051202F026FF38
:1062A00007AADDE9050101F019F858B977A002F055
:1062B0001DFF089882B20420079905F06FFE07A819
:1062C00000F0B0FFA8E0774804AB06AA05A900904B
:1062D000384601F039FC0546002D3CD172A0DDE9BD
:1062E000051202F003FF0698FEF77EFF81464A463C
:1062F00074480699FEF738FF9DF81000012802D077
:10630000022826D112E007A96648008801F020FA89
:1063100058B96DA002F0EAFE089882B204200799ED
:1063200005F03CFE07A800F07DFF13E007A95D48DB
:10633000008801F055FA58B969A002F0D7FE089814
:1063400082B20420079905F029FE07A800F06AFF31
:1063500000E000BF00BF5FE05BE0384601F0BCFC3E
:1063600010B965A002F0C2FE56E0384601F0D2FC3A
:1063700098B969A002F0BAFE07A90A2001F054FA00
:1063800058B96BA002F0B2FE089882B204200799B7
:1063900005F004FE07A800F045FF3DE041480188F4
:1063A000384601F0C6FC98B967A002F09FFE07A925
:1063B0000A2001F0F1F958B969A002F097FE089897
:1063C00082B20420079905F0E9FD07A800F02AFF32
:1063D00022E0384601F08FFC10B968A002F086FE7A
:1063E0001AE0384601F0F2FC18B96AA002F07EFE0D
:1063F00002E06FA002F07AFE0EE0384601F000FDE8
:1064000018B972A002F072FE02E077A002F06EFEF0
:1064100002E04FF0FF3500BF00BF681C10B90BB0A1
:10642000BDE8F0837D210698FEF7D4FE0446A4B1B2
:10643000681C90B1641C06E014F8012B404608F17A
:10644000010801A90A542078302802DB2078392875
:10645000F2DD01A8FEF7F9FE80460F2E01D0032ED3
:1064600005D1059805F07AF9069805F077F900BF8F
:10647000D5E70000636D6469643A2025732C2072AF
:1064800065713A2025730D0A00000000546970738D
:106490003A0953656E6420436D64526573700D0A4A
:1064A0000000000060020020746F7069633A2025CC
:1064B000730D0A7061796C6F61643A2025730D0A5F
:1064C000000000000E090020546970733A095365FA
:1064D0006E64205075626C69736841636B0D0A00CD
:1064E000546970733A0953656E64205075626C6923
:1064F00073685265630D0A00546970733A094D510F
:106500005454205075626C6973682053656E642022
:106510004F4B0D0A00000000546970733A09526530
:1065200076205075626C6973685265630D0A0000CD
:10653000546970733A0953656E64205075626C69D2
:10654000736852656C0D0A00546970733A0952659C
:1065500076205075626C69736852656C0D0A000094
:10656000546970733A0953656E64205075626C69A2
:106570007368436F6D700D0A0000000054697073FA
:106580003A09526576205075626C697368436F6D85
:10659000700D0A00546970733A094D5154542053D8
:1065A0007562736372696265204F4B0D0A000000CB
:1065B000546970733A094D51545420537562736392
:1065C00072696265204572720D0A00005469707329
:1065D0003A094D51545420556E5375627363726974
:1065E0006265204F4B0D0A00546970733A094D5192
:1065F000545420556E537562736372696265204509
:1066000072720D0A00000000F0B585B004460D4618
:1066100000260020019002900390049006E054F8B8
:10662000261021A002F062FD701CC6B2AE42F6DB5D
:1066300001A82B46224600210090142001F018F9F1
:1066400040B9029882B20420019905F0A7FC01A884
:1066500000F0E8FD642004F0B7FE042005F0D7F850
:1066600007463A461649042005F016FB14480079FF
:1066700030B1012808D002280AD0802810D10BE0C0
:1066800010A002F033FD0BE014A002F02FFD07E094
:1066900018A002F02BFD03E01CA002F027FD00BFB4
:1066A00000BF05B0F0BD000053756273637269628C
:1066B0006520546F7069633A2025730D0A0000004D
:1066C0008E080020B6A9D4C4C8B7C8CFA3AC205147
:1066D0006F53B5C8BCB6300D0A000000B6A9D4C4CB
:1066E000C8B7C8CFA3AC20516F53B5C8BCB6310DE5
:1066F0000A000000B6A9D4C4C8B7C8CFA3AC2051C3
:106700006F53B5C8BCB632200D0A0000B6A9D4C478
:10671000CAA7B0DC200D0A0000BFFEE72DE9F0415A
:1067200004464FF48071224800F06DFC142004F000
:106730004BFE4FF480711E4800F067FC282004F0E7
:1067400061FE4FF480711A4800F054FC68BB00BF32
:106750004FF48071164800F04DFC0028F8D000BFBF
:106760004FF48071124800F045FC0028F8D100F089
:1067700021F8207000F01EF8064600F01BF860704B
:1067800000F018F8074600F015F805464FF4807140
:10679000074800F03AFC20786178084430443844D7
:1067A000A84202D10120BDE8F0810020FBE70000F3
:1067B0000008014070B50024002521E000BF4FF41F
:1067C0008071114800F016FC0028F8D0212004F058
:1067D00019FE4FF480710C4800F00CFC60B10120F0
:1067E00000EB4400C4B200BF4FF48071064800F0D3
:1067F00001FC0028F8D101E06006040E681CC5B257
:10680000082DDBDB204670BD0008014021B1026885
:1068100042F00102026004E002684FF6FE731A4083
:106820000260704701684FF6FE721140016000215E
:10683000016041608160C1604B49884208D14A498A
:106840000839496841F00F01474A083A51608AE027
:1068500045491431884208D143490839496841F013
:10686000F001414A083A51607DE03F4928318842B1
:1068700008D13D490839496841F470613A4A083AFB
:10688000516070E038493C31884208D136490839B6
:10689000496841F47041344A083A516063E0324932
:1068A0005031884208D130490839496841F4702193
:1068B0002D4A083A516056E02B496431884208D18C
:1068C00029490839496841F47001274A083A51605A
:1068D00049E025497831884208D123490839496877
:1068E00041F07061204A083A51603CE01F498842FB
:1068F00006D1011F096841F00F01021F116032E04B
:106900001A491431884208D11849091F096841F011
:10691000F001164A121F116025E0144928318842FF
:1069200008D11249091F096841F470610F4A121F0A
:10693000116018E00D493C31884208D10B49091F0C
:10694000096841F47041094A121F11600BE00749C0
:106950005031884207D10549091F096841F4702167
:10696000024A121F116070470800024008040240EA
:1069700010B50022026847F6F0739A430C6A8B68E0
:1069800023430C6923434C6923438C692343CC691B
:1069900023434C6A23438C6A23431A430260CB6827
:1069A00043600B6883604B68C36010BD7047000094
:1069B00010B5012000F03CF860B1012000F02CF887
:1069C0000548006800F001000449086008460078A6
:1069D0000349087010BD00000808014010000020A5
:1069E0009800002010B5022000F022F860B10220CB
:1069F00000F012F80548006800F002000449086041
:106A0000084600780349087010BD000008080140DE
:106A10000C0000209700002001490860704700002A
:106A20001404014010B500F061F800F097F810BDB3
:106A3000014600200022074B1B6803EA0102054BB8
:106A400014331B680B4013B10AB1012000E0002091
:106A50007047000000040140002123498279002A88
:106A60003AD00A46126803689A430B461A600A1D18
:106A7000126803689A430B1D1A60027911440A6870
:106A800003681A430A60184A0832126803689A4376
:106A9000154B08331A601A1D126803689A43124B8B
:106AA0000C331A604279102A0ED11A1F126803683B
:106AB0001A430D4B08331A601A1D126803681A43F3
:106AC000094B0C331A600DE00749427911440A68FA
:106AD00003681A430A6005E0027911440A680368F2
:106AE0009A430A6070470000000401401FB501216D
:106AF000052001F06DFA4FF4E06001F0FDF9062089
:106B00008DF80C0000208DF80D0006208DF80E0089
:106B100001208DF80F0003A801F0B6F90120ADF8AF
:106B2000080028208DF80B0002A90B4800F08EF910
:106B30000021084600F06AF90120009000208DF83D
:106B4000040010208DF8050001208DF8060068462D
:106B5000FFF782FF1FBD0000000801401FB50121A3
:106B6000052001F035FA4FF4E06001F0C5F9072087
:106B70008DF80C0000208DF80D0007208DF80E0018
:106B800001208DF80F0003A801F07EF90220ADF876
:106B9000080028208DF80B0002A90B4800F056F9D8
:106BA0000121002000F032F90220009000208DF831
:106BB000040010208DF8050001208DF806006846BD
:106BC000FFF74AFF1FBD00000008014008B5012182
:106BD0003D2001F0FDF90121884800F0C3F9402073
:106BE000ADF8000001208DF8020048208DF8030068
:106BF0006946834800F02AF98020ADF800000120A2
:106C00008DF8020010208DF8030069467C4800F0E2
:106C10001DF94FF48070ADF8000003208DF80200DC
:106C200014208DF803006946764800F00FF9202003
:106C3000ADF8000001208DF8020010208DF803004F
:106C40006946714800F002F920216F4800F0DDF933
:106C50004020ADF8000001208DF8020010208DF8D2
:106C600003006946684800F0F1F84021664800F0EA
:106C7000CCF98020ADF8000001208DF80200102032
:106C80008DF803006946604800F0E0F880215E4816
:106C900000F0BBF94FF48070ADF8000001208DF8D2
:106CA000020010208DF803006946574800F0CEF826
:106CB0004FF48071544800F0A8F94FF40070ADF81B
:106CC000000001208DF8020010208DF803006946B5
:106CD0004D4800F0BBF84FF400714B4800F095F9B7
:106CE0004FF40050ADF8000001208DF80200102094
:106CF0008DF803006946424800F0A8F84FF40051AF
:106D00003F4800F082F94FF48040ADF800000120C8
:106D10008DF8020010208DF803006946384800F015
:106D200095F84FF48041364800F06FF94FF4004079
:106D3000ADF8000001208DF8020010208DF803004E
:106D400069462F4800F082F84FF400412C4800F0CB
:106D50005CF92020ADF8000001208DF80200102021
:106D60008DF803006946264800F070F82021244879
:106D700000F04BF90120ADF800008DF80200102062
:106D80008DF803006946204800F060F801211E4894
:106D900000F03BF90220ADF8000001208DF8020060
:106DA00010208DF803006946174800F04FF80221C3
:106DB000154800F02AF90820ADF8000001208DF8F0
:106DC000020010208DF8030069460D4800F03EF8DF
:106DD00008210B4800F019F91020ADF8000001203F
:106DE0008DF8020010208DF803006946064800F077
:106DF0002DF81021044800F008F908BD0002300009
:106E00000010014000080140000C014030B5002294
:106E10008B071C0F0F2303FA04F20B4B8C1053F853
:106E200024309343084C8D1044F8253023468C10B1
:106E300053F824308C07240F00FA04F42343024C47
:106E40008D1044F8253030BD080001402DE9F04197
:106E5000024600250026002000230024002791F888
:106E600003C00CF00F0591F803C00CF0100CBCF13E
:106E7000000F03D091F802C04CEA050591F800C05C
:106E8000BCF1000F31D0146800202BE04FF0010C52
:106E90000CFA00F3B1F800C00CEA03069E4220D1C0
:106EA00083004FF00F0C0CFA03F7BC4305FA03FC08
:106EB0004CEA040491F803C0BCF1280F06D14FF04E
:106EC000010C0CFA00FCC2F814C00AE091F803C0EF
:106ED000BCF1480F05D14FF0010C0CFA00FCC2F8D0
:106EE00010C0401C0828D1D31460B1F800C0BCF118
:106EF000FF0F34DD546800202EE000F1080C4FF045
:106F0000010808FA0CF3B1F800C00CEA03069E422F
:106F100021D183004FF00F0C0CFA03F7BC4305FAA4
:106F200003FC4CEA040491F803C0BCF1280F05D11E
:106F300000F1080C08FA0CF8C2F8148091F803C0AC
:106F4000BCF1480F07D100F1080C4FF0010808FA16
:106F50000CF8C2F81080401C0828CED35460BDE85D
:106F6000F0810000F0B50A4600230024002100252E
:106F700000F00046B6F1004F02D11D4EF16901E06C
:106F80001B4E7168C0F3034583B200F44016B6F59A
:106F9000401F08D121F07061154E766826F07066AA
:106FA000134F7E6012E000F48016B6F5801F06D104
:106FB000032606FA05F4A14341F0706106E0460D90
:106FC000360103FA06F6B14341F0706122B1460D75
:106FD000360103FA06F6314300F00046B6F1004FE1
:106FE00002D1034EF16101E0014E7160F0BD00007D
:106FF000000001400246002093680B400BB10120C5
:1070000000E00020704741617047016170474FF612
:10701000FF710180022181700421C170704700005E
:1070200010B50F4800680F4908600D48001D006842
:1070300048600B48083000688860084600684008CF
:10704000496800EB91000749896800EBD1000649C7
:1070500008600846016805A002F048F810BD00006D
:10706000E8F7FF1F2403002048000020CEA8D2BB71
:107070006964A3BA25640D0A0000000000BFFEE7A2
:1070800010B5002001F0CAFF10BD10B5012001F0BD
:10709000C5FF10BD70B504460025FFF7F1FFC4F32E
:1070A000074000F010F8C4F3072000F00CF804F0DB
:1070B000F80000F008F8002000F005F80546FFF79A
:1070C000E4FF284670BD10B50446204601F01EF8C6
:1070D00010BD70B504460D46FFF7D2FFC4F307405C
:1070E000FFF7F1FFC4F30720FFF7EDFF04F0F8010D
:1070F000091DC8B2FFF7E7FF2846FFF7E4FFFFF7D7
:10710000C4FF70BD4CF6CC400149086070470000D8
:107110000030004010B500F013F810BD70B5054602
:107120000C4645F2555000F01FF8284600F010F8C4
:10713000204600F013F800F003F8FFF7E3FF70BDFE
:107140004AF6AA200149086070470000003000405C
:1071500001494860704700000030004001498860E4
:10716000704700000030004001490860704700008F
:107170000030004010B54FF47A7004F025F940F665
:10718000A6610420FFF7CAFF01F04EF901F090F963
:1071900001F0A4F901F0F6F9FFF718FD01F050FF36
:1071A00003F04AFEFEF754FEFEF790FCFFF73AFCB0
:1071B00001F032FC01F06EFB01F064FD01F018FCFF
:1071C00001F026FE01F048FD00F0A2FEFFF728FFC7
:1071D00000F088FF05F0E4FF04F0BAFC05F0AEFE15
:1071E00005F004FD0749084805F03EFF07A001F03F
:1071F0007DFF0121084600F0CBFE0121880701F048
:10720000DCF910BDE5000020DD00002057353530E9
:107210003020496E697420436F6D706C6574652110
:107220000D0A000010B50446207B012802D1206819
:1072300004F094FA002020606060A060207310BD0C
:107240000246002301230DE002F07F000870D209FE
:107250002AB1087840F080000870491C01E0184607
:1072600070475B1C042BEFDD4FF0FF30F8E70000A8
:1072700070B504460E4600252068B8B90120207379
:10728000304604F037FB2060206858B10020606071
:10729000A66003E00020216848556D1CA068A84244
:1072A000F8D814E00AA001F021FF10E002202073BA
:1072B00003E00020216848556D1CA068A842F8D85A
:1072C00000206060A068B04201D20020206070BD44
:1072D000B7D6C5E4B3F6B4ED0D0A00002DE9FF5FA3
:1072E00007460D4690463846FDF77EFF86B2284693
:1072F000FDF77AFF1FFA80FA4FF00009B01D04F085
:10730000F9FA04461CB9012004B0BDE8F09FB11D94
:107310002046FDF742FF12A0016821608088A0800E
:10732000324639462046FDF773FF2846FDF75CFFDD
:1073300083460120002100915B462A46CDE90208E0
:10734000019121460A2000F05DF910B94FF00009C3
:1073500001E04FF00109204604F000FA4846D3E767
:1073600024637273702F00002DE9FF4F83B08246B3
:107370008B469146159C0025002002900F27019016
:107380004846FDF731FF8046B9F1000F03D10120D7
:1073900007B0BDE8F08F08F10200384487B21098BA
:1073A00008B145F00205129878B145F0040512982D
:1073B000FDF71AFFC0B202901398FDF715FF0146C2
:1073C0000298001D0844384487B2119820B1012862
:1073D00004D0022808D104E000BF07E045F00C0506
:1073E00004E045F0140501E00220D1E700BF149845
:1073F00008B145F02405BAF1000F02D0BBF1000F2F
:1074000001D10320C4E745F0C0055046FDF7ECFE6E
:1074100006465846FDF7E8FE3044001D384487B262
:1074200039462046FFF724FF206808B90420AFE75B
:1074300039462068FDF7B1FE10216268501C60607B
:1074400020688154D4E90023D118781FFFF7F8FE93
:1074500001900198002804DA2046FFF7E3FE05209A
:1074600096E7616801980844606000216268501CDA
:1074700060602068815404216268501C606020684C
:1074800081544D216268501C6060206881545121F4
:107490006268501C60602068815454216268501CEE
:1074A0006060206881546268501C6060206881546C
:1074B00004216268501C6060206881546168481C27
:1074C0006060206845540698010A6268501C60603C
:1074D000206881540698C1B26268501C60602068C0
:1074E0008154C8F307216268501C60602068815491
:1074F0006268501C6060206800F80280D4E90012C5
:10750000881842464946FDF783FE60684044606043
:1075100005F00400B8B30026139808B938A01390FA
:107520001298FDF761FE86B2310A6268501C6060F5
:10753000206881546268501C606020688654D4E9D9
:107540000012881832461299FDF762FE60683044D6
:1075500060601398FDF748FE86B2310A6268501CDD
:107560006060206881546268501C606020688654A6
:10757000D4E90012881832461399FDF749FE606875
:107580003044606000BF05F08000C8B15046FDF790
:107590002BFE86B2310A6268501C606020688154FC
:1075A0006268501C606020688654D4E90012881814
:1075B00032465146FDF72CFE60683044606000BFE3
:1075C00005F04000C8B15846FDF70EFE86B2310AFC
:1075D0006268501C6060206881546268501C606062
:1075E00020688654D4E90012881832465946FDF7BF
:1075F0000FFE60683044606000BF0020C8E60000F5
:10760000000000002DE9F84F8046894693469A46CF
:107610000D9C00270025002000900026606020734C
:10762000A060B8F1000F02D10120BDE8F88F00255D
:107630000AE019F80500232803D019F805002B28C3
:1076400001D10220F1E76D1C19F805000028F0D1E6
:1076500046F030060B9808B146F0010605EB0A002B
:10766000871C0A9820B1012804D002280AD105E01D
:1076700000BF09E046F00206BF1C05E046F0040624
:10768000BF1C01E00320D0E700BFF91C2046FFF734
:10769000EFFD206820B92AA001F028FD0420C4E7EE
:1076A000F91C2068FDF779FD6168481C606020685E
:1076B0004654D4E9000281183846FFF7C1FD009016
:1076C0000098002804DA2046FFF7ACFD0520ACE75F
:1076D0006168009808446060C5F307216268501C27
:1076E0006060206881546268501C60602068855426
:1076F000D4E9001288182A464946FDF789FD6068DA
:10770000284460600A9860B14FEA18216268501CF2
:107710006060206881546268501C6060206800F8D6
:107720000280BBF1000F09D0D4E90012881852463C
:107730005946FDF76DFD606850446060002074E7B5
:10774000CAFDBEDDC1F7B3F6B4ED0D0A00000000BE
:1077500070B505460C4604212046FFF789FD2068D8
:1077600008B9012070BD62216268501C6060206809
:10777000815402216268501C606020688154291283
:107780006268501C6060206881546268501C6060B0
:10779000206885540020E5E770B505460C460421B5
:1077A0002046FFF765FD206808B9012070BD622101
:1077B0006268501C60602068815402216268501C1D
:1077C00060602068815429126268501C60602068E3
:1077D00081546268501C6060206885540020E5E791
:1077E00070B505460C4604212046FFF741FD206890
:1077F00008B9012070BD50216268501C606020688B
:10780000815402216268501C6060206881542912F2
:107810006268501C6060206881546268501C60601F
:10782000206885540020E5E770B505460C46042124
:107830002046FFF71DFD206808B9012070BD6221B8
:107840006268501C60602068815402216268501C8C
:1078500060602068815429126268501C6060206852
:1078600081546268501C6060206885540020E5E700
:107870002DE9FF5F8046174699460E9C0026B246CA
:10788000B3460025B8F1000F03D1012004B0BDE8D4
:10789000F09F0BE057F8250008B90220F6E757F8EB
:1078A0002500FDF7A1FC0644681CC5B24D45F1DB7F
:1078B00009EB4900801C00EB060A0AF1050120468D
:1078C000FFF7D6FC206808B90320DFE78221626851
:1078D000501C606020688154D4E900028118504631
:1078E000FFF7AEFC8346BBF1000F04DA2046FFF73A
:1078F00099FC0420CAE76068584460604FEA182188
:107900006268501C6060206881546268501C60602E
:10791000206800F80280002524E057F82500FDF7D4
:1079200063FC0646C6F307216268501C606020684D
:1079300081546268501C606020688654D4E900233A
:10794000D01857F825103246FDF762FC60683044C5
:1079500060600198C1B26268501C60602068815408
:10796000681CC5B24D45D8DB00208FE72DE9F05FDC
:1079700080460F4691461C460026B246B346002577
:10798000B8F1000F02D10120BDE8F09F0BE057F8DD
:10799000250008B90220F7E757F82500FDF724FC79
:1079A0000644681CC5B24D45F1DB022000EB4900DE
:1079B00000EB060A0AF105012046FFF759FC206892
:1079C00008B90320E0E7A2216268501C60602068CB
:1079D0008154D4E9000281185046FFF731FC8346F8
:1079E000BBF1000F04DA2046FFF71CFC0420CBE7B4
:1079F0006068584460604FEA18216268501C6060FB
:107A0000206881546268501C6060206800F8028021
:107A100000251DE057F82500FDF7E6FB0646C6F3F6
:107A200007216268501C6060206881546268501CA5
:107A3000606020688654D4E90023D01857F82510D8
:107A40003246FDF7E5FB606830446060681CC5B2F3
:107A50004D45DFDB002097E7F0B504460D4626468E
:107A6000012300201060002114E0775C07F07F07FD
:107A7000106807FB03001060705C00F0800008B91C
:107A8000481CF0BDDB01B3F5001F02D36FF001000D
:107A9000F7E7491CA942E8DB4FF0FF30F1E72DE999
:107AA000F84307460C4615462F21F81CFDF792FBBC
:107AB000064600200090804616B90120BDE8F883F4
:107AC000761C6A460421781CFFF7C6FF252003F0C8
:107AD00011FF2060206808B90220EFE72521206807
:107AE000FDF75BFB242231462068FDF73DFB243681
:107AF00000982C381FFA80F808F1010003F0FAFE14
:107B00002860286820B9206803F028FE0320D5E704
:107B100008F101012868FDF740FB4246314628681C
:107B2000FDF722FB0020C9E701464878022801D072
:107B300001207047887810B18878012801D1C87871
:107B4000F7E7FF20F5E700002DE9FC5F81460D46D1
:107B500016469A4699F8000000F00F0B002001909D
:107B60000BF0080000904FF000080024CBF3410018
:107B70008AF8000001AA042109F10100FFF76CFF57
:107B80004844471C0198022802D30BF0010010B1B1
:107B9000FF20BDE8FC9F7878397840EA0124A01CDA
:107BA0000199814201D2FF20F3E749A1B81CFDF7FA
:107BB000FFFA08B10F20ECE79AF8000020B1012885
:107BC00033D0022872D131E0009808B1FF20E0E7FD
:107BD000601C03F08FFE2860286808B9FF20D8E7F2
:107BE000611C2868FDF7D9FA2246B91C2868FDF700
:107BF000BBFA0198801EA0EB040808F1010003F015
:107C000079FE3060306820B9286803F0A7FDFF20B6
:107C1000BFE708F101013068FDF7BFFABA1C11197E
:107C200042463068FDF7A0FA42E000BFA01C01996F
:107C3000884201D9FF20ACE7E01C395CA01C385C0D
:107C400041EA00210C9801800C9808B9FF20A0E7B8
:107C5000601C03F04FFE2860286808B9FF2098E7F1
:107C6000611C2868FDF799FA2246B91C2868FDF7BF
:107C70007BFA0198001FA0EB040808F1010003F053
:107C800039FE3060306820B9286803F067FDFF20B6
:107C90007FE708F101013068FDF77FFA3A1D1119FD
:107CA00042463068FDF760FA02E0FFE7FF2070E728
:107CB00000BF2B212846FDF78DFA20B92321284645
:107CC000FDF788FA08B1FF2063E7002061E70000B4
:107CD000246372657100000001464878022801D0D3
:107CE00001207047887820B9C8780A2801D100207F
:107CF000F7E70120F5E701464878022801D0012086
:107D00007047887820B9C8780A2801D10020F7E7A1
:107D10000120F5E701464878022801D0012070478C
:107D2000887820B9C8780A2801D10020F7E7012017
:107D3000F5E702465078022801D00120704790787C
:107D4000B0EB112F05D1D078CBB2984201D10020F1
:107D5000F4E70120F2E70000F8B50446FF27207899
:107D60000511012D01DB0E2D01DD3846F8BD032D77
:107D700024D1002000906A460421601CFFF76CFEAD
:107D80002044461C0098022803D3207800F001000C
:107D900008B1FF20EAE77078317840EA0120801CC2
:107DA0000099884201D9FF20E0E706A1B01CFDF749
:107DB000FFF908B10F2700E0032700E02F463846FF
:107DC000D4E7000024637265710000000146FF20C3
:107DD0008A78A2B9CA78142A11D10A7932B1012A53
:107DE00005D0022A04D0802A06D103E000BF00BFDC
:107DF000002003E0012001E0022000BF00BF704727
:107E0000014601208A781AB9CA781E2A00D10020BA
:107E1000704700007FB505460E4600200090019097
:107E2000029003906B46324629460A20FFF79EFDDA
:107E3000D0B9019882B20420009904F0AFF8642010
:107E400003F0C2FA042003F0E2FC0446224607498C
:107E5000042003F021FF054800780B21B1EB201F1F
:107E600002D103A001F042F97FBD00008E0800207E
:107E7000B3C9B9A6C8A1CFFBB6A9D4C40D0A0000E6
:107E800000BFFEE77047000070B5002100230F22FD
:107E9000C47804B3154C246804F4E064C4F5E064C9
:107EA000210AC1F10403CA40447804FA03F184783A
:107EB0001440214309010E4C0678A155047804F0C2
:107EC0001F050124AC4005786D11AD0005F1E025DA
:107ED000C5F8004109E0047804F01F050124AC4016
:107EE000044D0678761145F8264070BD0CED00E093
:107EF00000E400E080E100E002490143024A116031
:107F0000704700000000FA050CED00E0704700002B
:107F100010B50F48006800F00200022805D00C4898
:107F2000006800F00200012808D140210948FFF74D
:107F30006AF820210748FFF768F807E04021054864
:107F4000FFF763F820210348FFF75DF810BD00003C
:107F500008080140000C014001460020034A506817
:107F600020F4404008435060704700000010024079
:107F700029B1064A52690243044B5A6104E0034A9C
:107F800052698243014B5A61704700000010024061
:107F900029B1064AD2690243044BDA6104E0034A7C
:107FA000D2698243014BDA61704700000010024041
:107FB00029B1064A12690243044B1A6104E0034ADC
:107FC00012698243014B1A617047000000100240A1
:107FD00029B1064A92690243044B9A6104E0034ABC
:107FE00092698243014B9A61704700000010024081
:107FF00029B1064AD2680243044BDA6004E0034A1E
:10800000D2688243014BDA607047000000100240E2
:1080100030B500210022002400232D4D6D6805F0AD
:108020000C0121B1042905D0082923D105E0294DEF
:10803000056022E0274D05601FE0254D6D6805F4C1
:108040007012234D6D6805F48034022505EB9242D1
:108050001CB9214D554305600BE01D4D6D6805F4BD
:1080600000351DB11C4D5543056002E0194D5543C7
:10807000056002E0174D056000BF00BF144D6D683C
:1080800005F0F0010909154D6B5C0568DD404560A0
:108090000F4D6D6805F4E061090A104D6B5C456891
:1080A000DD4085600A4D6D6805F46051C90A0B4DCD
:1080B0006B5C4568DD40C560054D6D6805F4404169
:1080C000890B074D6B5CC568B5FBF3F5056130BDE9
:1080D0000010024000127A0000093D009E000020BE
:1080E000AE00002010B580210748FEF78CFF02206B
:1080F00003F088F980210448FEF787FF4FF4C86039
:1081000003F062F910BD00000010014010B50446F4
:1081100000BF02210A4800F021F80028F9D02146CA
:10812000074800F027F800BF0121054800F016F8C5
:108130000028F9D0024800F01AF8C0B210BD0000C3
:108140000038004021B1028842F04002028004E081
:1081500002884FF6BF731A40028070470246002023
:1081600013890B400BB1012000E00020704701464D
:10817000888970478181704710B50022028802F417
:1081800041520B884C8823438C882343CC8823435B
:108190000C8923434C8923438C892343CC89234373
:1081A0001A430280838B4FF2FF74234083830B8A30
:1081B000038210BD00B587B001211D20FFF708FF25
:1081C00001210803FFF704FF06A8FEF720FF102097
:1081D000ADF818008DF81B0003208DF81A0006A9D1
:1081E0001E48FEF733FE10211C48FEF70EFF06A8BE
:1081F000FEF70DFFE020ADF8180018208DF81B00E9
:1082000003208DF81A0006A91548FEF71FFE00206E
:10821000ADF804004FF48270ADF806004FF4006032
:10822000ADF808000220ADF80A000120ADF80C00FE
:108230004002ADF80E003820ADF810000020ADF877
:1082400012000720ADF8140001A90648FFF794FFBB
:1082500001210448FFF776FF07B000BD0010014080
:108260000008014000300140704710B500F002F8EE
:1082700010BD00000CB5002001900090334800684C
:1082800040F480303149086000BF3048006800F495
:10829000003000900198401C0190009818B9019896
:1082A000B0F5A06FF1D12948006800F4003010B19A
:1082B0000120009001E0002000900098012843D1A7
:1082C0002348006840F01000214908600846006813
:1082D00020F0030008600846006840F002000860D3
:1082E0001A4840681949486008464068486008468E
:1082F000406840F4806048600846406820F47C1084
:1083000048600846406840F4E81048600846006845
:1083100040F08070086000BF0C48006800F00070FA
:108320000028F9D00948406820F003000749486058
:108330000846406840F00200486000BF03484068BB
:1083400000F00C000828F9D10CBD0000001002401C
:1083500000200240012080F3138800BF00BF0748BF
:10836000006800F4E06006490843001D0349086006
:10837000BFF34F8F00BF00BFFEE700000CED00E031
:108380000000FA057047000010B51248006840F080
:10839000010010490860084640680F4908400D492F
:1083A0004860084600680D4908400A4908600846C8
:1083B000006820F4802008600846406820F4FE0031
:1083C00048604FF41F008860FFF74FFF04480549DD
:1083D000086010BD001002400000FFF8FFFFF6FE2D
:1083E0000050000808ED00E04FF0E021096921F09D
:1083F00004014FF0E0221161C21700EB5272C2F388
:10840000C702074B1A701946097801EB4102C2EB0B
:10841000C1114FF6FF7202EAC101024A1180704792
:108420001E000020200000200EB501210846FFF7A5
:10843000AFFD4FF0804000F0CDF86420ADF80400AF
:108440004720ADF800000020ADF8020069464FF06B
:10845000804000F0CDF90121880700F0A8F8012242
:108460001146900700F0BBF90121880700F0A5F83C
:1084700000210120FFF78CFD0EBD000010B5012189
:10848000880700F09BF978B10121880700F092F885
:10849000002407E0054850F82400401C034941F837
:1084A0002400641C092CF5DB10BD0000980200209C
:1084B00008B54FF4E060FFF71FFD1C208DF80000A9
:1084C00000208DF8010004208DF8020001208DF8B5
:1084D00003006846FFF7D8FC08BD00000EB5012177
:1084E0000220FFF755FD114800F074F86420ADF844
:1084F00004004720ADF800000020ADF802006946F6
:108500000A4800F075F90121084800F050F80122EE
:108510001146064800F063F90121044800F04DF8C7
:1085200000210220FFF734FD0EBD000000040040D2
:1085300010B50121104800F041F9E0B101210E48C9
:1085400000F038F80D480068401C0C4908600846E7
:1085500000684CF25031884207DB09480068401C33
:10856000074908600020054908600548006802289E
:1085700001D9FFF7EFFE10BD0004004014000020F9
:108580001800002008B54FF4E060FFF7B5FC1D208F
:108590008DF8000000208DF801000B208DF80200FE
:1085A00001208DF803006846FFF76EFC08BDCA4342
:1085B00002827047CA430282704721B1028842F0AA
:1085C0000102028004E002884FF6FE731A40028026
:1085D0007047000010B504466848844208D1012164
:1085E000C014FFF705FD0021E014FFF701FDC4E012
:1085F000B4F1804F08D101210846FFF7D9FC0021D2
:108600000120FFF7D5FCB8E05D48844208D1012184
:108610000220FFF7CDFC00210220FFF7C9FCACE0EF
:108620005848844208D101210420FFF7C1FC0021F1
:108630000420FFF7BDFCA0E05348844208D101218B
:108640000820FFF7B5FC00210820FFF7B1FC94E0FB
:108650004E48844208D101211020FFF7A9FC0021D7
:108660001020FFF7A5FC88E04948844208D1012189
:108670002020FFF79DFC00212020FFF799FC7CE0E3
:108680004448844208D101214014FFF7B1FC002185
:108690006014FFF7ADFC70E03F48844209D101212E
:1086A000C804FFF7A5FC00214FF40020FFF7A0FC51
:1086B00063E03A48844209D101210805FFF798FC9C
:1086C00000214FF48010FFF793FC56E034488442B9
:1086D00009D101214805FFF78BFC00214FF4001060
:1086E000FFF786FC49E02F48844208D10121402051
:1086F000FFF75EFC00214020FFF75AFC3DE02A48CE
:10870000844208D101218020FFF752FC0021802003
:10871000FFF74EFC31E02548844208D10121801545
:10872000FFF746FC0021A015FFF742FC25E020489A
:10873000844209D101210804FFF75AFC00214FF4BB
:108740008030FFF755FC18E01A48844209D1012116
:108750004804FFF74DFC00214FF40030FFF748FCC0
:108760000BE01548844208D101218804FFF740FC42
:1087700000214FF48020FFF73BFC10BD002C01408E
:108780000004004000080040000C004000100040C1
:108790000014004000340140004C014000500140F2
:1087A0000054014000180040001C00400020004020
:1087B00000400140004401400048014030B50246FD
:1087C000002000230024158A05EA0103958905EAA3
:1087D000010413B10CB1012000E0002030BD1AB13A
:1087E00083890B43838102E083898B4383817047B4
:1087F000002202881D4B98420ED01D4B98420BD090
:10880000B0F1804F08D01B4B984205D01A4B9842CC
:1088100002D01A4B984204D14FF68F731A404B88FE
:108820001A43174B984207D0164B984204D04FF684
:10883000FF431A40CB881A4302808B8883850B88BC
:1088400003850A4B98420BD0094B984208D00E4B37
:10885000984205D00D4B984202D00D4B984201D161
:108860000B7A03860123838270470000002C0140AD
:10887000003401400004004000080040000C0040AB
:10888000001000400014004000400140004401403E
:108890000048014000B585B0012144F20400FFF713
:1088A00097FB18208DF803004FF40070ADF800001E
:1088B00003208DF8020069461748FEF7C7FA042026
:1088C0008DF803000002ADF8000069461248FEF77B
:1088D000BDFA4FF4E13001900020ADF80800ADF88A
:1088E0000A00ADF80C00ADF810000C20ADF80E0039
:1088F000012240F22551094800F0EAFA01A907488F
:1089000000F00CFB0121054800F09FFA40210348CC
:1089100000F092FA05B000BD0008014000380140A7
:1089200010B5002440F225512E4800F0A7FA002887
:1089300055D040F225512B4800F07EFA294800F02E
:1089400059FBC4B22848007800B110BD2748007810
:10895000012800D1F9E72448007878B92248007F3F
:1089600060B9662C0AD120494878411C1E4A5170D2
:10897000911C0C540120891E0877E6E71A484078BC
:108980001A2813DA1848007F01280FD116484078BA
:10899000122804DA1448407F2044134948771249CA
:1089A0004878411C104A5170911C0C540E48407874
:1089B0001A2814D10C48C07E99280BD10A48007D92
:1089C0000949497F884205D10120074908700020E4
:1089D000487748700020044948700877487700BFFE
:1089E000B3E7000000380140300300208800002079
:1089F00008B54FF4E060FFF77FFA25208DF80000FE
:108A000000208DF8010001208DF802008DF8030090
:108A10006846FFF739FA08BD00B585B0012104208A
:108A2000FFF7D6FA01214804FFF7B2FA0420ADF8A7
:108A3000100018208DF8130003208DF8120004A9EF
:108A40001748FEF703FA0820ADF8100004208DF84F
:108A5000130004A91248FEF7F9F94FF4E130009031
:108A60000020ADF80400ADF80600ADF80800ADF840
:108A70000C000C20ADF80A00012240F225510948F3
:108A800000F026FA6946074800F048FA0121054837
:108A900000F0DBF94021034800F0CEF905B000BD3D
:108AA000000801400044004010B50024082164483B
:108AB00000F0D7F930B1624800F09CFA0821604814
:108AC00000F0BAF904215E4800F0CBF930B15C48FF
:108AD00000F090FA04215A4800F0AEF902215848FB
:108AE00000F0BFF930B1564800F084FA0221544832
:108AF00000F0A2F90121524800F0B3F930B150481A
:108B000000F078FA01214E4800F096F940F2255124
:108B10004B4800F0B3F900287ED0494800F06AFACB
:108B2000C4B24848007800B110BD4648407878B9D2
:108B30004448007F60B9242C0AD142494878411C3E
:108B4000404A5170911C0C540120891E0877EBE7B4
:108B50003C4840780A2813DA3A48007F01280FD1B0
:108B600038484078092804DA3648407F204435499F
:108B7000487734494878411C324A5170911C0C5452
:108B8000304840780A2854D12E488178C078014472
:108B90002C48007901442B484079014429488079C8
:108BA00001442848C07901442648007A01442548F8
:108BB000407A01442348807A08442249487708468D
:108BC000417FC07A81422FD100210120FFF7E0F9D7
:108BD0001D48007860B91C480078401C1A4908708C
:108BE00001210220FFF7D4F901211848FFF7E5FC25
:108BF00020211748FEF709FA40211548FEF703FA2D
:108C000080211348FEF701FA4FF480711048FEF7F7
:108C1000FAF901200B4900E010E008700D490870D6
:108C200000200849487748700020064948700877B6
:108C3000487740F22551024800F0FEF800BF73E784
:108C4000004400404E0300201D00002000040040AE
:108C5000000C01408200002008B54FF4E060FFF7EF
:108C60004BF926208DF8000000208DF8010002202D
:108C70008DF8020001208DF803006846FFF704F923
:108C800008BD000000B585B001210820FFF7A0F95C
:108C900001218804FFF77CF918208DF803004FF4B8
:108CA0008060ADF8000003208DF802006946184886
:108CB000FEF7CCF804208DF803004002ADF8000068
:108CC00069461348FEF7C2F84FF4E13001900020E6
:108CD000ADF80800ADF80A00ADF80C00ADF81000D2
:108CE0000C20ADF80E00012240F22551094800F099
:108CF000EFF801A9074800F011F90121054800F03B
:108D0000A4F84021034800F097F805B000BD00002A
:108D1000000C01400048004010B5002440F22551ED
:108D2000334800F0ABF800285FD040F225513048BE
:108D300000F082F82E4800F05DF9C4B22D480078AA
:108D400000B110BD2C480078012800D1F9E72B486C
:108D5000007880B92A48007868B9662C0BD1274979
:108D60000878411C254A1170264941F8204001200D
:108D700023490870E5E7214800781A2814DA2048CA
:108D80000078012810D11D480078122804DA1E4806
:108D9000007820441C49087018490878411C174A7B
:108DA0001170184941F82040144800781A281CD145
:108DB0001448406E992811D11248806C12490978E4
:108DC00088420BD101200B49087000200E49087021
:108DD00001200E490870002008490870002007494A
:108DE0000870074908700849087000BFA9E700002B
:108DF00000480040220000208800002024000020BD
:108E000025000020BC0200202600002023000020B6
:108E100008B54FF4E060FFF76FF827208DF80000E9
:108E200000208DF8010001208DF802008DF803006C
:108E30006846FFF729F808BD01F40072B2F5007F1B
:108E400000D100BFCA430280704721B1828942F439
:108E50000052828104E082894DF6FF731A408281BC
:108E6000704702460020B1F5007F00D100BF138893
:108E70000B400BB1012000E00020704770B50246A6
:108E8000002400230025002040F66A16B14200D1DC
:108E900000BFC1F3421501F01F03012606FA03F3D8
:108EA000012D02D19689334006E0022D02D1168AA7
:108EB000334001E0968A33400C12012606FA04F48E
:108EC0001688344013B10CB1012000E0002070BDC1
:108ED000F0B50346002400260025002040F66A175E
:108EE000B94200D100BF1846C1F3421401F01F0679
:108EF000012707FA06F5012C01D10C3004E0022C01
:108F000001D1103000E014301AB107682F43076018
:108F100002E00768AF430760F0BD00002DE9F047AD
:108F200086B005460E460024A24600BFA146002793
:108F3000B08900B100BF2F462C8A4CF6FF70044068
:108F4000F08804432C82AC894EF6F3100440B088BC
:108F500031890843718908430443AC81AC8A4FF6D8
:108F6000FF400440B0890443AC8201A8FFF750F8E9
:108F70001F48874202D1DDF810A001E0DDF80CA007
:108F8000A88900F4004040B10AEBCA0000EB0A10C7
:108F900031684900B0FBF1F807E00AEBCA0000EBCA
:108FA0000A1031688900B0FBF1F86420B8FBF0F0DA
:108FB00004012009642101FB1089A88900F4004004
:108FC00040B1322000EBC900B0FBF1F000F0070027
:108FD000044308E0322000EB09106421B0FBF1F0FB
:108FE00000F00F0004432C8106B0BDE8F0870000BC
:108FF0000038014001468888C0F308007047C1F37B
:1090000008028280704700BF028802F08002002AB6
:10901000FAD08180704700BFFEE7000010B504461B
:109020002CB94FF480510548FDF7EDFF05E0012C08
:1090300003D121030148FDF7E8FF10BD000C0140FA
:1090400000B587B001218803FEF7A2FF01210920A6
:10905000FEF7BEFF4FF46040ADF8040003208DF82A
:10906000060018208DF8070001A91E48FDF7EEFE46
:109070004FF48050ADF8040003208DF80600102056
:109080008DF8070001A91748FDF7E0FE4FF4805165
:109090001448FDF7BAFF0020ADF808004FF48270C5
:1090A000ADF80A000020ADF80C000220ADF80E006B
:1090B0000120ADF810004002ADF812000820ADF814
:1090C00014000020ADF816000720ADF8180002A922
:1090D0000548FFF751F801210348FFF733F807B0BF
:1090E00000BD0000000C0140003800400FB4054BEB
:1090F00010B503A9044A029800F0F2F810BC5DF81C
:1091000014FB000039B70008880200200FB4084B98
:1091100010B504A902AA039800F0E2F8044602A9D7
:10912000002000F074FC204610BC5DF814FB000029
:109130000F9A0008004870479402002002E008C817
:10914000121F08C1002AFAD170477047002001E0C1
:1091500001C1121F002AFBD1704700002DE9FF5FFB
:1091600082B00021DDE90430020DDDF840B0034398
:1091700018D044F61050A2F2FF3242431514119851
:1091800001281FD0A5EB0B00401C5FEA000A4FF03E
:1091900000064E4FDFF83891B046504615D5CAF15B
:1091A000000413E0119801244AA3012801D16FEAB9
:1091B0000B010298119AC0E90031C0E9024206B0E1
:1091C000BDE8F09FCBF10000DFE704460021404AF4
:1091D000491842EB0450CDE9001012E0E00707D037
:1091E00032463B4640464946FCF7E3F8804689460E
:1091F00032463B4610461946FCF7DBF806460F465A
:109200006410002CEAD1DDE90401DDE90023BAF1A4
:10921000000F06DAFCF7CDF842464B46FCF7C9F8DA
:1092200005E0FCF7E8FA42464B46FCF7E4FA044650
:109230000E460022284BFCF765FB03D84FF0FF30A9
:10924000014607E00022254B20463146FCF70AF88C
:10925000FCF740FB102409E0002C0ADB0A22002363
:10926000FCF79BF9039B30321A55641E50EA010249
:10927000F2D1641C039AC4F111031444119A012A17
:1092800003D0012208430DD10AE0084304D0002096
:109290004FF0110B119072E7A3EB0B056D1E0DE063
:1092A0005B4504DD4FF0000205F1010504E003DA3F
:1092B0004FF00002A5F10105002AECD002981199A7
:1092C000C0E90231C0E9004579E700000000144020
:1092D0000000F03F300000000000F0430000E03FDD
:1092E0002DE9FF4F95B09B468946064600250FE2C3
:1092F000252877D100242746F84A0121059400E06B
:10930000044316F8013F203B01FA03F01042F7D165
:1093100030782A2811D06FF02F033078A0F1300276
:10932000092A16D8059A44F0020402EB820203EBE4
:1093300042021044761C0590EFE759F8042B059281
:10934000002A03DA504244F40054059044F0020429
:10935000761C30782E2816D116F8010F44F004043C
:109360002A280DD06FF02F023078A0F13003092B9E
:1093700009D807EB870302EB4303C718761CF3E712
:1093800059F8047B761C30786C280FD006DC4C280A
:1093900017D068280DD06A2814D104E0742810D0A2
:1093A0007A280FD10DE044F400140AE044F480144C
:1093B00001E044F440147278824202D104F5801432
:1093C000761C761C307866280BD013DC582877D0B2
:1093D00009DC002875D04528F6D04628F4D0472867
:1093E0001AD19DE118E0632835D0642879D065282A
:1093F00012D195E1702873D008DC6728F1D0692874
:109400006FD06E280DD06F2806D1B5E073282CD010
:10941000752875D0782874D05A46179990476D1CD6
:1094200075E1C4F30250022809D003280DD0D9F801
:10943000001004280DD00D6009F1040967E1D9F886
:109440000010EA17C1E90052F6E7D9F800100D80C4
:10945000F2E70D70F0E719F8041B8DF800100020FA
:109460008DF80100EA46012003E059F804AB4FF003
:10947000FF3061074FF0000102D40DE008F1010157
:109480008846B9420FDA8045F8DB1AF8081000293F
:10949000F4D108E008F1010188468142FADB1AF8AC
:1094A00008100029F6D105985B46A0EB0807214675
:1094B0003846179A00F094FA284400EB080507E0B4
:1094C0004DE029E10DE01AF8010B5A461799904733
:1094D000B8F10108F7D25B4621463846179A13E1E6
:1094E00042E00A220092C4F302524FF0000A022A1C
:1094F00008D059F804CB032A4FEAEC710AD00DE0EA
:1095000029E02AE009F1070121F00702F2E802C18F
:10951000914609E00FFA8CFC4FEAEC71042A03D162
:109520004FFA8CFC4FEAEC71002907DA0A46002159
:10953000DCF1000C61EB02012D2202E0220504D5D2
:109540002B228DF80420012203E0E20701D0202223
:10955000F7E7904659E00A2102E010220DE01021C1
:109560004FF0000A00910BE010224FF0000A44F087
:1095700004040827009203E008224FF0000A00923A
:10958000C4F30252022A05D059F804CB0021032A61
:1095900008D009E009F1070121F00702F2E802C151
:1095A000914605E01FFA8CFC042A01D10CF0FF0C57
:1095B0004FF00008220728D5702806D0009B83F0C2
:1095C000100353EA0A0305D00EE040228DF8042070
:1095D000012208E05CEA010206D030228DF8042066
:1095E0008DF8050002229046009B83F0080353EAA1
:1095F0000A030AD15CEA010201D1620705D53022D3
:109600008DF804204FF001087F1E582804D034A0A4
:1096100003900EA802900DE036A0F9E7534660468D
:10962000009AFBF7BAFF84460398825C0298401EBA
:10963000029002705CEA0100F0D1029806A9081AB3
:1096400000F1200A600702D524F4803400E00127ED
:10965000574502DDA7EB0A0000E0002000EB0A01FD
:10966000009005984144401A0590E00306D45B46FB
:109670002146179A059800F0B3F90544002706E043
:1096800001A85A46C05D179990476D1C7F1C47453D
:10969000F6DBE0030CD55B462146179A059800F0EF
:1096A0009FF9054404E030205A46179990476D1CF5
:1096B0000099481E00900029F5DC08E00298029904
:1096C0005A460078491C0291179990476D1CBAF1CF
:1096D0000001AAF1010AF1DC65E10000092801009E
:1096E0003031323334353637383961626364656618
:1096F00000000000303132333435363738394142DA
:10970000434445460000000000F058F90544761C2B
:10971000307800287FF4ECAD19B02846BDE8F08F12
:10972000620700D4062709F1070222F0070CFCE8C3
:109730000223E14603F000485FEA080C02D00FF272
:10974000702C0DE05FEA045C02D50FF2682C07E094
:109750005FEAC47C02D00FF2602C01E0AFF2700C23
:109760004FF0FF3823F00043CDF850C065280CD0EF
:1097700006DC452809D046281DD047283DD13DE0CC
:10978000662818D067287ED138E00021112F01DB30
:10979000112000E0781CCDE9000106A90EA8FFF712
:1097A000DDFCDDE90F010E9A03910021009207F123
:1097B000010A04914DE04FF000400097CDE90110FF
:1097C00006A90EA8FFF7CAFCDDE90F0203920E9B63
:1097D00011990022DDF80CA00093049211B9791CB4
:1097E00000EB010AB7EB0A0004D4C0F1FF3007F127
:1097F000010A0490AAEB0700019044E0012F00DA6F
:1098000001270021112F01DD112000E03846CDE9AC
:10981000000106A90EA8FFF7A1FCDDE90F010E9AD1
:109820000391002104910092BA4621070CD40399B8
:10983000514500DA8A46BAF1010F05DD009AAAF116
:109840000101515C302908D0B84202DA10F1040F4E
:1098500006DA0121CDE9011015E0AAF10101E9E7DD
:10986000002805DC049901440491AAEB000102E000
:10987000411C514500DD8A460499401A401C019064
:109880004FF000400290200704D40198504501DBBE
:10989000CDF8048000208DF84F0002980DF14F079D
:1098A000B0F1004F25D02B200E9002984FF0020807
:1098B00000280CDA404202902D200E9007E00A2189
:1098C0000298FBF754FE3031029007F8011DB8F101
:1098D0000001A8F10108F2DC02980028EFD1791EFE
:1098E0000E980870307800F0200040F0450007F82E
:1098F000020D12A8C01B00F107081498007800B1EF
:10990000012000EB0A01019801EBE0710598414448
:10991000401A401E0590E00306D45B462146179A84
:10992000059800F05DF805441498007818B15A467F
:10993000179990476D1CE00324D55B462146179A82
:10994000059800F04DF805441CE00498002807DB5A
:10995000DDE90301884203DD0098405C179901E0CE
:10996000179930205A469047049805F10105401C8C
:1099700004900198401E019004D12E205A46179958
:1099800090476D1CBAF10001AAF1010ADDDC05E087
:1099900017F8010B5A46179990476D1CB8F1000152
:1099A000A8F10108F4DC5B462146179A0598ABE65E
:1099B0002D0000002B000000200000002DE9F041E8
:1099C000044600251E461746880404D405E039469F
:1099D0002020B0476D1C641EF9D52846BDE8F081F3
:1099E0002DE9F041044600251E469046C80301D5E6
:1099F000302700E02027880404D505E0414638469A
:109A0000B0476D1C641EF9D52846BDE8F0810A6890
:109A1000531C0B60107070472DE9F047FDF77AFB7F
:109A2000FE480078012801D003F0BAFBFC4800781A
:109A3000012801D001F09EFAF9480078012804D1EC
:109A400001F0FEFC642001F0BFFCF648008801280C
:109A500015D10020F3490880F1490870F2490870D7
:109A6000FEF740FB03F09CFB03F068FA03F04AF9B1
:109A7000EE49EF4803F0F8FA0120EE490860EE489D
:109A8000406946F2A811884231D3E748007801289E
:109A90002DD1EA480078012829D00020E649486104
:109AA000E748007878B9002305E0E648C15CE6485D
:109AB000FFF7A9FA5B1C142BF7DB0120E3490870C0
:109AC000DF49087013E0DE48007801280FD1002339
:109AD00005E0DC48C15CDE48FFF795FA5B1C142BFF
:109AE000F7DB0020D64908700120DA490870DA480F
:109AF000407801281BD10020D74908700120D749A0
:109B00000870D548807AD6490870D348007C4870E0
:109B1000D148407C8870D048807CC870CE48C07CDA
:109B20008871CD48807D0871CB48C07D4871CD4893
:109B3000007801281BD10020CA4908700120CA49B9
:109B40000870C848807AC9490870C648007C4870C7
:109B5000C448407C8870C348807CC870C148C07CC1
:109B60008871C048807D0871BE48C07D4871B24888
:109B70000069BF49884254D30020AF4908610222DE
:109B8000BC49042002F00AFA642001F01DFCBA4826
:109B90000078D02812D10C20A64908600020B749CF
:109BA0000880B7490870C821B348FBF7F6FA0120CE
:109BB000B44908700020B449087032E0AF4800880A
:109BC000401CAE490880AE480078401CAC49087083
:109BD000AA480088022807DD0E2096490860A74899
:109BE0000188AAA0FFF782FAA4480088032818DD9C
:109BF000ACA0FFF77BFA0020A0490880012089492A
:109C000008800222AD49042002F0C8F900209D49D5
:109C10000870C8219848FBF7C0FA8021A848FBF7D4
:109C2000BCFA8548016AA748007840F27122504387
:109C3000B1EB001F18D300207F49086291480078DB
:109C4000012811D18D48008801280DDA9EA0FFF768
:109C50004DFAA0480078401C9E49087001207749C1
:109C600008700320734908609A48007803280FDBC6
:109C700099480078401C984908700846017894205B
:109C800001F050F94FF47A7001F09EFBFEF762FB91
:109C90006948406842F21071884223D30020664927
:109CA00048608E480078012805D102208C49087050
:109CB0007549087016E08B48007801280BD08A4857
:109CC0000078012807D089480078012803D0884807
:109CD0000078012803D101208149087002E00020AA
:109CE0007F4908705448C068B0F57A6F54D300209B
:109CF0005149C8607A48007820B101281DD0022857
:109D000049D136E07B48007858B920217A48FDF7E0
:109D10007CF940217848FDF776F9012075490870F3
:109D20000AE020217448FDF770F940217248FDF7E0
:109D30006CF900206F4908702DE06E48007801280A
:109D40000BD140216C48FDF760F920216A48FDF7EE
:109D50005AF90020674908700AE040216648FDF77B
:109D600054F920216448FDF750F901206149087039
:109D700011E020216048FDF748F940215E48FDF7D9
:109D800042F980215C48FDF740F94FF480715A4850
:109D9000FDF739F900BF00BF2748806849F6404108
:109DA000884239D320480078012835D10020224943
:109DB000886052480078401C504908705048FCF7B1
:109DC000ADFC4F4840784F4948704D480078887046
:109DD00008464078322809DC08468078642805DC8B
:109DE0000846407830B90846807818B901203D49C6
:109DF000087002E000203B49087043490888FBF7DF
:109E00005BFB0646414A424BFBF7D3FA044600226D
:109E1000404BFBF727FA7FE0F2E000004E03002002
:109E2000D4000020840000209B000020E5000020DA
:109E3000DD0000206C020020980200208800002035
:109E40008F000020340000200038014090000020E6
:109E500000480040920000203003002091000020C4
:109E6000510000206C0300209300002058000020C7
:109E7000A0860100780200206009002086000020F2
:109E800089000020690000208B000020CEB4CAD5D4
:109E9000B5BDD0C4CCF8B4CECAFDA3BA2025640D9C
:109EA0000A000000D0C4CCF8B3ACCAB1A3ACD6D879
:109EB000D0C2C1ACBDD3A3A10D0A00006D0000202B
:109EC0008E08002075000020B7A2B2BCCFFBCFA245
:109ED0000D0A00009D0000204E000020820000209E
:109EE0008A000020800000208100002083000020E4
:109EF000970000208C000020000C014096000020FC
:109F00006F0000205F0000202A000020C3F5285CBD
:109F10008FC2C53F008045408046FBF7F3FAF74902
:109F2000887108468079642801DD5A208871F348D9
:109F3000807918B1F14880795A280CD1F04800781E
:109F4000401CEF49087008460078052808DD01200C
:109F5000EC49087004E00020EA490870E8490870FC
:109F6000E9480078012807D0E6480078012803D0A6
:109F7000E6480078012844D1E3480078012801D15F
:109F8000E3490870DF480078012802D10220E04947
:109F90000870DE480078012802D10320DC490870EF
:109FA000D9480078012806D1D6480078012802D186
:109FB0000420D7490870D4480078012806D1D34836
:109FC0000078012802D10520D1490870CD480078D9
:109FD000012806D1CD480078012802D10620CC49BD
:109FE0000870C848007801280ED1C84800780128B8
:109FF0000AD1C5480078012806D10720C449087055
:10A0000002E00020C2490870C2480068B0F5FA6F4B
:10A0100060D30020BF490860BF48007820B1012804
:10A020001FD0022855D139E0BC48007860B98021A2
:10A03000BB48FCF7EAFF4FF48071B948FCF7E3FF37
:10A040000120B64908700BE08021B548FCF7DDFF20
:10A050004FF48071B248FCF7D8FF0020AF49087078
:10A0600037E0AE48007801280BD10102AC48FCF77C
:10A07000CCFF8021AA48FCF7C6FF0020A749087042
:10A080000BE04FF48071A648FCF7BFFF8021A44885
:10A09000FCF7BBFF0120A14908701AE02021A0486D
:10A0A000FCF7B3FF40219E48FCF7ADFF80219C48A0
:10A0B000FCF7ABFF4FF480719948FCF7A4FF002137
:10A0C0004FF08040FEF779FA00210120FDF760FF94
:10A0D00000BF00BF9348007802281AD19248007848
:10A0E000B8B98C48806940F6B831884211D3002055
:10A0F000884988618B48007802280AD18A4800780C
:10A10000401C8949087001208649087087A0FEF725
:10A11000EDFF84480078B0B98348007898B17D4855
:10A12000806940F6B83188420DD3002079498861B2
:10A130007C48007838B900207B490870794908705C
:10A140007FA0FEF7D3FF83480078012815D182480D
:10A15000007890B16F48C06940F6C41188420CD3B2
:10A1600000206C49C8617B480078012805D1002097
:10A170007949087079A0FEF7B9FF76480078B0B940
:10A180007548007898B96348C06940F6C4118842A0
:10A190000DD300205F49C8616E48007838B96E4819
:10A1A0000078401C6C49087071A0FEF79FFF75484D
:10A1B0000078A0B97448FBF7D1FD73490868FBF734
:10A1C00088F94E49C87070494868FBF782F94B49D5
:10A1D00008716E48C078487101206A4908706C485F
:10A1E0000078052801DDFEF7B5F86A484078882830
:10A1F0007ED16848C0789928FAD1664866490978BE
:10A20000405CC22814D164480078401C6249087040
:10A2100060480978405C61490978884234D101205E
:10A220005F4908705C480078401C5B4908702BE06F
:10A23000584859490978405CC32815D156480078D8
:10A24000401C5549087053480978405C40305349D8
:10A250000978884218D10120514908704E48007889
:10A26000401C4D4908700FE04A484B490978405C52
:10A270004A490978884207D101204949087046486F
:10A280000078401C44490870424843490978405CC2
:10A29000C22814D140480078401C3F4908703D480E
:10A2A0000978405C3D494978884207D102203C4901
:10A2B000087039480078401C3749087082E03548FA
:10A2C00035490978405CC3286CD133480078401C7C
:10A2D000314908702F480978405C40302F4949784F
:10A2E00088426FD102202E4908702B48007800E088
:10A2F00045E1401C2849087064E053E05F000020FD
:10A3000073000020810000208000002083000020D6
:10A3100066000020980200208B0000208D000020A5
:10A32000000C014097000020990000206163632029
:10A33000697320636C6F73656420210D0A0000004F
:10A34000616363206973206F70656E656420210D01
:10A350000A000000980000209A00002062617474D6
:10A36000657279206973206869676820210D0A0089
:10A3700062617474657279206973206C6F77202133
:10A380000D0A0000740000208C0300205100002002
:10A39000890000200E0900204C0000207C000020D5
:10A3A0004D000020FD48FE490978405CFD49497890
:10A3B000884207D10220FC490870F9480078401C07
:10A3C000F7490870F548F6490978405CC22814D16D
:10A3D000F3480078401CF2490870F0480978405C66
:10A3E000F0498978884234D10320EF490870EC485D
:10A3F0000078401CEA4908702BE0E848E8490978F1
:10A40000405CC32815D1E6480078401CE449087038
:10A41000E2480978405C4030E2498978884218D1A6
:10A420000320E1490870DE480078401CDC490870D0
:10A430000FE0DA48DA490978405CDA4989788842DD
:10A4400007D10320D8490870D5480078401CD4496A
:10A450000870D248D2490978405CC22814D1D0484B
:10A460000078401CCE490870CC480978405CCD4942
:10A47000C978884234D10420CB490870C848007894
:10A48000401CC74908702BE0C448C5490978405CA6
:10A49000C32815D1C2480078401CC1490870BF4884
:10A4A0000978405C4030BF49C978884218D10420FF
:10A4B000BD490870BA480078401CB94908700FE0DF
:10A4C000B648B7490978405CB649C978884207D18F
:10A4D0000420B5490870B2480078401CB0490870A3
:10A4E000B148007804283FD1AC48AD490978405CB8
:10A4F00001280CD1ADA0FEF7F9FD0121802000F06C
:10A5000011FD4FF47A7000F05FFFFDF723FFA348C1
:10A51000A3490978405C022813D1A1480078401C67
:10A520009F4908709D480978405CA5490870084615
:10A530000178A4A0FEF7DAFDA1480178842000F09C
:10A54000F1FC964896490978405C03280CD1A8A0F4
:10A55000FEF7CCFD0221542001F0DEF84FF47A70B2
:10A5600000F032FFFDF7F6FE00208F49087004204E
:10A570008B49087040218948FAF70FFE09E0002056
:10A580008949087004208649087040218348FAF7F9
:10A5900004FE9E49087800EBD0714910A0EB410100
:10A5A00081B99B49097801290CD1C9039948FCF765
:10A5B0002AFD4FF480419748FCF727FD002094497D
:10A5C000087022E09149087800EBD0714910A0EBA7
:10A5D000410181B99049097801290CD1C9038D48FD
:10A5E000FCF713FD4FF480418A48FCF70CFD002076
:10A5F0008949087009E04FF400418648FCF705FDE1
:10A600004FF480418348FCF700FD8049087800EB57
:10A61000D0714910A0EB410181B980490978012925
:10A620000CD149037B48FCF7EEFC4FF400717C48E9
:10A63000FCF7EBFC00207949087022E073490878A8
:10A6400000EBD0714910A0EB410181B9754909783F
:10A6500001290CD149036F48FCF7D7FC4FF4007176
:10A660006F48FCF7D0FC00206E49087009E04FF4F9
:10A6700000516848FCF7C9FC4FF400716848FCF7CA
:10A68000C4FC6249087800EBD0714910A0EB41018D
:10A69000D1B965490978012916D1C9035D48FCF78C
:10A6A000B4FC4FF480415B48FCF7ADFC4FF4005123
:10A6B0005848FCF7AAFC4FF400715948FCF7A3FC7A
:10A6C00000205949087013E04FF400415148FCF74D
:10A6D0009CFC4FF480414F48FCF797FC4FF400512D
:10A6E0004C48FCF792FC4FF400714D48FCF78DFC90
:10A6F0004E48007801284FD100204D4908604D494F
:10A7000008604A4908700846C078012845D10846C3
:10A71000407901281FD14849087024204749087012
:10A720000120487006208870002000F0A5FB4349F6
:10A73000C870022000F0A0FB40490871042000F01E
:10A740009BFB3E494871062000F096FB3B4988710F
:10A750000020C871087235484079022876D101205E
:10A7600035490870242035490870022048700620B9
:10A770008870102000F080FB3049C870122000F073
:10A780007BFB2E490871142000F076FB2B494871A1
:10A79000162000F071FB54E03AE3E7E10E090020D7
:10A7A0004C0000207C0000204D000020B6A9D4C43D
:10A7B000CAD5B5BDD6D8C6F4D6B8C1EE210D0A00AB
:10A7C00075000020B6A9D4C4CAD5B5BDB7A2B2BC25
:10A7D000BCE4B8F4D6B8C1EE21BCE4B8F4B1E4B836
:10A7E000FCCEAAA3BA2564C3EB20A3A10D0A0000E6
:10A7F000CAD5B5BDB8FCD0C2B3CCD0F2D6B8C1EE84
:10A80000A3ACD6D8C6F40D0A0000000096000020C4
:10A8100090000020001001409100002092000020D4
:10A82000000C014093000020940000204E03002003
:10A83000140000201800002071000020A803002050
:10A8400004E0FE4988710020C8710872FC48407914
:10A85000032827D10120FB4908702420F7490870FC
:10A860000320487006208870202000F005FBF34983
:10A87000C870222000F000FBF0490871242000F08D
:10A88000FBFAEE494871262000F0F6FAEB49887190
:10A89000282000F0F1FAE949C8712A2000F0ECFA0A
:10A8A000E6490872E6484079042820D10120E549AC
:10A8B00008702420E1490870042048700620887040
:10A8C000302000F0D9FADD49C870322000F0D4FA07
:10A8D000DA490871342000F0CFFAD849487136209F
:10A8E00000F0CAFAD54988710020C8710872D448AE
:10A8F0004079052820D10120D24908702420CF4971
:10A9000008700520487006208870862000F0B4FA90
:10A91000CA49C870882000F0AFFAC8490871902071
:10A9200000F0AAFAC5494871922000F0A5FAC3497F
:10A9300088710020C8710872C148407906281FD16B
:10A940000120C04908702420BC49087006204870C6
:10A950008870502000F090FAB849C870522000F07A
:10A960008BFAB6490871532000F086FAB349487152
:10A97000562000F081FAB14988710020C871087230
:10A98000AF484079072818D10120AE49087024202B
:10A99000AA4908700720487006208870602000F0DF
:10A9A0006BFAA649C870622000F066FAA3490871E4
:10A9B000002048718871C8710872A1484079082840
:10A9C0000BD101209F49087024209C490870082061
:10A9D000487006208870002008729948407909283C
:10A9E00014D1012097490870242094490870092047
:10A9F0004870062088700020C870087148718871FE
:10AA0000C87108724FF4036100F086FE8C484079EB
:10AA1000102829D14FF47A7000F0D6FC4FF47A70E8
:10AA200000F0D2FC4FF47A7000F0CEFC4FF47A7054
:10AA300000F0CAFC4FF47A7000F0C6FC4FF47A7054
:10AA400000F0C2FC4FF47A7000F0BEFC4FF47A7054
:10AA500000F0BAFC4FF47A7000F0B6FC4FF47A7054
:10AA600000F0B2FCFDF776FC7548407912287DD1E4
:10AA7000242072490870122048702020887000201D
:10AA800000F0FAF96D49C870022000F0F5F96B4941
:10AA90000871042000F0F0F968494871062000F0C0
:10AAA000EBF966498871102000F0E6F96349C87136
:10AAB000122000F0E1F961490872142000F0DCF97D
:10AAC0005E494872162000F0D7F95C498872202050
:10AAD00000F0D2F95949C872222000F0CDF9574947
